{
  "abi": [
    {
      "inputs": [
        {
          "internalType": "address",
          "name": "_quadrataContract",
          "type": "address"
        },
        {
          "internalType": "address",
          "name": "_ssvToken",
          "type": "address"
        },
        {
          "internalType": "address",
          "name": "_ssvContract",
          "type": "address"
        },
        {
          "internalType": "address",
          "name": "_depositAddress",
          "type": "address"
        }
      ],
      "stateMutability": "nonpayable",
      "type": "constructor"
    },
    {
      "anonymous": false,
      "inputs": [
        {
          "indexed": false,
          "internalType": "address",
          "name": "_sender",
          "type": "address"
        }
      ],
      "name": "DepositReceived",
      "type": "event"
    },
    {
      "anonymous": false,
      "inputs": [
        {
          "indexed": false,
          "internalType": "address",
          "name": "_sender",
          "type": "address"
        },
        {
          "indexed": false,
          "internalType": "bytes",
          "name": "_pubkey",
          "type": "bytes"
        }
      ],
      "name": "DepositReceivedStaked",
      "type": "event"
    },
    {
      "anonymous": false,
      "inputs": [
        {
          "indexed": false,
          "internalType": "address",
          "name": "_sender",
          "type": "address"
        }
      ],
      "name": "DepositStaked",
      "type": "event"
    },
    {
      "anonymous": false,
      "inputs": [
        {
          "indexed": true,
          "internalType": "address",
          "name": "previousOwner",
          "type": "address"
        },
        {
          "indexed": true,
          "internalType": "address",
          "name": "newOwner",
          "type": "address"
        }
      ],
      "name": "OwnershipTransferred",
      "type": "event"
    },
    {
      "anonymous": false,
      "inputs": [
        {
          "indexed": false,
          "internalType": "uint256",
          "name": "_tokenID",
          "type": "uint256"
        },
        {
          "indexed": false,
          "internalType": "address",
          "name": "_user",
          "type": "address"
        },
        {
          "indexed": false,
          "internalType": "uint256",
          "name": "_fee",
          "type": "uint256"
        },
        {
          "indexed": false,
          "internalType": "uint256",
          "name": "_stakedETH",
          "type": "uint256"
        }
      ],
      "name": "UserRequestedWithdrawal",
      "type": "event"
    },
    {
      "inputs": [],
      "name": "DEPOSIT_ADDRESS",
      "outputs": [
        {
          "internalType": "address",
          "name": "",
          "type": "address"
        }
      ],
      "stateMutability": "view",
      "type": "function"
    },
    {
      "inputs": [],
      "name": "QUADRATA",
      "outputs": [
        {
          "internalType": "address",
          "name": "",
          "type": "address"
        }
      ],
      "stateMutability": "view",
      "type": "function"
    },
    {
      "inputs": [],
      "name": "SSV_ADDRESS",
      "outputs": [
        {
          "internalType": "address",
          "name": "",
          "type": "address"
        }
      ],
      "stateMutability": "view",
      "type": "function"
    },
    {
      "inputs": [],
      "name": "SSV_TOKEN",
      "outputs": [
        {
          "internalType": "address",
          "name": "",
          "type": "address"
        }
      ],
      "stateMutability": "view",
      "type": "function"
    },
    {
      "inputs": [],
      "name": "depositIntoMultiSig",
      "outputs": [],
      "stateMutability": "payable",
      "type": "function"
    },
    {
      "inputs": [
        {
          "internalType": "bytes",
          "name": "pubkey",
          "type": "bytes"
        },
        {
          "internalType": "uint32[]",
          "name": "operatorIds",
          "type": "uint32[]"
        },
        {
          "internalType": "bytes[]",
          "name": "sharesPublicKeys",
          "type": "bytes[]"
        },
        {
          "internalType": "bytes[]",
          "name": "sharesEncrypted",
          "type": "bytes[]"
        },
        {
          "internalType": "uint256",
          "name": "ssvAmount",
          "type": "uint256"
        },
        {
          "internalType": "bytes",
          "name": "withdrawal_credentials",
          "type": "bytes"
        },
        {
          "internalType": "bytes",
          "name": "signature",
          "type": "bytes"
        },
        {
          "internalType": "bytes32",
          "name": "deposit_data_root",
          "type": "bytes32"
        }
      ],
      "name": "depositSSV",
      "outputs": [],
      "stateMutability": "payable",
      "type": "function"
    },
    {
      "inputs": [
        {
          "internalType": "bytes",
          "name": "pubkey",
          "type": "bytes"
        },
        {
          "internalType": "uint32[]",
          "name": "operatorIds",
          "type": "uint32[]"
        },
        {
          "internalType": "bytes[]",
          "name": "sharesPublicKeys",
          "type": "bytes[]"
        },
        {
          "internalType": "bytes[]",
          "name": "sharesEncrypted",
          "type": "bytes[]"
        },
        {
          "internalType": "uint256",
          "name": "ssvAmount",
          "type": "uint256"
        }
      ],
      "name": "depositTestSSV",
      "outputs": [],
      "stateMutability": "payable",
      "type": "function"
    },
    {
      "inputs": [
        {
          "internalType": "bytes",
          "name": "pubkey",
          "type": "bytes"
        },
        {
          "internalType": "uint32[]",
          "name": "operatorIds",
          "type": "uint32[]"
        },
        {
          "internalType": "bytes[]",
          "name": "sharesPublicKeys",
          "type": "bytes[]"
        },
        {
          "internalType": "bytes[]",
          "name": "sharesEncrypted",
          "type": "bytes[]"
        },
        {
          "internalType": "uint256",
          "name": "ssvAmount",
          "type": "uint256"
        }
      ],
      "name": "depositTestSSVMultiSig",
      "outputs": [
        {
          "internalType": "bool",
          "name": "",
          "type": "bool"
        },
        {
          "internalType": "bytes",
          "name": "",
          "type": "bytes"
        },
        {
          "internalType": "bool",
          "name": "",
          "type": "bool"
        },
        {
          "internalType": "bytes",
          "name": "",
          "type": "bytes"
        }
      ],
      "stateMutability": "payable",
      "type": "function"
    },
    {
      "inputs": [],
      "name": "getBalance",
      "outputs": [
        {
          "internalType": "uint256",
          "name": "",
          "type": "uint256"
        }
      ],
      "stateMutability": "view",
      "type": "function"
    },
    {
      "inputs": [
        {
          "internalType": "address",
          "name": "_addr",
          "type": "address"
        }
      ],
      "name": "getValidator",
      "outputs": [
        {
          "internalType": "bytes",
          "name": "",
          "type": "bytes"
        }
      ],
      "stateMutability": "view",
      "type": "function"
    },
    {
      "inputs": [],
      "name": "getValidatorSelf",
      "outputs": [
        {
          "internalType": "bytes",
          "name": "",
          "type": "bytes"
        }
      ],
      "stateMutability": "view",
      "type": "function"
    },
    {
      "inputs": [],
      "name": "is_BUSINESS",
      "outputs": [
        {
          "internalType": "bytes32",
          "name": "",
          "type": "bytes32"
        }
      ],
      "stateMutability": "view",
      "type": "function"
    },
    {
      "inputs": [],
      "name": "owner",
      "outputs": [
        {
          "internalType": "address",
          "name": "",
          "type": "address"
        }
      ],
      "stateMutability": "view",
      "type": "function"
    },
    {
      "inputs": [],
      "name": "renounceOwnership",
      "outputs": [],
      "stateMutability": "nonpayable",
      "type": "function"
    },
    {
      "inputs": [
        {
          "internalType": "address",
          "name": "newOwner",
          "type": "address"
        }
      ],
      "name": "transferOwnership",
      "outputs": [],
      "stateMutability": "nonpayable",
      "type": "function"
    },
    {
      "inputs": [
        {
          "internalType": "address",
          "name": "_sender",
          "type": "address"
        }
      ],
      "name": "verified",
      "outputs": [
        {
          "internalType": "bool",
          "name": "",
          "type": "bool"
        }
      ],
      "stateMutability": "view",
      "type": "function"
    }
  ],
  "bytecode": {
    "object": "0x6080346200010157601f62001e0238819003918201601f19168301916001600160401b03831184841017620001065780849260809460405283398101031262000101576200004d816200011c565b6200005b602083016200011c565b6200007760606200006f604086016200011c565b94016200011c565b600160005560015460018060a01b03199033828216176001556040519560018060a01b03948592833391167f8be0079c531659141344cd1fd0a4f28419497f9722a3daafe3b4186f6b6457e0600080a38284600254169185600354169282876004541697600554169a1617600255161760035516176004551617600555611cd09081620001328239f35b600080fd5b634e487b7160e01b600052604160045260246000fd5b51906001600160a01b0382168203620001015756fe6080604052600436101561001257600080fd5b6000803560e01c806301e09fe21461153957806308d4fbd514610fa45780630db065f414610f3e5780630df1ecfd14610eec57806312065fe014610eb25780631904bb2e14610ddb5780634d5a1c1f14610d825780635c4acd2d14610856578063715018a6146107b757806374deec341461046657806380164859146104145780638da5cb5b146103c2578063946eadac146102af578063e99f0c9b1461025d578063f2fde38b146101215763ff0d2c26146100cd57600080fd5b3461011e57807ffffffffffffffffffffffffffffffffffffffffffffffffffffffffffffffffc36011261011e57602073ffffffffffffffffffffffffffffffffffffffff60055416604051908152f35b80fd5b503461011e5760207ffffffffffffffffffffffffffffffffffffffffffffffffffffffffffffffffc36011261011e5760043573ffffffffffffffffffffffffffffffffffffffff8082168092036102595761017b611736565b81156101d557600154827fffffffffffffffffffffffff0000000000000000000000000000000000000000821617600155167f8be0079c531659141344cd1fd0a4f28419497f9722a3daafe3b4186f6b6457e0600080a380f35b60846040517f08c379a000000000000000000000000000000000000000000000000000000000815260206004820152602660248201527f4f776e61626c653a206e6577206f776e657220697320746865207a65726f206160448201527f64647265737300000000000000000000000000000000000000000000000000006064820152fd5b8280fd5b503461011e57807ffffffffffffffffffffffffffffffffffffffffffffffffffffffffffffffffc36011261011e57602073ffffffffffffffffffffffffffffffffffffffff60025416604051908152f35b503461011e57807ffffffffffffffffffffffffffffffffffffffffffffffffffffffffffffffffc36011261011e5733815260206006815260408220604051838194908354906102fe82611a73565b9485855260019287848216918260001461037f575050600114610343575b50505061032b92500383611882565b61033f604051928284938452830190611635565b0390f35b869350819291528282205b85831061036757505061032b935082010138808061031c565b8054838901850152879450869390920191810161034e565b925094505061032b9592507fffffffffffffffffffffffffffffffffffffffffffffffffffffffffffffff0091501682840152151560051b82010138808061031c565b503461011e57807ffffffffffffffffffffffffffffffffffffffffffffffffffffffffffffffffc36011261011e57602073ffffffffffffffffffffffffffffffffffffffff60015416604051908152f35b503461011e57807ffffffffffffffffffffffffffffffffffffffffffffffffffffffffffffffffc36011261011e57602073ffffffffffffffffffffffffffffffffffffffff60045416604051908152f35b5061047036611693565b92610482999899969596929192611af6565b61049361048e33611bc3565b6117b5565b600354600480546040517f095ea7b300000000000000000000000000000000000000000000000000000000815273ffffffffffffffffffffffffffffffffffffffff918216928101929092526024820187905291602090829060449082908f9087165af180156107ac5761077d575b506004541694853b156107795789969594899488948d94610553946040519c8d9b8c9a8b997fe40cb19d000000000000000000000000000000000000000000000000000000008b5260048b016119e0565b03925af1801561076e57908391610756575b50503382526006602052604082209267ffffffffffffffff82116107295761058d8454611a73565b601f81116106e4575b508293601f8311600114610626578284957f1d9f9a9e3282b963f061280cbb7f497e41f15f7e7aa8940b589b36847e9c6036959161061b575b508360011b907fffffffffffffffffffffffffffffffffffffffffffffffffffffffffffffffff8560031b1c19161790555b6106116040519283923384611ac6565b0390a16001815580f35b9050820135386105cf565b808452602084207fffffffffffffffffffffffffffffffffffffffffffffffffffffffffffffffe0841695855b8781106106cc5750847f1d9f9a9e3282b963f061280cbb7f497e41f15f7e7aa8940b589b36847e9c6036969710610694575b5050600183811b019055610601565b7fffffffffffffffffffffffffffffffffffffffffffffffffffffffffffffffff60f88660031b161c19908401351690553880610685565b90916020600181928588013581550193019101610653565b84845260208420601f840160051c8101916020851061071f575b601f0160051c01905b8181106107145750610596565b848155600101610707565b90915081906106fe565b6024837f4e487b710000000000000000000000000000000000000000000000000000000081526041600452fd5b61075f9061183f565b61076a578138610565565b5080fd5b6040513d85823e3d90fd5b8980fd5b61079e9060203d6020116107a5575b6107968183611882565b810190611902565b5038610502565b503d61078c565b6040513d8d823e3d90fd5b503461011e57807ffffffffffffffffffffffffffffffffffffffffffffffffffffffffffffffffc36011261011e576107ee611736565b600073ffffffffffffffffffffffffffffffffffffffff6001547fffffffffffffffffffffffff00000000000000000000000000000000000000008116600155167f8be0079c531659141344cd1fd0a4f28419497f9722a3daafe3b4186f6b6457e08280a380f35b5061086036611693565b909298946108719896949298611af6565b61087d61048e33611bc3565b338652600760205260ff60408720541615610cfe57338652600860205260ff604087205416610c7a578594878993879633885260086020526040882080547fffffffffffffffffffffffffffffffffffffffffffffffffffffffffffffff00166001179055878060035473ffffffffffffffffffffffffffffffffffffffff1660045473ffffffffffffffffffffffffffffffffffffffff16906040518092602082017f8b069f2a000000000000000000000000000000000000000000000000000000009052876024830191610975926020909392919373ffffffffffffffffffffffffffffffffffffffff60408201951681520152565b037fffffffffffffffffffffffffffffffffffffffffffffffffffffffffffffffe0810183526109a59083611882565b815191602001905af49c6109b7611b65565b9e60045473ffffffffffffffffffffffffffffffffffffffff1698604051978897602089019a7f7bf9f3d5000000000000000000000000000000000000000000000000000000008c5260248a0198610a0e996119e0565b037fffffffffffffffffffffffffffffffffffffffffffffffffffffffffffffffe081018252610a3e9082611882565b51915af492610a4b611b65565b9233835260066020526040832067ffffffffffffffff8311610c4d57610a718154611a73565b601f8111610c08575b5083601f8411600114610b3f579284927f1d9f9a9e3282b963f061280cbb7f497e41f15f7e7aa8940b589b36847e9c6036928260019661033f9a999891610b34575b5083871b907fffffffffffffffffffffffffffffffffffffffffffffffffffffffffffffffff8560031b1c19161790555b610afd6040519283923384611ac6565b0390a155610b1f60405195869515158652608060208701526080860190611635565b91151560408501528382036060850152611635565b905082013538610abc565b81855260208520907fffffffffffffffffffffffffffffffffffffffffffffffffffffffffffffffe08516865b818110610bf0575092859261033f99989795926001977f1d9f9a9e3282b963f061280cbb7f497e41f15f7e7aa8940b589b36847e9c60369610610bb8575b50508583811b019055610aed565b7fffffffffffffffffffffffffffffffffffffffffffffffffffffffffffffffff60f88660031b161c19908401351690553880610baa565b91926020600181928689013581550194019201610b6c565b81855260208520601f850160051c81019160208610610c43575b601f0160051c01905b818110610c385750610a7a565b858155600101610c2b565b9091508190610c22565b6024847f4e487b710000000000000000000000000000000000000000000000000000000081526041600452fd5b60846040517f08c379a000000000000000000000000000000000000000000000000000000000815260206004820152602560248201527f596f75206861766520616c7265616479207374616b656420796f75722064657060448201527f6f7369742e0000000000000000000000000000000000000000000000000000006064820152fd5b60846040517f08c379a000000000000000000000000000000000000000000000000000000000815260206004820152602d60248201527f596f752068617665206e6f74206465706f736974656420696e746f207468652060448201527f6d756c7469736967207965742e000000000000000000000000000000000000006064820152fd5b503461011e57807ffffffffffffffffffffffffffffffffffffffffffffffffffffffffffffffffc36011261011e5760206040517faf369ce728c816785c72f1ff0222ca9553b2cb93729d6a803be6af0d2369239b8152f35b503461011e576020807ffffffffffffffffffffffffffffffffffffffffffffffffffffffffffffffffc36011261076a5760043573ffffffffffffffffffffffffffffffffffffffff8116809103610259578252600681526040822060405183819490835490610e4a82611a73565b9485855260019287848216918260001461037f575050600114610e765750505061032b92500383611882565b869350819291528282205b858310610e9a57505061032b935082010138808061031c565b80548389018501528794508693909201918101610e81565b503461011e57807ffffffffffffffffffffffffffffffffffffffffffffffffffffffffffffffffc36011261011e57602047604051908152f35b503461011e57807ffffffffffffffffffffffffffffffffffffffffffffffffffffffffffffffffc36011261011e57602073ffffffffffffffffffffffffffffffffffffffff60035416604051908152f35b503461011e5760207ffffffffffffffffffffffffffffffffffffffffffffffffffffffffffffffffc36011261011e576004359073ffffffffffffffffffffffffffffffffffffffff8216820361011e576020610f9a83611bc3565b6040519015158152f35b506101007ffffffffffffffffffffffffffffffffffffffffffffffffffffffffffffffffc36011261011e5760043567ffffffffffffffff811161076a57610ff09036906004016115d1565b60249291923567ffffffffffffffff811161025957611013903690600401611604565b60443567ffffffffffffffff811161153557611033903690600401611604565b909260643567ffffffffffffffff811161153157611055903690600401611604565b9060a43567ffffffffffffffff8111611418576110769036906004016115d1565b9060c43567ffffffffffffffff811161152d576110979036906004016115d1565b61109f611af6565b6110ab61048e33611bc3565b6801bc16d674ec800000340361145d5773ffffffffffffffffffffffffffffffffffffffff6005541692833b15611459578b61118b8f92948f969461115b61112b976040519a8b998a9889987f22895118000000000000000000000000000000000000000000000000000000008a52608060048b015260848a01916118c3565b917ffffffffffffffffffffffffffffffffffffffffffffffffffffffffffffffffc8884030160248901526118c3565b917ffffffffffffffffffffffffffffffffffffffffffffffffffffffffffffffffc8584030160448601526118c3565b60e4356064830152039134905af1801561143b57611446575b50600354600480546040517f095ea7b300000000000000000000000000000000000000000000000000000000815273ffffffffffffffffffffffffffffffffffffffff9182169281019290925260843560248301529091602091839160449183918e91165af1801561143b5761141c575b5073ffffffffffffffffffffffffffffffffffffffff6004541693843b156114185761127e8a8a9796959488948b946040519b8c9a8b998a987fe40cb19d000000000000000000000000000000000000000000000000000000008a526084359760048b016119e0565b03925af1801561076e57908391611404575b50503382526006602052604082209267ffffffffffffffff8211610729576112b88454611a73565b601f81116113bf575b508293601f831160011461133a578284957f1d9f9a9e3282b963f061280cbb7f497e41f15f7e7aa8940b589b36847e9c6036959161061b57508360011b907fffffffffffffffffffffffffffffffffffffffffffffffffffffffffffffffff8560031b1c19161790556106116040519283923384611ac6565b808452602084207fffffffffffffffffffffffffffffffffffffffffffffffffffffffffffffffe0841695855b8781106113a75750847f1d9f9a9e3282b963f061280cbb7f497e41f15f7e7aa8940b589b36847e9c6036969710610694575050600183811b019055610601565b90916020600181928588013581550193019101611367565b84845260208420601f840160051c810191602085106113fa575b601f0160051c01905b8181106113ef57506112c1565b8481556001016113e2565b90915081906113d9565b61140d9061183f565b61076a578138611290565b8880fd5b6114349060203d6020116107a5576107968183611882565b5038611215565b6040513d8b823e3d90fd5b6114529098919861183f565b96386111a4565b8c80fd5b60c46040517f08c379a000000000000000000000000000000000000000000000000000000000815260206004820152606c60248201527f596f752061726520747279696e6720746f206465706f736974206d6f7265207460448201527f68616e207468652063757272656e7420706f6f6c2063616e20686f6c642e205060648201527f6c65617365207761697420666f7220746865206e657874206f6e65206f72206460848201527f65706f736974206c6573732e000000000000000000000000000000000000000060a4820152fd5b8a80fd5b8680fd5b8480fd5b50807ffffffffffffffffffffffffffffffffffffffffffffffffffffffffffffffffc36011261011e5761156b611af6565b33815260076020526040812060017fffffffffffffffffffffffffffffffffffffffffffffffffffffffffffffff008254161790557ff1ba5e02dd9da55d69765f748d69bc46c6b056e18d3d4f619f1c372c5e568cb86020604051338152a16001815580f35b9181601f840112156115ff5782359167ffffffffffffffff83116115ff57602083818601950101116115ff57565b600080fd5b9181601f840112156115ff5782359167ffffffffffffffff83116115ff576020808501948460051b0101116115ff57565b919082519283825260005b84811061167f5750507fffffffffffffffffffffffffffffffffffffffffffffffffffffffffffffffe0601f8460006020809697860101520116010190565b602081830181015184830182015201611640565b60a07ffffffffffffffffffffffffffffffffffffffffffffffffffffffffffffffffc8201126115ff5767ffffffffffffffff906004358281116115ff57816116de916004016115d1565b939093926024358181116115ff57836116f991600401611604565b939093926044358381116115ff578261171491600401611604565b939093926064359182116115ff5761172e91600401611604565b909160843590565b73ffffffffffffffffffffffffffffffffffffffff60015416330361175757565b60646040517f08c379a000000000000000000000000000000000000000000000000000000000815260206004820152602060248201527f4f776e61626c653a2063616c6c6572206973206e6f7420746865206f776e65726044820152fd5b156117bc57565b60846040517f08c379a0000000000000000000000000000000000000000000000000000000008152602060048201526024808201527f596f7520617265206e6f74206120766572696669656420627573696e6573732060448201527f7965742e000000000000000000000000000000000000000000000000000000006064820152fd5b67ffffffffffffffff811161185357604052565b7f4e487b7100000000000000000000000000000000000000000000000000000000600052604160045260246000fd5b90601f7fffffffffffffffffffffffffffffffffffffffffffffffffffffffffffffffe0910116810190811067ffffffffffffffff82111761185357604052565b601f82602094937fffffffffffffffffffffffffffffffffffffffffffffffffffffffffffffffe0938186528686013760008582860101520116010190565b908160209103126115ff575180151581036115ff5790565b9082818152602080910193818360051b82010194846000925b858410611944575050505050505090565b909192939495967fffffffffffffffffffffffffffffffffffffffffffffffffffffffffffffffe082820301845287357fffffffffffffffffffffffffffffffffffffffffffffffffffffffffffffffe1843603018112156115ff57830186810191903567ffffffffffffffff81116115ff5780360383136115ff576119cf889283926001956118c3565b990194019401929594939190611933565b999897959391906119fc9195939560a08c5260a08c01916118c3565b906020828b829403828d01528281520194916000805b838210611a4b57505050505082611a469492611a38928a608098960360408c015261191a565b91878303606089015261191a565b930152565b9091929396873563ffffffff8116809103610259578152830196830193929160010190611a12565b90600182811c92168015611abc575b6020831014611a8d57565b7f4e487b7100000000000000000000000000000000000000000000000000000000600052602260045260246000fd5b91607f1691611a82565b60409073ffffffffffffffffffffffffffffffffffffffff611af3959316815281602082015201916118c3565b90565b600260005414611b07576002600055565b60646040517f08c379a000000000000000000000000000000000000000000000000000000000815260206004820152601f60248201527f5265656e7472616e637947756172643a207265656e7472616e742063616c6c006044820152fd5b3d15611bbe573d9067ffffffffffffffff82116118535760405191611bb260207fffffffffffffffffffffffffffffffffffffffffffffffffffffffffffffffe0601f8401160184611882565b82523d6000602084013e565b606090565b602073ffffffffffffffffffffffffffffffffffffffff604481600254169360405194859384927f4d30b6be0000000000000000000000000000000000000000000000000000000084521660048301527faf369ce728c816785c72f1ff0222ca9553b2cb93729d6a803be6af0d2369239b60248301525afa8015611c8e57600090611c5c575b6001119050611c5757600190565b600090565b6020823d8211611c86575b81611c7460209383611882565b8101031261011e575060019051611c49565b3d9150611c67565b6040513d6000823e3d90fdfea2646970667358221220c69f6b0c19f723f6003ee7ae2a602d2d49f4e1ff6b2d7589538dc67bc132647164736f6c63430008110033",
    "linkReferences": {}
  },
  "methodIdentifiers": {
    "DEPOSIT_ADDRESS()": "ff0d2c26",
    "QUADRATA()": "e99f0c9b",
    "SSV_ADDRESS()": "80164859",
    "SSV_TOKEN()": "0df1ecfd",
    "depositIntoMultiSig()": "01e09fe2",
    "depositSSV(bytes,uint32[],bytes[],bytes[],uint256,bytes,bytes,bytes32)": "08d4fbd5",
    "depositTestSSV(bytes,uint32[],bytes[],bytes[],uint256)": "74deec34",
    "depositTestSSVMultiSig(bytes,uint32[],bytes[],bytes[],uint256)": "5c4acd2d",
    "getBalance()": "12065fe0",
    "getValidator(address)": "1904bb2e",
    "getValidatorSelf()": "946eadac",
    "is_BUSINESS()": "4d5a1c1f",
    "owner()": "8da5cb5b",
    "renounceOwnership()": "715018a6",
    "transferOwnership(address)": "f2fde38b",
    "verified(address)": "0db065f4"
  },
  "id": 16
}