{
  "abi": [
    {
      "inputs": [
        {
          "internalType": "address",
          "name": "_quadrataContract",
          "type": "address"
        },
        {
          "internalType": "address",
          "name": "_ssvToken",
          "type": "address"
        },
        {
          "internalType": "address",
          "name": "_ssvContract",
          "type": "address"
        }
      ],
      "stateMutability": "nonpayable",
      "type": "constructor"
    },
    {
      "anonymous": false,
      "inputs": [
        {
          "indexed": false,
          "internalType": "address",
          "name": "_sender",
          "type": "address"
        },
        {
          "indexed": false,
          "internalType": "bytes",
          "name": "_pubkey",
          "type": "bytes"
        }
      ],
      "name": "DepositReceivedStaked",
      "type": "event"
    },
    {
      "anonymous": false,
      "inputs": [
        {
          "indexed": true,
          "internalType": "address",
          "name": "previousOwner",
          "type": "address"
        },
        {
          "indexed": true,
          "internalType": "address",
          "name": "newOwner",
          "type": "address"
        }
      ],
      "name": "OwnershipTransferred",
      "type": "event"
    },
    {
      "anonymous": false,
      "inputs": [
        {
          "indexed": false,
          "internalType": "bool",
          "name": "_value",
          "type": "bool"
        }
      ],
      "name": "PoolClosed",
      "type": "event"
    },
    {
      "anonymous": false,
      "inputs": [
        {
          "indexed": false,
          "internalType": "bool",
          "name": "_value",
          "type": "bool"
        }
      ],
      "name": "PoolOpend",
      "type": "event"
    },
    {
      "anonymous": false,
      "inputs": [
        {
          "indexed": false,
          "internalType": "uint256",
          "name": "_tokenID",
          "type": "uint256"
        },
        {
          "indexed": false,
          "internalType": "address",
          "name": "_user",
          "type": "address"
        },
        {
          "indexed": false,
          "internalType": "uint256",
          "name": "_fee",
          "type": "uint256"
        },
        {
          "indexed": false,
          "internalType": "uint256",
          "name": "_stakedETH",
          "type": "uint256"
        }
      ],
      "name": "UserRequestedWithdrawal",
      "type": "event"
    },
    {
      "inputs": [],
      "name": "QUADRATA",
      "outputs": [
        {
          "internalType": "address",
          "name": "",
          "type": "address"
        }
      ],
      "stateMutability": "view",
      "type": "function"
    },
    {
      "inputs": [],
      "name": "SSV_ADDRESS",
      "outputs": [
        {
          "internalType": "address",
          "name": "",
          "type": "address"
        }
      ],
      "stateMutability": "view",
      "type": "function"
    },
    {
      "inputs": [],
      "name": "SSV_TOKEN",
      "outputs": [
        {
          "internalType": "address",
          "name": "",
          "type": "address"
        }
      ],
      "stateMutability": "view",
      "type": "function"
    },
    {
      "inputs": [],
      "name": "allowPubDeposit",
      "outputs": [
        {
          "internalType": "bool",
          "name": "",
          "type": "bool"
        }
      ],
      "stateMutability": "view",
      "type": "function"
    },
    {
      "inputs": [],
      "name": "closePool",
      "outputs": [],
      "stateMutability": "nonpayable",
      "type": "function"
    },
    {
      "inputs": [
        {
          "internalType": "bytes",
          "name": "pubkey",
          "type": "bytes"
        },
        {
          "internalType": "uint32[]",
          "name": "operatorIds",
          "type": "uint32[]"
        },
        {
          "internalType": "bytes[]",
          "name": "sharesPublicKeys",
          "type": "bytes[]"
        },
        {
          "internalType": "bytes[]",
          "name": "sharesEncrypted",
          "type": "bytes[]"
        },
        {
          "internalType": "uint256",
          "name": "amount",
          "type": "uint256"
        }
      ],
      "name": "depositSSV",
      "outputs": [],
      "stateMutability": "payable",
      "type": "function"
    },
    {
      "inputs": [],
      "name": "getBalance",
      "outputs": [
        {
          "internalType": "uint256",
          "name": "",
          "type": "uint256"
        }
      ],
      "stateMutability": "view",
      "type": "function"
    },
    {
      "inputs": [
        {
          "internalType": "address",
          "name": "_addr",
          "type": "address"
        }
      ],
      "name": "getValidator",
      "outputs": [
        {
          "internalType": "bytes",
          "name": "",
          "type": "bytes"
        }
      ],
      "stateMutability": "view",
      "type": "function"
    },
    {
      "inputs": [],
      "name": "getValidatorSelf",
      "outputs": [
        {
          "internalType": "bytes",
          "name": "",
          "type": "bytes"
        }
      ],
      "stateMutability": "view",
      "type": "function"
    },
    {
      "inputs": [],
      "name": "is_BUSINESS",
      "outputs": [
        {
          "internalType": "bytes32",
          "name": "",
          "type": "bytes32"
        }
      ],
      "stateMutability": "view",
      "type": "function"
    },
    {
      "inputs": [],
      "name": "openPool",
      "outputs": [],
      "stateMutability": "nonpayable",
      "type": "function"
    },
    {
      "inputs": [],
      "name": "owner",
      "outputs": [
        {
          "internalType": "address",
          "name": "",
          "type": "address"
        }
      ],
      "stateMutability": "view",
      "type": "function"
    },
    {
      "inputs": [],
      "name": "renounceOwnership",
      "outputs": [],
      "stateMutability": "nonpayable",
      "type": "function"
    },
    {
      "inputs": [
        {
          "internalType": "address",
          "name": "newOwner",
          "type": "address"
        }
      ],
      "name": "transferOwnership",
      "outputs": [],
      "stateMutability": "nonpayable",
      "type": "function"
    },
    {
      "inputs": [
        {
          "internalType": "address",
          "name": "_sender",
          "type": "address"
        }
      ],
      "name": "verified",
      "outputs": [
        {
          "internalType": "bool",
          "name": "",
          "type": "bool"
        }
      ],
      "stateMutability": "view",
      "type": "function"
    },
    {
      "inputs": [
        {
          "internalType": "uint256",
          "name": "_amount",
          "type": "uint256"
        }
      ],
      "name": "withdrawAny",
      "outputs": [],
      "stateMutability": "nonpayable",
      "type": "function"
    },
    {
      "inputs": [],
      "name": "withdrawBatch",
      "outputs": [],
      "stateMutability": "nonpayable",
      "type": "function"
    }
  ],
  "bytecode": {
    "object": "0x6080604052600280546001600160a01b031990811690915560038054821690556004805490911690553480156200003557600080fd5b506040516200165e3803806200165e83398101604081905262000058916200011a565b60016000556200006833620000ab565b600280546001600160a01b039485166001600160a01b03199182161790915560038054938516938216939093179092556004805491909316911617905562000164565b600180546001600160a01b038381166001600160a01b0319831681179093556040519116919082907f8be0079c531659141344cd1fd0a4f28419497f9722a3daafe3b4186f6b6457e090600090a35050565b80516001600160a01b03811681146200011557600080fd5b919050565b6000806000606084860312156200013057600080fd5b6200013b84620000fd565b92506200014b60208501620000fd565b91506200015b60408501620000fd565b90509250925092565b6114ea80620001746000396000f3fe60806040526004361061010e5760003560e01c806380164859116100a5578063e99f0c9b11610074578063f2fde38b11610059578063f2fde38b14610345578063f6449afc14610365578063f6b21af21461037857600080fd5b8063e99f0c9b14610303578063eb5797a41461033057600080fd5b806380164859146102645780638da5cb5b14610291578063946eadac146102bc578063a4e0db7e146102d157600080fd5b80634d5a1c1f116100e15780634d5a1c1f146101e457806366805de514610218578063715018a61461022f57806377ad99f01461024457600080fd5b80630db065f4146101135780630df1ecfd1461014857806312065fe01461019a5780631904bb2e146101b7575b600080fd5b34801561011f57600080fd5b5061013361012e366004610ebf565b61038d565b60405190151581526020015b60405180910390f35b34801561015457600080fd5b506003546101759073ffffffffffffffffffffffffffffffffffffffff1681565b60405173ffffffffffffffffffffffffffffffffffffffff909116815260200161013f565b3480156101a657600080fd5b50475b60405190815260200161013f565b3480156101c357600080fd5b506101d76101d2366004610ebf565b61046d565b60405161013f9190610efc565b3480156101f057600080fd5b506101a97faf369ce728c816785c72f1ff0222ca9553b2cb93729d6a803be6af0d2369239b81565b34801561022457600080fd5b5061022d610526565b005b34801561023b57600080fd5b5061022d6105b1565b34801561025057600080fd5b5061022d61025f366004610f68565b6105c5565b34801561027057600080fd5b506004546101759073ffffffffffffffffffffffffffffffffffffffff1681565b34801561029d57600080fd5b5060015473ffffffffffffffffffffffffffffffffffffffff16610175565b3480156102c857600080fd5b506101d7610625565b3480156102dd57600080fd5b506004546101339074010000000000000000000000000000000000000000900460ff1681565b34801561030f57600080fd5b506002546101759073ffffffffffffffffffffffffffffffffffffffff1681565b34801561033c57600080fd5b5061022d6106c6565b34801561035157600080fd5b5061022d610360366004610ebf565b6107d3565b61022d610373366004610fcd565b61088a565b34801561038457600080fd5b5061022d610c57565b6002546040517f4d30b6be00000000000000000000000000000000000000000000000000000000815273ffffffffffffffffffffffffffffffffffffffff83811660048301527faf369ce728c816785c72f1ff0222ca9553b2cb93729d6a803be6af0d2369239b60248301526000928392911690634d30b6be90604401602060405180830381865afa158015610427573d6000803e3d6000fd5b505050506040513d601f19601f8201168201806040525081019061044b91906110c4565b90506001811061045e5750600192915050565b50600092915050565b50919050565b73ffffffffffffffffffffffffffffffffffffffff811660009081526005602052604090208054606091906104a1906110dd565b80601f01602080910402602001604051908101604052809291908181526020018280546104cd906110dd565b801561051a5780601f106104ef5761010080835404028352916020019161051a565b820191906000526020600020905b8154815290600101906020018083116104fd57829003601f168201915b50505050509050919050565b61052e610dc7565b600480547fffffffffffffffffffffff00ffffffffffffffffffffffffffffffffffffffff16908190556040517f155ddcf62f2b7c3654d3d8c9db7f9b4822b2c08f465143604d08e054d479853a916105a7917401000000000000000000000000000000000000000090910460ff161515815260200190565b60405180910390a1565b6105b9610dc7565b6105c36000610e48565b565b6105cd610dc7565b478111156105da57600080fd5b60015460405173ffffffffffffffffffffffffffffffffffffffff9091169082156108fc029083906000818181858888f19350505050158015610621573d6000803e3d6000fd5b5050565b336000908152600560205260409020805460609190610643906110dd565b80601f016020809104026020016040519081016040528092919081815260200182805461066f906110dd565b80156106bc5780601f10610691576101008083540402835291602001916106bc565b820191906000526020600020905b81548152906001019060200180831161069f57829003601f168201915b5050505050905090565b6106ce610dc7565b60045474010000000000000000000000000000000000000000900460ff1615610758576040517f08c379a000000000000000000000000000000000000000000000000000000000815260206004820152601860248201527f5075626c696320706f6f6c20616c7265616479206f70656e000000000000000060448201526064015b60405180910390fd5b600480547fffffffffffffffffffffff00ffffffffffffffffffffffffffffffffffffffff1674010000000000000000000000000000000000000000908117918290556040517f2eb5f0495a26c3f543fb1fd1381d903e41753384a79f51ca162b138311efd562926105a792900460ff161515815260200190565b6107db610dc7565b73ffffffffffffffffffffffffffffffffffffffff811661087e576040517f08c379a000000000000000000000000000000000000000000000000000000000815260206004820152602660248201527f4f776e61626c653a206e6577206f776e657220697320746865207a65726f206160448201527f6464726573730000000000000000000000000000000000000000000000000000606482015260840161074f565b61088781610e48565b50565b6108933361038d565b61091e576040517f08c379a0000000000000000000000000000000000000000000000000000000008152602060048201526024808201527f596f7520617265206e6f74206120766572696669656420627573696e6573732060448201527f7965742e00000000000000000000000000000000000000000000000000000000606482015260840161074f565b60045474010000000000000000000000000000000000000000900460ff1615156001146109cd576040517f08c379a000000000000000000000000000000000000000000000000000000000815260206004820152603e60248201527f5075626c696320706f6f6c2069732063757272656e746c7920636c6f7365642e60448201527f20506c65617365207761697420666f7220746865206e657874206f6e652e0000606482015260840161074f565b346801bc16d674ec80000014610ab1576040517f08c379a000000000000000000000000000000000000000000000000000000000815260206004820152606c60248201527f596f752061726520747279696e6720746f206465706f736974206d6f7265207460448201527f68616e207468652063757272656e7420706f6f6c2063616e20686f6c642e205060648201527f6c65617365207761697420666f7220746865206e657874206f6e65206f72206460848201527f65706f736974206c6573732e000000000000000000000000000000000000000060a482015260c40161074f565b600354600480546040517f095ea7b300000000000000000000000000000000000000000000000000000000815273ffffffffffffffffffffffffffffffffffffffff91821692810192909252602482018490529091169063095ea7b3906044016020604051808303816000875af1158015610b30573d6000803e3d6000fd5b505050506040513d601f19601f82011682018060405250810190610b54919061112a565b50600480546040517fe40cb19d00000000000000000000000000000000000000000000000000000000815273ffffffffffffffffffffffffffffffffffffffff9091169163e40cb19d91610bba918d918d918d918d918d918d918d918d918d9101611245565b600060405180830381600087803b158015610bd457600080fd5b505af1158015610be8573d6000803e3d6000fd5b50503360009081526005602052604090209150610c089050898b83611360565b50610c1161052e565b7f1d9f9a9e3282b963f061280cbb7f497e41f15f7e7aa8940b589b36847e9c6036338a8a604051610c449392919061147b565b60405180910390a1505050505050505050565b610c5f610dc7565b60045474010000000000000000000000000000000000000000900460ff1615610d0a576040517f08c379a000000000000000000000000000000000000000000000000000000000815260206004820152603160248201527f5075626c696320706f6f6c206973207374696c6c206f70656e2e20506c65617360448201527f6520636c6f73652069742066697273742e000000000000000000000000000000606482015260840161074f565b476801bc16d674ec80000014610d7c576040517f08c379a000000000000000000000000000000000000000000000000000000000815260206004820152600d60248201527f506f6f6c206e6f742066756c6c00000000000000000000000000000000000000604482015260640161074f565b60015460405173ffffffffffffffffffffffffffffffffffffffff909116906000906801bc16d674ec8000009082818181858883f19350505050158015610887573d6000803e3d6000fd5b60015473ffffffffffffffffffffffffffffffffffffffff1633146105c3576040517f08c379a000000000000000000000000000000000000000000000000000000000815260206004820181905260248201527f4f776e61626c653a2063616c6c6572206973206e6f7420746865206f776e6572604482015260640161074f565b6001805473ffffffffffffffffffffffffffffffffffffffff8381167fffffffffffffffffffffffff0000000000000000000000000000000000000000831681179093556040519116919082907f8be0079c531659141344cd1fd0a4f28419497f9722a3daafe3b4186f6b6457e090600090a35050565b600060208284031215610ed157600080fd5b813573ffffffffffffffffffffffffffffffffffffffff81168114610ef557600080fd5b9392505050565b600060208083528351808285015260005b81811015610f2957858101830151858201604001528201610f0d565b5060006040828601015260407fffffffffffffffffffffffffffffffffffffffffffffffffffffffffffffffe0601f8301168501019250505092915050565b600060208284031215610f7a57600080fd5b5035919050565b60008083601f840112610f9357600080fd5b50813567ffffffffffffffff811115610fab57600080fd5b6020830191508360208260051b8501011115610fc657600080fd5b9250929050565b600080600080600080600080600060a08a8c031215610feb57600080fd5b893567ffffffffffffffff8082111561100357600080fd5b818c0191508c601f83011261101757600080fd5b81358181111561102657600080fd5b8d602082850101111561103857600080fd5b60209283019b509950908b0135908082111561105357600080fd5b61105f8d838e01610f81565b909950975060408c013591508082111561107857600080fd5b6110848d838e01610f81565b909750955060608c013591508082111561109d57600080fd5b506110aa8c828d01610f81565b9a9d999c50979a9699959894979660800135949350505050565b6000602082840312156110d657600080fd5b5051919050565b600181811c908216806110f157607f821691505b602082108103610467577f4e487b7100000000000000000000000000000000000000000000000000000000600052602260045260246000fd5b60006020828403121561113c57600080fd5b81518015158114610ef557600080fd5b8183528181602085013750600060208284010152600060207fffffffffffffffffffffffffffffffffffffffffffffffffffffffffffffffe0601f840116840101905092915050565b81835260006020808501808196508560051b810191508460005b8781101561123857828403895281357fffffffffffffffffffffffffffffffffffffffffffffffffffffffffffffffe18836030181126111ee57600080fd5b8701858101903567ffffffffffffffff81111561120a57600080fd5b80360382131561121957600080fd5b61122486828461114c565b9a87019a95505050908401906001016111af565b5091979650505050505050565b60a08152600061125960a083018b8d61114c565b8281036020848101919091528982528a9181016000805b8c81101561129f57843563ffffffff811680821461128c578384fd5b8452509383019391830191600101611270565b505084810360408601526112b4818a8c611195565b9250505082810360608401526112cb818688611195565b9150508260808301529a9950505050505050505050565b7f4e487b7100000000000000000000000000000000000000000000000000000000600052604160045260246000fd5b601f82111561135b57600081815260208120601f850160051c810160208610156113385750805b601f850160051c820191505b8181101561135757828155600101611344565b5050505b505050565b67ffffffffffffffff831115611378576113786112e2565b61138c8361138683546110dd565b83611311565b6000601f8411600181146113de57600085156113a85750838201355b7fffffffffffffffffffffffffffffffffffffffffffffffffffffffffffffffff600387901b1c1916600186901b178355611474565b6000838152602090207fffffffffffffffffffffffffffffffffffffffffffffffffffffffffffffffe0861690835b8281101561142d578685013582556020948501946001909201910161140d565b5086821015611468577fffffffffffffffffffffffffffffffffffffffffffffffffffffffffffffffff60f88860031b161c19848701351681555b505060018560011b0183555b5050505050565b73ffffffffffffffffffffffffffffffffffffffff841681526040602082015260006114ab60408301848661114c565b9594505050505056fea264697066735822122022b36a9cbb281c699b789139da560f90aa48a8bf7ed772fe3da38b4580d8598e64736f6c63430008110033",
    "linkReferences": {}
  },
  "methodIdentifiers": {
    "QUADRATA()": "e99f0c9b",
    "SSV_ADDRESS()": "80164859",
    "SSV_TOKEN()": "0df1ecfd",
    "allowPubDeposit()": "a4e0db7e",
    "closePool()": "66805de5",
    "depositSSV(bytes,uint32[],bytes[],bytes[],uint256)": "f6449afc",
    "getBalance()": "12065fe0",
    "getValidator(address)": "1904bb2e",
    "getValidatorSelf()": "946eadac",
    "is_BUSINESS()": "4d5a1c1f",
    "openPool()": "eb5797a4",
    "owner()": "8da5cb5b",
    "renounceOwnership()": "715018a6",
    "transferOwnership(address)": "f2fde38b",
    "verified(address)": "0db065f4",
    "withdrawAny(uint256)": "77ad99f0",
    "withdrawBatch()": "f6b21af2"
  },
  "id": 16
}