{
  "abi": [
    {
      "inputs": [
        {
          "internalType": "address",
          "name": "_quadrataContract",
          "type": "address"
        },
        {
          "internalType": "address",
          "name": "_ssvToken",
          "type": "address"
        },
        {
          "internalType": "address",
          "name": "_ssvContract",
          "type": "address"
        },
        {
          "internalType": "address",
          "name": "_depositAddress",
          "type": "address"
        }
      ],
      "stateMutability": "nonpayable",
      "type": "constructor"
    },
    {
      "anonymous": false,
      "inputs": [
        {
          "indexed": true,
          "internalType": "address",
          "name": "_sender",
          "type": "address"
        }
      ],
      "name": "DepositReceived",
      "type": "event"
    },
    {
      "anonymous": false,
      "inputs": [
        {
          "indexed": false,
          "internalType": "address",
          "name": "_sender",
          "type": "address"
        },
        {
          "indexed": false,
          "internalType": "bytes",
          "name": "_pubkey",
          "type": "bytes"
        }
      ],
      "name": "DepositReceivedStaked",
      "type": "event"
    },
    {
      "anonymous": false,
      "inputs": [
        {
          "indexed": true,
          "internalType": "address",
          "name": "_sender",
          "type": "address"
        }
      ],
      "name": "DepositReceivedTest",
      "type": "event"
    },
    {
      "anonymous": false,
      "inputs": [
        {
          "indexed": false,
          "internalType": "address",
          "name": "_sender",
          "type": "address"
        }
      ],
      "name": "DepositStaked",
      "type": "event"
    },
    {
      "anonymous": false,
      "inputs": [
        {
          "indexed": true,
          "internalType": "address",
          "name": "previousOwner",
          "type": "address"
        },
        {
          "indexed": true,
          "internalType": "address",
          "name": "newOwner",
          "type": "address"
        }
      ],
      "name": "OwnershipTransferred",
      "type": "event"
    },
    {
      "inputs": [],
      "name": "DEPOSIT_ADDRESS",
      "outputs": [
        {
          "internalType": "address",
          "name": "",
          "type": "address"
        }
      ],
      "stateMutability": "view",
      "type": "function"
    },
    {
      "inputs": [],
      "name": "QUADRATA",
      "outputs": [
        {
          "internalType": "address",
          "name": "",
          "type": "address"
        }
      ],
      "stateMutability": "view",
      "type": "function"
    },
    {
      "inputs": [],
      "name": "SSV_ADDRESS",
      "outputs": [
        {
          "internalType": "address",
          "name": "",
          "type": "address"
        }
      ],
      "stateMutability": "view",
      "type": "function"
    },
    {
      "inputs": [],
      "name": "SSV_TOKEN",
      "outputs": [
        {
          "internalType": "address",
          "name": "",
          "type": "address"
        }
      ],
      "stateMutability": "view",
      "type": "function"
    },
    {
      "inputs": [
        {
          "internalType": "uint256",
          "name": "ssvAmount",
          "type": "uint256"
        }
      ],
      "name": "SSVapprove",
      "outputs": [],
      "stateMutability": "nonpayable",
      "type": "function"
    },
    {
      "inputs": [
        {
          "internalType": "uint256",
          "name": "ssvAmount",
          "type": "uint256"
        }
      ],
      "name": "SSVdeposit",
      "outputs": [],
      "stateMutability": "nonpayable",
      "type": "function"
    },
    {
      "inputs": [],
      "name": "SSVgetAddressBalance",
      "outputs": [
        {
          "internalType": "uint256",
          "name": "",
          "type": "uint256"
        }
      ],
      "stateMutability": "view",
      "type": "function"
    },
    {
      "inputs": [
        {
          "internalType": "bytes",
          "name": "pubkey",
          "type": "bytes"
        }
      ],
      "name": "SSVremoveValidator",
      "outputs": [],
      "stateMutability": "nonpayable",
      "type": "function"
    },
    {
      "inputs": [],
      "name": "SSVunlimitedApprove",
      "outputs": [],
      "stateMutability": "nonpayable",
      "type": "function"
    },
    {
      "inputs": [],
      "name": "SSVwithdrawAll",
      "outputs": [],
      "stateMutability": "nonpayable",
      "type": "function"
    },
    {
      "inputs": [
        {
          "internalType": "address",
          "name": "_staker",
          "type": "address"
        },
        {
          "internalType": "bytes",
          "name": "pubkey",
          "type": "bytes"
        },
        {
          "internalType": "uint32[]",
          "name": "operatorIds",
          "type": "uint32[]"
        },
        {
          "internalType": "bytes[]",
          "name": "sharesPublicKeys",
          "type": "bytes[]"
        },
        {
          "internalType": "bytes[]",
          "name": "sharesEncrypted",
          "type": "bytes[]"
        },
        {
          "internalType": "uint256",
          "name": "ssvAmount",
          "type": "uint256"
        },
        {
          "internalType": "bytes",
          "name": "withdrawal_credentials",
          "type": "bytes"
        },
        {
          "internalType": "bytes",
          "name": "signature",
          "type": "bytes"
        },
        {
          "internalType": "bytes32",
          "name": "deposit_data_root",
          "type": "bytes32"
        }
      ],
      "name": "createSSV",
      "outputs": [],
      "stateMutability": "payable",
      "type": "function"
    },
    {
      "inputs": [
        {
          "internalType": "address",
          "name": "_staker",
          "type": "address"
        },
        {
          "internalType": "bytes",
          "name": "pubkey",
          "type": "bytes"
        },
        {
          "internalType": "uint32[]",
          "name": "operatorIds",
          "type": "uint32[]"
        },
        {
          "internalType": "bytes[]",
          "name": "sharesPublicKeys",
          "type": "bytes[]"
        },
        {
          "internalType": "bytes[]",
          "name": "sharesEncrypted",
          "type": "bytes[]"
        },
        {
          "internalType": "uint256",
          "name": "ssvAmount",
          "type": "uint256"
        }
      ],
      "name": "createSSVTest",
      "outputs": [],
      "stateMutability": "payable",
      "type": "function"
    },
    {
      "inputs": [],
      "name": "depositIntoContract",
      "outputs": [],
      "stateMutability": "payable",
      "type": "function"
    },
    {
      "inputs": [],
      "name": "depositIntoContractTest",
      "outputs": [],
      "stateMutability": "payable",
      "type": "function"
    },
    {
      "inputs": [],
      "name": "getBalance",
      "outputs": [
        {
          "internalType": "uint256",
          "name": "",
          "type": "uint256"
        }
      ],
      "stateMutability": "view",
      "type": "function"
    },
    {
      "inputs": [
        {
          "internalType": "address",
          "name": "_addr",
          "type": "address"
        }
      ],
      "name": "getValidator",
      "outputs": [
        {
          "internalType": "bytes[]",
          "name": "",
          "type": "bytes[]"
        }
      ],
      "stateMutability": "view",
      "type": "function"
    },
    {
      "inputs": [],
      "name": "getValidatorSelf",
      "outputs": [
        {
          "internalType": "bytes[]",
          "name": "",
          "type": "bytes[]"
        }
      ],
      "stateMutability": "view",
      "type": "function"
    },
    {
      "inputs": [],
      "name": "is_BUSINESS",
      "outputs": [
        {
          "internalType": "bytes32",
          "name": "",
          "type": "bytes32"
        }
      ],
      "stateMutability": "view",
      "type": "function"
    },
    {
      "inputs": [],
      "name": "owner",
      "outputs": [
        {
          "internalType": "address",
          "name": "",
          "type": "address"
        }
      ],
      "stateMutability": "view",
      "type": "function"
    },
    {
      "inputs": [],
      "name": "renounceOwnership",
      "outputs": [],
      "stateMutability": "nonpayable",
      "type": "function"
    },
    {
      "inputs": [
        {
          "internalType": "address",
          "name": "newOwner",
          "type": "address"
        }
      ],
      "name": "transferOwnership",
      "outputs": [],
      "stateMutability": "nonpayable",
      "type": "function"
    },
    {
      "inputs": [
        {
          "internalType": "address",
          "name": "_sender",
          "type": "address"
        }
      ],
      "name": "verified",
      "outputs": [
        {
          "internalType": "bool",
          "name": "",
          "type": "bool"
        }
      ],
      "stateMutability": "view",
      "type": "function"
    }
  ],
  "bytecode": {
    "object": "0x6080346200010157601f62001f9738819003918201601f19168301916001600160401b03831184841017620001065780849260809460405283398101031262000101576200004d816200011c565b6200005b602083016200011c565b6200007760606200006f604086016200011c565b94016200011c565b600160005560015460018060a01b03199033828216176001556040519560018060a01b03948592833391167f8be0079c531659141344cd1fd0a4f28419497f9722a3daafe3b4186f6b6457e0600080a38284600254169185600354169282876004541697600554169a1617600255161760035516176004551617600555611e659081620001328239f35b600080fd5b634e487b7160e01b600052604160045260246000fd5b51906001600160a01b0382168203620001015756fe6080604052600436101561001257600080fd5b6000803560e01c80630db065f4146115275780630df1ecfd146114d557806312065fe01461149b5780631904bb2e1461133d5780631c9f3e1d146112625780633753836614610fdc5780634898858a14610e5d5780634d5a1c1f14610e04578063715018a614610d655780638016485914610d135780638315ab2514610c395780638da5cb5b14610be7578063946eadac14610a7557806399aec54c146109b4578063cee8ce84146105c0578063e054342e1461052a578063e0f3f8e014610486578063e99f0c9b14610434578063f2fde38b146102fd578063f33c93a61461022b578063f42e5b28146101635763ff0d2c261461010f57600080fd5b3461016057807ffffffffffffffffffffffffffffffffffffffffffffffffffffffffffffffffc36011261016057602073ffffffffffffffffffffffffffffffffffffffff60055416604051908152f35b80fd5b50346101605760207ffffffffffffffffffffffffffffffffffffffffffffffffffffffffffffffffc3601126101605761019b6116c4565b8073ffffffffffffffffffffffffffffffffffffffff60045416803b15610228576040517f47e7ef24000000000000000000000000000000000000000000000000000000008152306004808301919091523560248201529082908290604490829084905af1801561021d5761020d5750f35b610216906118a1565b6101605780f35b6040513d84823e3d90fd5b50fd5b50346101605760207ffffffffffffffffffffffffffffffffffffffffffffffffffffffffffffffffc360112610160576102636116c4565b600354600480546040517f095ea7b300000000000000000000000000000000000000000000000000000000815273ffffffffffffffffffffffffffffffffffffffff91821681840152913560248301529091602091839160449183918791165af1801561021d576102d2575080f35b6102f29060203d81116102f6575b6102ea81836118e4565b810190611d4a565b5080f35b503d6102e0565b50346101605760207ffffffffffffffffffffffffffffffffffffffffffffffffffffffffffffffffc36011261016057610335611573565b61033d6116c4565b73ffffffffffffffffffffffffffffffffffffffff8091169081156103b057600154827fffffffffffffffffffffffff0000000000000000000000000000000000000000821617600155167f8be0079c531659141344cd1fd0a4f28419497f9722a3daafe3b4186f6b6457e0600080a380f35b60846040517f08c379a000000000000000000000000000000000000000000000000000000000815260206004820152602660248201527f4f776e61626c653a206e6577206f776e657220697320746865207a65726f206160448201527f64647265737300000000000000000000000000000000000000000000000000006064820152fd5b503461016057807ffffffffffffffffffffffffffffffffffffffffffffffffffffffffffffffffc36011261016057602073ffffffffffffffffffffffffffffffffffffffff60025416604051908152f35b50807ffffffffffffffffffffffffffffffffffffffffffffffffffffffffffffffffc360112610160576104b86117cd565b6104c96104c433611d62565b611743565b33815260076020526040812060017fffffffffffffffffffffffffffffffffffffffffffffffffffffffffffffff00825416179055337f3208b26f3b196315309b41d11d34544ee609dcc4ecbd0dfb2e82b8a6539e19718280a26001815580f35b503461016057807ffffffffffffffffffffffffffffffffffffffffffffffffffffffffffffffffc360112610160576105616116c4565b8073ffffffffffffffffffffffffffffffffffffffff60045416803b15610228578180916004604051809481937f853828b60000000000000000000000000000000000000000000000000000000083525af1801561021d5761020d5750f35b506101207ffffffffffffffffffffffffffffffffffffffffffffffffffffffffffffffffc360112610160576105f4611573565b67ffffffffffffffff60243581811161091b57610615903690600401611665565b9290916044358181116109b057610630903690600401611693565b60643583811161091f57610648903690600401611693565b9190926084358581116109ac57610663903690600401611693565b9190938a60c4358881116109a85761067f903690600401611665565b919060e435998a116109a8576106da60ff604073ffffffffffffffffffffffffffffffffffffffff946106b78f9e3690600401611665565b96909e6106c26117cd565b6106ca6116c4565b168152600760205220541661183c565b6801bc16d674ec800000471061094a578d9973ffffffffffffffffffffffffffffffffffffffff6005541690813b15610946576801bc16d674ec8000008f8f926107c5908f97610795610765986040519b8c9a8b998a987f22895118000000000000000000000000000000000000000000000000000000008a52608060048b015260848a0191611925565b917ffffffffffffffffffffffffffffffffffffffffffffffffffffffffffffffffc888403016024890152611925565b917ffffffffffffffffffffffffffffffffffffffffffffffffffffffffffffffffc858403016044860152611925565b61010435606483015203925af190811561093b578891610923575b505073ffffffffffffffffffffffffffffffffffffffff6004541692833b1561091f576108478a8c928a9889956040519b8c9a8b998a987fe40cb19d000000000000000000000000000000000000000000000000000000008a5260a4359760048b01611a2a565b03925af1801561021d57610907575b50506108fd7f1d9f9a9e3282b963f061280cbb7f497e41f15f7e7aa8940b589b36847e9c60369373ffffffffffffffffffffffffffffffffffffffff8316865260066020526108a9818560408920611b10565b73ffffffffffffffffffffffffffffffffffffffff831686526007602052604086207fffffffffffffffffffffffffffffffffffffffffffffffffffffffffffffff00815416905560405193849384611d1a565b0390a16001815580f35b610910906118a1565b61091b578338610856565b8380fd5b8780fd5b61092c906118a1565b6109375786386107e0565b8680fd5b6040513d8a823e3d90fd5b8b80fd5b60646040517f08c379a000000000000000000000000000000000000000000000000000000000815260206004820152601060248201527f4e6f7420656e6f75676874204554482e000000000000000000000000000000006044820152fd5b5080fd5b8980fd5b8580fd5b503461016057807ffffffffffffffffffffffffffffffffffffffffffffffffffffffffffffffffc360112610160576109eb6116c4565b80602073ffffffffffffffffffffffffffffffffffffffff60448160035416916004541660405194859384927f095ea7b300000000000000000000000000000000000000000000000000000000845260048401527fffffffffffffffffffffffffffffffffffffffffffffffffffffffffffffffff60248401525af1801561021d576102d2575080f35b503461016057807ffffffffffffffffffffffffffffffffffffffffffffffffffffffffffffffffc36011261016057338152602060068152604082209081549067ffffffffffffffff8211610bba5760405192600591610ad98185851b01866118e4565b83855280850191865280862086925b858410610b015760405180610afd8982611596565b0390f35b604051838992845492610b1384611abd565b808252600194808616908115610b815750600114610b49575b50610b3b8160019603826118e4565b815201920193019290610ae8565b868d52838d2095508c905b808210610b6a5750810183019450610b3b610b2c565b865483830186015295850195889490910190610b54565b7fffffffffffffffffffffffffffffffffffffffffffffffffffffffffffffff001685840152501515891b810183019450610b3b610b2c565b6024847f4e487b710000000000000000000000000000000000000000000000000000000081526041600452fd5b503461016057807ffffffffffffffffffffffffffffffffffffffffffffffffffffffffffffffffc36011261016057602073ffffffffffffffffffffffffffffffffffffffff60015416604051908152f35b503461016057807ffffffffffffffffffffffffffffffffffffffffffffffffffffffffffffffffc36011261016057602490602073ffffffffffffffffffffffffffffffffffffffff60045416604051938480927f350467220000000000000000000000000000000000000000000000000000000082523060048301525afa908115610d075790610cd0575b602090604051908152f35b506020813d8211610cff575b81610ce9602093836118e4565b81010312610cfa5760209051610cc5565b600080fd5b3d9150610cdc565b604051903d90823e3d90fd5b503461016057807ffffffffffffffffffffffffffffffffffffffffffffffffffffffffffffffffc36011261016057602073ffffffffffffffffffffffffffffffffffffffff60045416604051908152f35b503461016057807ffffffffffffffffffffffffffffffffffffffffffffffffffffffffffffffffc36011261016057610d9c6116c4565b600073ffffffffffffffffffffffffffffffffffffffff6001547fffffffffffffffffffffffff00000000000000000000000000000000000000008116600155167f8be0079c531659141344cd1fd0a4f28419497f9722a3daafe3b4186f6b6457e08280a380f35b503461016057807ffffffffffffffffffffffffffffffffffffffffffffffffffffffffffffffffc3601126101605760206040517faf369ce728c816785c72f1ff0222ca9553b2cb93729d6a803be6af0d2369239b8152f35b50807ffffffffffffffffffffffffffffffffffffffffffffffffffffffffffffffffc36011261016057610e8f6117cd565b610e9b6104c433611d62565b6801bc16d674ec8000003403610f0c5733815260076020526040812060017fffffffffffffffffffffffffffffffffffffffffffffffffffffffffffffff00825416179055337ff1ba5e02dd9da55d69765f748d69bc46c6b056e18d3d4f619f1c372c5e568cb88280a26001815580f35b60c46040517f08c379a000000000000000000000000000000000000000000000000000000000815260206004820152606c60248201527f596f752061726520747279696e6720746f206465706f736974206d6f7265207460448201527f68616e207468652063757272656e7420706f6f6c2063616e20686f6c642e205060648201527f6c65617365207761697420666f7220746865206e657874206f6e65206f72206460848201527f65706f736974206c6573732e000000000000000000000000000000000000000060a4820152fd5b5060c07ffffffffffffffffffffffffffffffffffffffffffffffffffffffffffffffffc3601126101605761100f611573565b67ffffffffffffffff60243581811161091b57611030903690600401611665565b929091846044358281116109a85761104c903690600401611693565b60649291923584811161125e57611067903690600401611693565b93909460843590811161091b57611082903690600401611693565b91909560a435926110916117cd565b6110996116c4565b73ffffffffffffffffffffffffffffffffffffffff97888a169788885260209960078b526110cd60ff60408b20541661183c565b6111358b88836003541684600454168d6040518096819582947f095ea7b3000000000000000000000000000000000000000000000000000000008452600484016020909392919373ffffffffffffffffffffffffffffffffffffffff60408201951681520152565b03925af1801561125357611236575b506004541693843b156112325788968e9488948f94611193946040519c8d9b8c9a8b997fe40cb19d000000000000000000000000000000000000000000000000000000008b5260048b01611a2a565b03925af1801561021d5761121a575b506108fd92827f1d9f9a9e3282b963f061280cbb7f497e41f15f7e7aa8940b589b36847e9c6036979360079352600682526111e1848860408c20611b10565b885252604086207fffffffffffffffffffffffffffffffffffffffffffffffffffffffffffffff00815416905560405193849384611d1a565b611226909692966118a1565b6109b0579385386111a2565b8880fd5b61124c908c8d3d106102f6576102ea81836118e4565b5038611144565b6040513d8c823e3d90fd5b8280fd5b50346101605760207ffffffffffffffffffffffffffffffffffffffffffffffffffffffffffffffffc360112610160578060043567ffffffffffffffff8111610228576112b3903690600401611665565b91906112bd6116c4565b73ffffffffffffffffffffffffffffffffffffffff60045416803b1561125e5761131f93836040518096819582947fb2f569c5000000000000000000000000000000000000000000000000000000008452602060048501526024840191611925565b03925af1801561021d57611331575080f35b61133a906118a1565b80f35b5034610160576020807ffffffffffffffffffffffffffffffffffffffffffffffffffffffffffffffffc3601126109a85773ffffffffffffffffffffffffffffffffffffffff61138b611573565b16825260068152604082209081549067ffffffffffffffff8211610bba57604051926005916113be8185851b01866118e4565b83855280850191865280862086925b8584106113e25760405180610afd8982611596565b6040518389928454926113f484611abd565b808252600194808616908115611462575060011461142a575b5061141c8160019603826118e4565b8152019201930192906113cd565b868d52838d2095508c905b80821061144b575081018301945061141c61140d565b865483830186015295850195889490910190611435565b7fffffffffffffffffffffffffffffffffffffffffffffffffffffffffffffff001685840152501515891b81018301945061141c61140d565b503461016057807ffffffffffffffffffffffffffffffffffffffffffffffffffffffffffffffffc36011261016057602047604051908152f35b503461016057807ffffffffffffffffffffffffffffffffffffffffffffffffffffffffffffffffc36011261016057602073ffffffffffffffffffffffffffffffffffffffff60035416604051908152f35b50346101605760207ffffffffffffffffffffffffffffffffffffffffffffffffffffffffffffffffc360112610160576020611569611564611573565b611d62565b6040519015158152f35b6004359073ffffffffffffffffffffffffffffffffffffffff82168203610cfa57565b6020808201818352835180915260408301918060408360051b860101950193600080915b8483106115cb575050505050505090565b909192939495967fffffffffffffffffffffffffffffffffffffffffffffffffffffffffffffffc0828203018752848851805190818452855b8281106116515750508083018201859052601f017fffffffffffffffffffffffffffffffffffffffffffffffffffffffffffffffe0169091018101978101960194939260010191906115ba565b818101840151858201850152889301611604565b9181601f84011215610cfa5782359167ffffffffffffffff8311610cfa5760208381860195010111610cfa57565b9181601f84011215610cfa5782359167ffffffffffffffff8311610cfa576020808501948460051b010111610cfa57565b73ffffffffffffffffffffffffffffffffffffffff6001541633036116e557565b60646040517f08c379a000000000000000000000000000000000000000000000000000000000815260206004820152602060248201527f4f776e61626c653a2063616c6c6572206973206e6f7420746865206f776e65726044820152fd5b1561174a57565b60846040517f08c379a0000000000000000000000000000000000000000000000000000000008152602060048201526024808201527f596f7520617265206e6f74206120766572696669656420627573696e6573732060448201527f7965742e000000000000000000000000000000000000000000000000000000006064820152fd5b6002600054146117de576002600055565b60646040517f08c379a000000000000000000000000000000000000000000000000000000000815260206004820152601f60248201527f5265656e7472616e637947756172643a207265656e7472616e742063616c6c006044820152fd5b1561184357565b60646040517f08c379a000000000000000000000000000000000000000000000000000000000815260206004820152601f60248201527f5374616b657220646964206e6f74206465706f73697420455448207965742e006044820152fd5b67ffffffffffffffff81116118b557604052565b7f4e487b7100000000000000000000000000000000000000000000000000000000600052604160045260246000fd5b90601f7fffffffffffffffffffffffffffffffffffffffffffffffffffffffffffffffe0910116810190811067ffffffffffffffff8211176118b557604052565b601f82602094937fffffffffffffffffffffffffffffffffffffffffffffffffffffffffffffffe0938186528686013760008582860101520116010190565b9082818152602080910193818360051b82010194846000925b85841061198e575050505050505090565b909192939495967fffffffffffffffffffffffffffffffffffffffffffffffffffffffffffffffe082820301845287357fffffffffffffffffffffffffffffffffffffffffffffffffffffffffffffffe184360301811215610cfa57830186810191903567ffffffffffffffff8111610cfa578036038313610cfa57611a1988928392600195611925565b99019401940192959493919061197d565b99989795939190611a469195939560a08c5260a08c0191611925565b906020828b829403828d01528281520194916000805b838210611a9557505050505082611a909492611a82928a608098960360408c0152611964565b918783036060890152611964565b930152565b9091929396873563ffffffff811680910361125e578152830196830193929160010190611a5c565b90600182811c92168015611b06575b6020831014611ad757565b7f4e487b7100000000000000000000000000000000000000000000000000000000600052602260045260246000fd5b91607f1691611acc565b918254680100000000000000008110156118b557600192838201808655821015611ceb576000948552602091828620019467ffffffffffffffff8411611cbe57611b5a8654611abd565b601f8111611c78575b508092601f8511600114611bdb575092939291849182611bb0575b50507fffffffffffffffffffffffffffffffffffffffffffffffffffffffffffffffff91921b9260031b1c1916179055565b013591507fffffffffffffffffffffffffffffffffffffffffffffffffffffffffffffffff38611b7e565b868252808220939185917fffffffffffffffffffffffffffffffffffffffffffffffffffffffffffffffe0831691905b88838310611c5e5750505010611c26575b505050811b019055565b7fffffffffffffffffffffffffffffffffffffffffffffffffffffffffffffffff60f88560031b161c19910135169055388080611c1c565b868601358855909601959384019387935090810190611c0b565b868252838220601f860160051c810191858710611cb4575b601f0160051c019086905b828110611ca9575050611b63565b838155018690611c9b565b9091508190611c90565b807f4e487b7100000000000000000000000000000000000000000000000000000000602492526041600452fd5b7f4e487b7100000000000000000000000000000000000000000000000000000000600052603260045260246000fd5b60409073ffffffffffffffffffffffffffffffffffffffff611d4795931681528160208201520191611925565b90565b90816020910312610cfa57518015158103610cfa5790565b602073ffffffffffffffffffffffffffffffffffffffff604481600254169360405194859384927f4d30b6be0000000000000000000000000000000000000000000000000000000084521660048301527faf369ce728c816785c72f1ff0222ca9553b2cb93729d6a803be6af0d2369239b60248301525afa8015611e2357600090611df1575b60019150101590565b6020823d8211611e1b575b81611e09602093836118e4565b81010312610160575060019051611de8565b3d9150611dfc565b6040513d6000823e3d90fdfea264697066735822122011396645fafd15f02ebfbdec2749e4a692b67197e0d8e8395c44eb766cfba67564736f6c63430008110033",
    "linkReferences": {}
  },
  "methodIdentifiers": {
    "DEPOSIT_ADDRESS()": "ff0d2c26",
    "QUADRATA()": "e99f0c9b",
    "SSV_ADDRESS()": "80164859",
    "SSV_TOKEN()": "0df1ecfd",
    "SSVapprove(uint256)": "f33c93a6",
    "SSVdeposit(uint256)": "f42e5b28",
    "SSVgetAddressBalance()": "8315ab25",
    "SSVremoveValidator(bytes)": "1c9f3e1d",
    "SSVunlimitedApprove()": "99aec54c",
    "SSVwithdrawAll()": "e054342e",
    "createSSV(address,bytes,uint32[],bytes[],bytes[],uint256,bytes,bytes,bytes32)": "cee8ce84",
    "createSSVTest(address,bytes,uint32[],bytes[],bytes[],uint256)": "37538366",
    "depositIntoContract()": "4898858a",
    "depositIntoContractTest()": "e0f3f8e0",
    "getBalance()": "12065fe0",
    "getValidator(address)": "1904bb2e",
    "getValidatorSelf()": "946eadac",
    "is_BUSINESS()": "4d5a1c1f",
    "owner()": "8da5cb5b",
    "renounceOwnership()": "715018a6",
    "transferOwnership(address)": "f2fde38b",
    "verified(address)": "0db065f4"
  },
  "id": 17
}