{
  "abi": [
    {
      "inputs": [
        {
          "internalType": "address",
          "name": "_quadrataContract",
          "type": "address"
        },
        {
          "internalType": "address",
          "name": "_ssvToken",
          "type": "address"
        },
        {
          "internalType": "address",
          "name": "_ssvContract",
          "type": "address"
        },
        {
          "internalType": "address",
          "name": "_depositAddress",
          "type": "address"
        }
      ],
      "stateMutability": "nonpayable",
      "type": "constructor"
    },
    {
      "anonymous": false,
      "inputs": [
        {
          "indexed": false,
          "internalType": "address",
          "name": "_sender",
          "type": "address"
        }
      ],
      "name": "DepositReceived",
      "type": "event"
    },
    {
      "anonymous": false,
      "inputs": [
        {
          "indexed": false,
          "internalType": "address",
          "name": "_sender",
          "type": "address"
        },
        {
          "indexed": false,
          "internalType": "bytes",
          "name": "_pubkey",
          "type": "bytes"
        }
      ],
      "name": "DepositReceivedStaked",
      "type": "event"
    },
    {
      "anonymous": false,
      "inputs": [
        {
          "indexed": false,
          "internalType": "address",
          "name": "_sender",
          "type": "address"
        }
      ],
      "name": "DepositStaked",
      "type": "event"
    },
    {
      "anonymous": false,
      "inputs": [
        {
          "indexed": true,
          "internalType": "address",
          "name": "previousOwner",
          "type": "address"
        },
        {
          "indexed": true,
          "internalType": "address",
          "name": "newOwner",
          "type": "address"
        }
      ],
      "name": "OwnershipTransferred",
      "type": "event"
    },
    {
      "anonymous": false,
      "inputs": [
        {
          "indexed": false,
          "internalType": "uint256",
          "name": "_tokenID",
          "type": "uint256"
        },
        {
          "indexed": false,
          "internalType": "address",
          "name": "_user",
          "type": "address"
        },
        {
          "indexed": false,
          "internalType": "uint256",
          "name": "_fee",
          "type": "uint256"
        },
        {
          "indexed": false,
          "internalType": "uint256",
          "name": "_stakedETH",
          "type": "uint256"
        }
      ],
      "name": "UserRequestedWithdrawal",
      "type": "event"
    },
    {
      "inputs": [],
      "name": "DEPOSIT_ADDRESS",
      "outputs": [
        {
          "internalType": "address",
          "name": "",
          "type": "address"
        }
      ],
      "stateMutability": "view",
      "type": "function"
    },
    {
      "inputs": [],
      "name": "QUADRATA",
      "outputs": [
        {
          "internalType": "address",
          "name": "",
          "type": "address"
        }
      ],
      "stateMutability": "view",
      "type": "function"
    },
    {
      "inputs": [],
      "name": "SSV_ADDRESS",
      "outputs": [
        {
          "internalType": "address",
          "name": "",
          "type": "address"
        }
      ],
      "stateMutability": "view",
      "type": "function"
    },
    {
      "inputs": [],
      "name": "SSV_TOKEN",
      "outputs": [
        {
          "internalType": "address",
          "name": "",
          "type": "address"
        }
      ],
      "stateMutability": "view",
      "type": "function"
    },
    {
      "inputs": [],
      "name": "depositIntoMultiSig",
      "outputs": [],
      "stateMutability": "payable",
      "type": "function"
    },
    {
      "inputs": [
        {
          "internalType": "bytes",
          "name": "pubkey",
          "type": "bytes"
        },
        {
          "internalType": "uint32[]",
          "name": "operatorIds",
          "type": "uint32[]"
        },
        {
          "internalType": "bytes[]",
          "name": "sharesPublicKeys",
          "type": "bytes[]"
        },
        {
          "internalType": "bytes[]",
          "name": "sharesEncrypted",
          "type": "bytes[]"
        },
        {
          "internalType": "uint256",
          "name": "ssvAmount",
          "type": "uint256"
        },
        {
          "internalType": "bytes",
          "name": "withdrawal_credentials",
          "type": "bytes"
        },
        {
          "internalType": "bytes",
          "name": "signature",
          "type": "bytes"
        },
        {
          "internalType": "bytes32",
          "name": "deposit_data_root",
          "type": "bytes32"
        }
      ],
      "name": "depositSSV",
      "outputs": [],
      "stateMutability": "payable",
      "type": "function"
    },
    {
      "inputs": [
        {
          "internalType": "bytes",
          "name": "pubkey",
          "type": "bytes"
        },
        {
          "internalType": "uint32[]",
          "name": "operatorIds",
          "type": "uint32[]"
        },
        {
          "internalType": "bytes[]",
          "name": "sharesPublicKeys",
          "type": "bytes[]"
        },
        {
          "internalType": "bytes[]",
          "name": "sharesEncrypted",
          "type": "bytes[]"
        },
        {
          "internalType": "uint256",
          "name": "ssvAmount",
          "type": "uint256"
        }
      ],
      "name": "depositTestSSV",
      "outputs": [],
      "stateMutability": "payable",
      "type": "function"
    },
    {
      "inputs": [
        {
          "internalType": "bytes",
          "name": "pubkey",
          "type": "bytes"
        },
        {
          "internalType": "uint32[]",
          "name": "operatorIds",
          "type": "uint32[]"
        },
        {
          "internalType": "bytes[]",
          "name": "sharesPublicKeys",
          "type": "bytes[]"
        },
        {
          "internalType": "bytes[]",
          "name": "sharesEncrypted",
          "type": "bytes[]"
        },
        {
          "internalType": "uint256",
          "name": "ssvAmount",
          "type": "uint256"
        }
      ],
      "name": "depositTestSSVMultiSig",
      "outputs": [
        {
          "internalType": "bool",
          "name": "",
          "type": "bool"
        },
        {
          "internalType": "bytes",
          "name": "",
          "type": "bytes"
        }
      ],
      "stateMutability": "payable",
      "type": "function"
    },
    {
      "inputs": [],
      "name": "getBalance",
      "outputs": [
        {
          "internalType": "uint256",
          "name": "",
          "type": "uint256"
        }
      ],
      "stateMutability": "view",
      "type": "function"
    },
    {
      "inputs": [
        {
          "internalType": "address",
          "name": "_addr",
          "type": "address"
        }
      ],
      "name": "getValidator",
      "outputs": [
        {
          "internalType": "bytes",
          "name": "",
          "type": "bytes"
        }
      ],
      "stateMutability": "view",
      "type": "function"
    },
    {
      "inputs": [],
      "name": "getValidatorSelf",
      "outputs": [
        {
          "internalType": "bytes",
          "name": "",
          "type": "bytes"
        }
      ],
      "stateMutability": "view",
      "type": "function"
    },
    {
      "inputs": [],
      "name": "is_BUSINESS",
      "outputs": [
        {
          "internalType": "bytes32",
          "name": "",
          "type": "bytes32"
        }
      ],
      "stateMutability": "view",
      "type": "function"
    },
    {
      "inputs": [],
      "name": "owner",
      "outputs": [
        {
          "internalType": "address",
          "name": "",
          "type": "address"
        }
      ],
      "stateMutability": "view",
      "type": "function"
    },
    {
      "inputs": [],
      "name": "renounceOwnership",
      "outputs": [],
      "stateMutability": "nonpayable",
      "type": "function"
    },
    {
      "inputs": [
        {
          "internalType": "address",
          "name": "newOwner",
          "type": "address"
        }
      ],
      "name": "transferOwnership",
      "outputs": [],
      "stateMutability": "nonpayable",
      "type": "function"
    },
    {
      "inputs": [
        {
          "internalType": "address",
          "name": "_sender",
          "type": "address"
        }
      ],
      "name": "verified",
      "outputs": [
        {
          "internalType": "bool",
          "name": "",
          "type": "bool"
        }
      ],
      "stateMutability": "view",
      "type": "function"
    }
  ],
  "bytecode": {
    "object": "0x6080346200010157601f62001cf438819003918201601f19168301916001600160401b03831184841017620001065780849260809460405283398101031262000101576200004d816200011c565b6200005b602083016200011c565b6200007760606200006f604086016200011c565b94016200011c565b600160005560015460018060a01b03199033828216176001556040519560018060a01b03948592833391167f8be0079c531659141344cd1fd0a4f28419497f9722a3daafe3b4186f6b6457e0600080a38284600254169185600354169282876004541697600554169a1617600255161760035516176004551617600555611bc29081620001328239f35b600080fd5b634e487b7160e01b600052604160045260246000fd5b51906001600160a01b0382168203620001015756fe6080604052600436101561001257600080fd5b6000803560e01c806301e09fe21461148957806308d4fbd514610ef45780630db065f414610e8e5780630df1ecfd14610e3c57806312065fe014610e025780631904bb2e14610d2b5780634d5a1c1f14610cd25780635c4acd2d14610856578063715018a6146107b757806374deec341461046657806380164859146104145780638da5cb5b146103c2578063946eadac146102af578063e99f0c9b1461025d578063f2fde38b146101215763ff0d2c26146100cd57600080fd5b3461011e57807ffffffffffffffffffffffffffffffffffffffffffffffffffffffffffffffffc36011261011e57602073ffffffffffffffffffffffffffffffffffffffff60055416604051908152f35b80fd5b503461011e5760207ffffffffffffffffffffffffffffffffffffffffffffffffffffffffffffffffc36011261011e5760043573ffffffffffffffffffffffffffffffffffffffff8082168092036102595761017b611686565b81156101d557600154827fffffffffffffffffffffffff0000000000000000000000000000000000000000821617600155167f8be0079c531659141344cd1fd0a4f28419497f9722a3daafe3b4186f6b6457e0600080a380f35b60846040517f08c379a000000000000000000000000000000000000000000000000000000000815260206004820152602660248201527f4f776e61626c653a206e6577206f776e657220697320746865207a65726f206160448201527f64647265737300000000000000000000000000000000000000000000000000006064820152fd5b8280fd5b503461011e57807ffffffffffffffffffffffffffffffffffffffffffffffffffffffffffffffffc36011261011e57602073ffffffffffffffffffffffffffffffffffffffff60025416604051908152f35b503461011e57807ffffffffffffffffffffffffffffffffffffffffffffffffffffffffffffffffc36011261011e5733815260206006815260408220604051838194908354906102fe826119c3565b9485855260019287848216918260001461037f575050600114610343575b50505061032b925003836117d2565b61033f604051928284938452830190611585565b0390f35b869350819291528282205b85831061036757505061032b935082010138808061031c565b8054838901850152879450869390920191810161034e565b925094505061032b9592507fffffffffffffffffffffffffffffffffffffffffffffffffffffffffffffff0091501682840152151560051b82010138808061031c565b503461011e57807ffffffffffffffffffffffffffffffffffffffffffffffffffffffffffffffffc36011261011e57602073ffffffffffffffffffffffffffffffffffffffff60015416604051908152f35b503461011e57807ffffffffffffffffffffffffffffffffffffffffffffffffffffffffffffffffc36011261011e57602073ffffffffffffffffffffffffffffffffffffffff60045416604051908152f35b50610470366115e3565b92610482999899969596929192611a46565b61049361048e33611ab5565b611705565b600354600480546040517f095ea7b300000000000000000000000000000000000000000000000000000000815273ffffffffffffffffffffffffffffffffffffffff918216928101929092526024820187905291602090829060449082908f9087165af180156107ac5761077d575b506004541694853b156107795789969594899488948d94610553946040519c8d9b8c9a8b997fe40cb19d000000000000000000000000000000000000000000000000000000008b5260048b01611930565b03925af1801561076e57908391610756575b50503382526006602052604082209267ffffffffffffffff82116107295761058d84546119c3565b601f81116106e4575b508293601f8311600114610626578284957f1d9f9a9e3282b963f061280cbb7f497e41f15f7e7aa8940b589b36847e9c6036959161061b575b508360011b907fffffffffffffffffffffffffffffffffffffffffffffffffffffffffffffffff8560031b1c19161790555b6106116040519283923384611a16565b0390a16001815580f35b9050820135386105cf565b808452602084207fffffffffffffffffffffffffffffffffffffffffffffffffffffffffffffffe0841695855b8781106106cc5750847f1d9f9a9e3282b963f061280cbb7f497e41f15f7e7aa8940b589b36847e9c6036969710610694575b5050600183811b019055610601565b7fffffffffffffffffffffffffffffffffffffffffffffffffffffffffffffffff60f88660031b161c19908401351690553880610685565b90916020600181928588013581550193019101610653565b84845260208420601f840160051c8101916020851061071f575b601f0160051c01905b8181106107145750610596565b848155600101610707565b90915081906106fe565b6024837f4e487b710000000000000000000000000000000000000000000000000000000081526041600452fd5b61075f9061178f565b61076a578138610565565b5080fd5b6040513d85823e3d90fd5b8980fd5b61079e9060203d6020116107a5575b61079681836117d2565b810190611852565b5038610502565b503d61078c565b6040513d8d823e3d90fd5b503461011e57807ffffffffffffffffffffffffffffffffffffffffffffffffffffffffffffffffc36011261011e576107ee611686565b600073ffffffffffffffffffffffffffffffffffffffff6001547fffffffffffffffffffffffff00000000000000000000000000000000000000008116600155167f8be0079c531659141344cd1fd0a4f28419497f9722a3daafe3b4186f6b6457e08280a380f35b50610860366115e3565b9498969590939261086f611a46565b61087b61048e33611ab5565b338852600760205260ff60408920541615610c4e57338852600860205260ff604089205416610bca57879586958a946109359333895260086020526040892060017fffffffffffffffffffffffffffffffffffffffffffffffffffffffffffffff0082541617905573ffffffffffffffffffffffffffffffffffffffff60045416976040519e8f978d60208a019a7fc47e14a2000000000000000000000000000000000000000000000000000000008c5260248b01611930565b03976109677fffffffffffffffffffffffffffffffffffffffffffffffffffffffffffffffe0998a81018352826117d2565b51915af4923d15610bc2573d9467ffffffffffffffff8611610b955760405195610999602083601f84011601886117d2565b86523d84602088013e5b3384526006602052604084209067ffffffffffffffff8411610b68576109c982546119c3565b601f8111610b23575b508490601f8511600114610a7f575091839185947f1d9f9a9e3282b963f061280cbb7f497e41f15f7e7aa8940b589b36847e9c60369460019791610a74575b5083871b907fffffffffffffffffffffffffffffffffffffffffffffffffffffffffffffffff8560031b1c19161790555b610a526040519283923384611a16565b0390a15561033f60405192839215158352604060208401526040830190611585565b905082013538610a11565b8416908286526020862091865b818110610b0b575091859391600197967f1d9f9a9e3282b963f061280cbb7f497e41f15f7e7aa8940b589b36847e9c6036969410610ad3575b50508583811b019055610a42565b7fffffffffffffffffffffffffffffffffffffffffffffffffffffffffffffffff60f88660031b161c19908401351690553880610ac5565b91926020600181928689013581550194019201610a8c565b82865260208620601f860160051c81019160208710610b5e575b601f0160051c01905b818110610b5357506109d2565b868155600101610b46565b9091508190610b3d565b6024857f4e487b710000000000000000000000000000000000000000000000000000000081526041600452fd5b6024847f4e487b710000000000000000000000000000000000000000000000000000000081526041600452fd5b6060946109a3565b60846040517f08c379a000000000000000000000000000000000000000000000000000000000815260206004820152602560248201527f596f75206861766520616c7265616479207374616b656420796f75722064657060448201527f6f7369742e0000000000000000000000000000000000000000000000000000006064820152fd5b60846040517f08c379a000000000000000000000000000000000000000000000000000000000815260206004820152602d60248201527f596f752068617665206e6f74206465706f736974656420696e746f207468652060448201527f6d756c7469736967207965742e000000000000000000000000000000000000006064820152fd5b503461011e57807ffffffffffffffffffffffffffffffffffffffffffffffffffffffffffffffffc36011261011e5760206040517faf369ce728c816785c72f1ff0222ca9553b2cb93729d6a803be6af0d2369239b8152f35b503461011e576020807ffffffffffffffffffffffffffffffffffffffffffffffffffffffffffffffffc36011261076a5760043573ffffffffffffffffffffffffffffffffffffffff8116809103610259578252600681526040822060405183819490835490610d9a826119c3565b9485855260019287848216918260001461037f575050600114610dc65750505061032b925003836117d2565b869350819291528282205b858310610dea57505061032b935082010138808061031c565b80548389018501528794508693909201918101610dd1565b503461011e57807ffffffffffffffffffffffffffffffffffffffffffffffffffffffffffffffffc36011261011e57602047604051908152f35b503461011e57807ffffffffffffffffffffffffffffffffffffffffffffffffffffffffffffffffc36011261011e57602073ffffffffffffffffffffffffffffffffffffffff60035416604051908152f35b503461011e5760207ffffffffffffffffffffffffffffffffffffffffffffffffffffffffffffffffc36011261011e576004359073ffffffffffffffffffffffffffffffffffffffff8216820361011e576020610eea83611ab5565b6040519015158152f35b506101007ffffffffffffffffffffffffffffffffffffffffffffffffffffffffffffffffc36011261011e5760043567ffffffffffffffff811161076a57610f40903690600401611521565b60249291923567ffffffffffffffff811161025957610f63903690600401611554565b60443567ffffffffffffffff811161148557610f83903690600401611554565b909260643567ffffffffffffffff811161148157610fa5903690600401611554565b9060a43567ffffffffffffffff811161136857610fc6903690600401611521565b9060c43567ffffffffffffffff811161147d57610fe7903690600401611521565b610fef611a46565b610ffb61048e33611ab5565b6801bc16d674ec80000034036113ad5773ffffffffffffffffffffffffffffffffffffffff6005541692833b156113a9578b6110db8f92948f96946110ab61107b976040519a8b998a9889987f22895118000000000000000000000000000000000000000000000000000000008a52608060048b015260848a0191611813565b917ffffffffffffffffffffffffffffffffffffffffffffffffffffffffffffffffc888403016024890152611813565b917ffffffffffffffffffffffffffffffffffffffffffffffffffffffffffffffffc858403016044860152611813565b60e4356064830152039134905af1801561138b57611396575b50600354600480546040517f095ea7b300000000000000000000000000000000000000000000000000000000815273ffffffffffffffffffffffffffffffffffffffff9182169281019290925260843560248301529091602091839160449183918e91165af1801561138b5761136c575b5073ffffffffffffffffffffffffffffffffffffffff6004541693843b15611368576111ce8a8a9796959488948b946040519b8c9a8b998a987fe40cb19d000000000000000000000000000000000000000000000000000000008a526084359760048b01611930565b03925af1801561076e57908391611354575b50503382526006602052604082209267ffffffffffffffff82116107295761120884546119c3565b601f811161130f575b508293601f831160011461128a578284957f1d9f9a9e3282b963f061280cbb7f497e41f15f7e7aa8940b589b36847e9c6036959161061b57508360011b907fffffffffffffffffffffffffffffffffffffffffffffffffffffffffffffffff8560031b1c19161790556106116040519283923384611a16565b808452602084207fffffffffffffffffffffffffffffffffffffffffffffffffffffffffffffffe0841695855b8781106112f75750847f1d9f9a9e3282b963f061280cbb7f497e41f15f7e7aa8940b589b36847e9c6036969710610694575050600183811b019055610601565b909160206001819285880135815501930191016112b7565b84845260208420601f840160051c8101916020851061134a575b601f0160051c01905b81811061133f5750611211565b848155600101611332565b9091508190611329565b61135d9061178f565b61076a5781386111e0565b8880fd5b6113849060203d6020116107a55761079681836117d2565b5038611165565b6040513d8b823e3d90fd5b6113a29098919861178f565b96386110f4565b8c80fd5b60c46040517f08c379a000000000000000000000000000000000000000000000000000000000815260206004820152606c60248201527f596f752061726520747279696e6720746f206465706f736974206d6f7265207460448201527f68616e207468652063757272656e7420706f6f6c2063616e20686f6c642e205060648201527f6c65617365207761697420666f7220746865206e657874206f6e65206f72206460848201527f65706f736974206c6573732e000000000000000000000000000000000000000060a4820152fd5b8a80fd5b8680fd5b8480fd5b50807ffffffffffffffffffffffffffffffffffffffffffffffffffffffffffffffffc36011261011e576114bb611a46565b33815260076020526040812060017fffffffffffffffffffffffffffffffffffffffffffffffffffffffffffffff008254161790557ff1ba5e02dd9da55d69765f748d69bc46c6b056e18d3d4f619f1c372c5e568cb86020604051338152a16001815580f35b9181601f8401121561154f5782359167ffffffffffffffff831161154f576020838186019501011161154f57565b600080fd5b9181601f8401121561154f5782359167ffffffffffffffff831161154f576020808501948460051b01011161154f57565b919082519283825260005b8481106115cf5750507fffffffffffffffffffffffffffffffffffffffffffffffffffffffffffffffe0601f8460006020809697860101520116010190565b602081830181015184830182015201611590565b60a07ffffffffffffffffffffffffffffffffffffffffffffffffffffffffffffffffc82011261154f5767ffffffffffffffff9060043582811161154f578161162e91600401611521565b9390939260243581811161154f578361164991600401611554565b9390939260443583811161154f578261166491600401611554565b9390939260643591821161154f5761167e91600401611554565b909160843590565b73ffffffffffffffffffffffffffffffffffffffff6001541633036116a757565b60646040517f08c379a000000000000000000000000000000000000000000000000000000000815260206004820152602060248201527f4f776e61626c653a2063616c6c6572206973206e6f7420746865206f776e65726044820152fd5b1561170c57565b60846040517f08c379a0000000000000000000000000000000000000000000000000000000008152602060048201526024808201527f596f7520617265206e6f74206120766572696669656420627573696e6573732060448201527f7965742e000000000000000000000000000000000000000000000000000000006064820152fd5b67ffffffffffffffff81116117a357604052565b7f4e487b7100000000000000000000000000000000000000000000000000000000600052604160045260246000fd5b90601f7fffffffffffffffffffffffffffffffffffffffffffffffffffffffffffffffe0910116810190811067ffffffffffffffff8211176117a357604052565b601f82602094937fffffffffffffffffffffffffffffffffffffffffffffffffffffffffffffffe0938186528686013760008582860101520116010190565b9081602091031261154f5751801515810361154f5790565b9082818152602080910193818360051b82010194846000925b858410611894575050505050505090565b909192939495967fffffffffffffffffffffffffffffffffffffffffffffffffffffffffffffffe082820301845287357fffffffffffffffffffffffffffffffffffffffffffffffffffffffffffffffe18436030181121561154f57830186810191903567ffffffffffffffff811161154f57803603831361154f5761191f88928392600195611813565b990194019401929594939190611883565b9998979593919061194c9195939560a08c5260a08c0191611813565b906020828b829403828d01528281520194916000805b83821061199b575050505050826119969492611988928a608098960360408c015261186a565b91878303606089015261186a565b930152565b9091929396873563ffffffff8116809103610259578152830196830193929160010190611962565b90600182811c92168015611a0c575b60208310146119dd57565b7f4e487b7100000000000000000000000000000000000000000000000000000000600052602260045260246000fd5b91607f16916119d2565b60409073ffffffffffffffffffffffffffffffffffffffff611a4395931681528160208201520191611813565b90565b600260005414611a57576002600055565b60646040517f08c379a000000000000000000000000000000000000000000000000000000000815260206004820152601f60248201527f5265656e7472616e637947756172643a207265656e7472616e742063616c6c006044820152fd5b602073ffffffffffffffffffffffffffffffffffffffff604481600254169360405194859384927f4d30b6be0000000000000000000000000000000000000000000000000000000084521660048301527faf369ce728c816785c72f1ff0222ca9553b2cb93729d6a803be6af0d2369239b60248301525afa8015611b8057600090611b4e575b6001119050611b4957600190565b600090565b6020823d8211611b78575b81611b66602093836117d2565b8101031261011e575060019051611b3b565b3d9150611b59565b6040513d6000823e3d90fdfea2646970667358221220c561c807cd60b688d0a5701fcfa1d32d21805f7bef13aff0a112578756ab6bef64736f6c63430008110033",
    "linkReferences": {}
  },
  "methodIdentifiers": {
    "DEPOSIT_ADDRESS()": "ff0d2c26",
    "QUADRATA()": "e99f0c9b",
    "SSV_ADDRESS()": "80164859",
    "SSV_TOKEN()": "0df1ecfd",
    "depositIntoMultiSig()": "01e09fe2",
    "depositSSV(bytes,uint32[],bytes[],bytes[],uint256,bytes,bytes,bytes32)": "08d4fbd5",
    "depositTestSSV(bytes,uint32[],bytes[],bytes[],uint256)": "74deec34",
    "depositTestSSVMultiSig(bytes,uint32[],bytes[],bytes[],uint256)": "5c4acd2d",
    "getBalance()": "12065fe0",
    "getValidator(address)": "1904bb2e",
    "getValidatorSelf()": "946eadac",
    "is_BUSINESS()": "4d5a1c1f",
    "owner()": "8da5cb5b",
    "renounceOwnership()": "715018a6",
    "transferOwnership(address)": "f2fde38b",
    "verified(address)": "0db065f4"
  },
  "id": 16
}