{
  "abi": [
    {
      "inputs": [
        {
          "internalType": "address",
          "name": "_quadrataContract",
          "type": "address"
        },
        {
          "internalType": "address",
          "name": "_ssvToken",
          "type": "address"
        },
        {
          "internalType": "address",
          "name": "_ssvContract",
          "type": "address"
        },
        {
          "internalType": "address",
          "name": "_depositAddress",
          "type": "address"
        }
      ],
      "stateMutability": "nonpayable",
      "type": "constructor"
    },
    {
      "anonymous": false,
      "inputs": [
        {
          "indexed": false,
          "internalType": "address",
          "name": "_sender",
          "type": "address"
        },
        {
          "indexed": false,
          "internalType": "bytes",
          "name": "_pubkey",
          "type": "bytes"
        }
      ],
      "name": "DepositReceivedStaked",
      "type": "event"
    },
    {
      "anonymous": false,
      "inputs": [
        {
          "indexed": true,
          "internalType": "address",
          "name": "previousOwner",
          "type": "address"
        },
        {
          "indexed": true,
          "internalType": "address",
          "name": "newOwner",
          "type": "address"
        }
      ],
      "name": "OwnershipTransferred",
      "type": "event"
    },
    {
      "anonymous": false,
      "inputs": [
        {
          "indexed": false,
          "internalType": "uint256",
          "name": "_tokenID",
          "type": "uint256"
        },
        {
          "indexed": false,
          "internalType": "address",
          "name": "_user",
          "type": "address"
        },
        {
          "indexed": false,
          "internalType": "uint256",
          "name": "_fee",
          "type": "uint256"
        },
        {
          "indexed": false,
          "internalType": "uint256",
          "name": "_stakedETH",
          "type": "uint256"
        }
      ],
      "name": "UserRequestedWithdrawal",
      "type": "event"
    },
    {
      "inputs": [],
      "name": "DEPOSIT_ADDRESS",
      "outputs": [
        {
          "internalType": "address",
          "name": "",
          "type": "address"
        }
      ],
      "stateMutability": "view",
      "type": "function"
    },
    {
      "inputs": [],
      "name": "QUADRATA",
      "outputs": [
        {
          "internalType": "address",
          "name": "",
          "type": "address"
        }
      ],
      "stateMutability": "view",
      "type": "function"
    },
    {
      "inputs": [],
      "name": "SSV_ADDRESS",
      "outputs": [
        {
          "internalType": "address",
          "name": "",
          "type": "address"
        }
      ],
      "stateMutability": "view",
      "type": "function"
    },
    {
      "inputs": [],
      "name": "SSV_TOKEN",
      "outputs": [
        {
          "internalType": "address",
          "name": "",
          "type": "address"
        }
      ],
      "stateMutability": "view",
      "type": "function"
    },
    {
      "inputs": [
        {
          "internalType": "bytes",
          "name": "pubkey",
          "type": "bytes"
        },
        {
          "internalType": "uint32[]",
          "name": "operatorIds",
          "type": "uint32[]"
        },
        {
          "internalType": "bytes[]",
          "name": "sharesPublicKeys",
          "type": "bytes[]"
        },
        {
          "internalType": "bytes[]",
          "name": "sharesEncrypted",
          "type": "bytes[]"
        },
        {
          "internalType": "bytes",
          "name": "withdrawal_credentials",
          "type": "bytes"
        },
        {
          "internalType": "bytes",
          "name": "signature",
          "type": "bytes"
        },
        {
          "internalType": "bytes32",
          "name": "deposit_data_root",
          "type": "bytes32"
        },
        {
          "internalType": "uint256",
          "name": "amount",
          "type": "uint256"
        }
      ],
      "name": "depositSSV",
      "outputs": [],
      "stateMutability": "payable",
      "type": "function"
    },
    {
      "inputs": [],
      "name": "getBalance",
      "outputs": [
        {
          "internalType": "uint256",
          "name": "",
          "type": "uint256"
        }
      ],
      "stateMutability": "view",
      "type": "function"
    },
    {
      "inputs": [
        {
          "internalType": "address",
          "name": "_addr",
          "type": "address"
        }
      ],
      "name": "getValidator",
      "outputs": [
        {
          "internalType": "bytes",
          "name": "",
          "type": "bytes"
        }
      ],
      "stateMutability": "view",
      "type": "function"
    },
    {
      "inputs": [],
      "name": "getValidatorSelf",
      "outputs": [
        {
          "internalType": "bytes",
          "name": "",
          "type": "bytes"
        }
      ],
      "stateMutability": "view",
      "type": "function"
    },
    {
      "inputs": [],
      "name": "is_BUSINESS",
      "outputs": [
        {
          "internalType": "bytes32",
          "name": "",
          "type": "bytes32"
        }
      ],
      "stateMutability": "view",
      "type": "function"
    },
    {
      "inputs": [],
      "name": "owner",
      "outputs": [
        {
          "internalType": "address",
          "name": "",
          "type": "address"
        }
      ],
      "stateMutability": "view",
      "type": "function"
    },
    {
      "inputs": [],
      "name": "renounceOwnership",
      "outputs": [],
      "stateMutability": "nonpayable",
      "type": "function"
    },
    {
      "inputs": [
        {
          "internalType": "address",
          "name": "newOwner",
          "type": "address"
        }
      ],
      "name": "transferOwnership",
      "outputs": [],
      "stateMutability": "nonpayable",
      "type": "function"
    },
    {
      "inputs": [
        {
          "internalType": "address",
          "name": "_sender",
          "type": "address"
        }
      ],
      "name": "verified",
      "outputs": [
        {
          "internalType": "bool",
          "name": "",
          "type": "bool"
        }
      ],
      "stateMutability": "view",
      "type": "function"
    }
  ],
  "bytecode": {
    "object": "0x6080346100f657601f6200145a38819003918201601f19168301916001600160401b038311848410176100fb578084926080946040528339810103126100f65761004881610111565b61005460208301610111565b61006c606061006560408601610111565b9401610111565b600160005560015460018060a01b03199033828216176001556040519560018060a01b03948592833391167f8be0079c531659141344cd1fd0a4f28419497f9722a3daafe3b4186f6b6457e0600080a38284600254169185600354169282876004541697600554169a16176002551617600355161760045516176005556113349081620001268239f35b600080fd5b634e487b7160e01b600052604160045260246000fd5b51906001600160a01b03821682036100f65756fe6080604052600436101561001257600080fd5b6000803560e01c80630db065f414610ec05780630df1ecfd14610e6e57806312065fe014610e345780631904bb2e14610d625780634d5a1c1f14610d0957806355ef42dd146104d6578063715018a61461043757806380164859146103e55780638da5cb5b14610393578063946eadac1461028e578063e99f0c9b1461023c578063f2fde38b146101005763ff0d2c26146100ac57600080fd5b346100fd57807ffffffffffffffffffffffffffffffffffffffffffffffffffffffffffffffffc3601126100fd57602073ffffffffffffffffffffffffffffffffffffffff60055416604051908152f35b80fd5b50346100fd5760207ffffffffffffffffffffffffffffffffffffffffffffffffffffffffffffffffc3601126100fd5760043573ffffffffffffffffffffffffffffffffffffffff8082168092036102385761015a610ff0565b81156101b457600154827fffffffffffffffffffffffff0000000000000000000000000000000000000000821617600155167f8be0079c531659141344cd1fd0a4f28419497f9722a3daafe3b4186f6b6457e0600080a380f35b60846040517f08c379a000000000000000000000000000000000000000000000000000000000815260206004820152602660248201527f4f776e61626c653a206e6577206f776e657220697320746865207a65726f206160448201527f64647265737300000000000000000000000000000000000000000000000000006064820152fd5b8280fd5b50346100fd57807ffffffffffffffffffffffffffffffffffffffffffffffffffffffffffffffffc3601126100fd57602073ffffffffffffffffffffffffffffffffffffffff60025416604051908152f35b50346100fd57807ffffffffffffffffffffffffffffffffffffffffffffffffffffffffffffffffc3601126100fd57338152602060068152604082209060405191838154906102dc826111d4565b808652926001928084169081156103515750600114610316575b61031286610306818a03826110b2565b60405191829182610f26565b0390f35b9080949650528483205b82841061033e575050508161031293610306928201019338806102f6565b8054858501870152928501928101610320565b7fffffffffffffffffffffffffffffffffffffffffffffffffffffffffffffff00168787015250505050151560051b82010191506103068161031238806102f6565b50346100fd57807ffffffffffffffffffffffffffffffffffffffffffffffffffffffffffffffffc3601126100fd57602073ffffffffffffffffffffffffffffffffffffffff60015416604051908152f35b50346100fd57807ffffffffffffffffffffffffffffffffffffffffffffffffffffffffffffffffc3601126100fd57602073ffffffffffffffffffffffffffffffffffffffff60045416604051908152f35b50346100fd57807ffffffffffffffffffffffffffffffffffffffffffffffffffffffffffffffffc3601126100fd5761046e610ff0565b600073ffffffffffffffffffffffffffffffffffffffff6001547fffffffffffffffffffffffff00000000000000000000000000000000000000008116600155167f8be0079c531659141344cd1fd0a4f28419497f9722a3daafe3b4186f6b6457e08280a380f35b506101007ffffffffffffffffffffffffffffffffffffffffffffffffffffffffffffffffc3601126100fd5760043567ffffffffffffffff8111610a9d57610522903690600401610f8c565b919060243567ffffffffffffffff811161023857610544903690600401610fbf565b9060443567ffffffffffffffff8111610d0557610565903690600401610fbf565b909160643567ffffffffffffffff8111610d0157610587903690600401610fbf565b91909260843567ffffffffffffffff8111610aee576105aa903690600401610f8c565b9060a43567ffffffffffffffff8111610cfd576105cb903690600401610f8c565b60028c5414610c9f5760028c556105e133611227565b15610c1c576801bc16d674ec8000003403610b4c5773ffffffffffffffffffffffffffffffffffffffff6005541692833b15610aea578d6106c6610666948f96948f94610696906040519a8b998a9889987f22895118000000000000000000000000000000000000000000000000000000008a52608060048b015260848a01916110f3565b917ffffffffffffffffffffffffffffffffffffffffffffffffffffffffffffffffc8884030160248901526110f3565b917ffffffffffffffffffffffffffffffffffffffffffffffffffffffffffffffffc8584030160448601526110f3565b60c4356064830152039134905af18015610b2e57610b39575b5087602073ffffffffffffffffffffffffffffffffffffffff60035416604473ffffffffffffffffffffffffffffffffffffffff6004541660405194859384927f095ea7b3000000000000000000000000000000000000000000000000000000008452600484015260e43560248401525af18015610b2e57610af2575b5073ffffffffffffffffffffffffffffffffffffffff6004541694853b15610aee5791889593918a9593899860206107c76040519b8c9a7fe40cb19d000000000000000000000000000000000000000000000000000000008c5260a060048d015260a48c01916110f3565b7ffffffffffffffffffffffffffffffffffffffffffffffffffffffffffffffffc8a82030160248b015282815201939089905b808210610aac5750505093879361084184610871948a987ffffffffffffffffffffffffffffffffffffffffffffffffffffffffffffffffc8a809903016044890152611132565b917ffffffffffffffffffffffffffffffffffffffffffffffffffffffffffffffffc858403016064860152611132565b60e435608483015203925af18015610aa157908391610a89575b50503382526006602052604082209267ffffffffffffffff8111610a5c576108b384546111d4565b601f8111610a17575b508293601f8211600114610959578184957f1d9f9a9e3282b963f061280cbb7f497e41f15f7e7aa8940b589b36847e9c6036959161094e575b508260011b907fffffffffffffffffffffffffffffffffffffffffffffffffffffffffffffffff8460031b1c19161790555b6109446040519283923384526040602085015260408401916110f3565b0390a16001815580f35b9050830135386108f5565b808452602084207fffffffffffffffffffffffffffffffffffffffffffffffffffffffffffffffe0831695855b8781106109ff5750837f1d9f9a9e3282b963f061280cbb7f497e41f15f7e7aa8940b589b36847e9c60369697106109c7575b5050600182811b019055610927565b7fffffffffffffffffffffffffffffffffffffffffffffffffffffffffffffffff60f88560031b161c199085013516905538806109b8565b90916020600181928589013581550193019101610986565b84845260208420601f830160051c81019160208410610a52575b601f0160051c01905b818110610a4757506108bc565b848155600101610a3a565b9091508190610a31565b6024837f4e487b710000000000000000000000000000000000000000000000000000000081526041600452fd5b610a929061106f565b610a9d57813861088b565b5080fd5b6040513d85823e3d90fd5b9294919698509294969850853563ffffffff81168103610aea57602060019263ffffffff82931681520196019201918b989694928a989694926107fa565b8c80fd5b8880fd5b6020813d602011610b26575b81610b0b602093836110b2565b81010312610aee575180151503610b22573861075c565b8780fd5b3d9150610afe565b6040513d8b823e3d90fd5b610b459098919861106f565b96386106df565b60c46040517f08c379a000000000000000000000000000000000000000000000000000000000815260206004820152606c60248201527f596f752061726520747279696e6720746f206465706f736974206d6f7265207460448201527f68616e207468652063757272656e7420706f6f6c2063616e20686f6c642e205060648201527f6c65617365207761697420666f7220746865206e657874206f6e65206f72206460848201527f65706f736974206c6573732e000000000000000000000000000000000000000060a4820152fd5b60846040517f08c379a0000000000000000000000000000000000000000000000000000000008152602060048201526024808201527f596f7520617265206e6f74206120766572696669656420627573696e6573732060448201527f7965742e000000000000000000000000000000000000000000000000000000006064820152fd5b60646040517f08c379a000000000000000000000000000000000000000000000000000000000815260206004820152601f60248201527f5265656e7472616e637947756172643a207265656e7472616e742063616c6c006044820152fd5b8a80fd5b8680fd5b8480fd5b50346100fd57807ffffffffffffffffffffffffffffffffffffffffffffffffffffffffffffffffc3601126100fd5760206040517faf369ce728c816785c72f1ff0222ca9553b2cb93729d6a803be6af0d2369239b8152f35b50346100fd576020807ffffffffffffffffffffffffffffffffffffffffffffffffffffffffffffffffc360112610a9d5760043573ffffffffffffffffffffffffffffffffffffffff81168091036102385782526006815260408220906040519183815490610dd0826111d4565b808652926001928084169081156103515750600114610df95761031286610306818a03826110b2565b9080949650528483205b828410610e21575050508161031293610306928201019338806102f6565b8054858501870152928501928101610e03565b50346100fd57807ffffffffffffffffffffffffffffffffffffffffffffffffffffffffffffffffc3601126100fd57602047604051908152f35b50346100fd57807ffffffffffffffffffffffffffffffffffffffffffffffffffffffffffffffffc3601126100fd57602073ffffffffffffffffffffffffffffffffffffffff60035416604051908152f35b50346100fd5760207ffffffffffffffffffffffffffffffffffffffffffffffffffffffffffffffffc3601126100fd576004359073ffffffffffffffffffffffffffffffffffffffff821682036100fd576020610f1c83611227565b6040519015158152f35b60208082528251818301819052939260005b858110610f78575050507fffffffffffffffffffffffffffffffffffffffffffffffffffffffffffffffe0601f8460006040809697860101520116010190565b818101830151848201604001528201610f38565b9181601f84011215610fba5782359167ffffffffffffffff8311610fba5760208381860195010111610fba57565b600080fd5b9181601f84011215610fba5782359167ffffffffffffffff8311610fba576020808501948460051b010111610fba57565b73ffffffffffffffffffffffffffffffffffffffff60015416330361101157565b60646040517f08c379a000000000000000000000000000000000000000000000000000000000815260206004820152602060248201527f4f776e61626c653a2063616c6c6572206973206e6f7420746865206f776e65726044820152fd5b67ffffffffffffffff811161108357604052565b7f4e487b7100000000000000000000000000000000000000000000000000000000600052604160045260246000fd5b90601f7fffffffffffffffffffffffffffffffffffffffffffffffffffffffffffffffe0910116810190811067ffffffffffffffff82111761108357604052565b601f82602094937fffffffffffffffffffffffffffffffffffffffffffffffffffffffffffffffe0938186528686013760008582860101520116010190565b90808352602080930192838260051b850194846000925b85841061115a575050505050505090565b90919293949596818103845287357fffffffffffffffffffffffffffffffffffffffffffffffffffffffffffffffe184360301811215610fba57830186810191903567ffffffffffffffff8111610fba578036038313610fba576111c3889283926001956110f3565b990194019401929594939190611149565b90600182811c9216801561121d575b60208310146111ee57565b7f4e487b7100000000000000000000000000000000000000000000000000000000600052602260045260246000fd5b91607f16916111e3565b602073ffffffffffffffffffffffffffffffffffffffff604481600254169360405194859384927f4d30b6be0000000000000000000000000000000000000000000000000000000084521660048301527faf369ce728c816785c72f1ff0222ca9553b2cb93729d6a803be6af0d2369239b60248301525afa80156112f2576000906112c0575b60011190506112bb57600190565b600090565b6020823d82116112ea575b816112d8602093836110b2565b810103126100fd5750600190516112ad565b3d91506112cb565b6040513d6000823e3d90fdfea264697066735822122031798b2fb63facc3bde39586f317b604cb05bec665645cf6dc65b3b08db9491b64736f6c63430008110033",
    "linkReferences": {}
  },
  "methodIdentifiers": {
    "DEPOSIT_ADDRESS()": "ff0d2c26",
    "QUADRATA()": "e99f0c9b",
    "SSV_ADDRESS()": "80164859",
    "SSV_TOKEN()": "0df1ecfd",
    "depositSSV(bytes,uint32[],bytes[],bytes[],bytes,bytes,bytes32,uint256)": "55ef42dd",
    "getBalance()": "12065fe0",
    "getValidator(address)": "1904bb2e",
    "getValidatorSelf()": "946eadac",
    "is_BUSINESS()": "4d5a1c1f",
    "owner()": "8da5cb5b",
    "renounceOwnership()": "715018a6",
    "transferOwnership(address)": "f2fde38b",
    "verified(address)": "0db065f4"
  },
  "id": 16
}