{
  "abi": [
    {
      "inputs": [
        {
          "internalType": "address",
          "name": "_quadrataContract",
          "type": "address"
        },
        {
          "internalType": "address",
          "name": "_ssvToken",
          "type": "address"
        },
        {
          "internalType": "address",
          "name": "_ssvContract",
          "type": "address"
        },
        {
          "internalType": "address",
          "name": "_depositAddress",
          "type": "address"
        }
      ],
      "stateMutability": "nonpayable",
      "type": "constructor"
    },
    {
      "anonymous": false,
      "inputs": [
        {
          "indexed": true,
          "internalType": "address",
          "name": "_sender",
          "type": "address"
        }
      ],
      "name": "DepositReceived",
      "type": "event"
    },
    {
      "anonymous": false,
      "inputs": [
        {
          "indexed": false,
          "internalType": "address",
          "name": "_sender",
          "type": "address"
        },
        {
          "indexed": false,
          "internalType": "bytes",
          "name": "_pubkey",
          "type": "bytes"
        }
      ],
      "name": "DepositReceivedStaked",
      "type": "event"
    },
    {
      "anonymous": false,
      "inputs": [
        {
          "indexed": true,
          "internalType": "address",
          "name": "_sender",
          "type": "address"
        }
      ],
      "name": "DepositReceivedTest",
      "type": "event"
    },
    {
      "anonymous": false,
      "inputs": [
        {
          "indexed": false,
          "internalType": "address",
          "name": "_sender",
          "type": "address"
        }
      ],
      "name": "DepositStaked",
      "type": "event"
    },
    {
      "anonymous": false,
      "inputs": [
        {
          "indexed": true,
          "internalType": "address",
          "name": "previousOwner",
          "type": "address"
        },
        {
          "indexed": true,
          "internalType": "address",
          "name": "newOwner",
          "type": "address"
        }
      ],
      "name": "OwnershipTransferred",
      "type": "event"
    },
    {
      "inputs": [],
      "name": "DEPOSIT_ADDRESS",
      "outputs": [
        {
          "internalType": "address",
          "name": "",
          "type": "address"
        }
      ],
      "stateMutability": "view",
      "type": "function"
    },
    {
      "inputs": [],
      "name": "QUADRATA",
      "outputs": [
        {
          "internalType": "address",
          "name": "",
          "type": "address"
        }
      ],
      "stateMutability": "view",
      "type": "function"
    },
    {
      "inputs": [],
      "name": "SSV_ADDRESS",
      "outputs": [
        {
          "internalType": "address",
          "name": "",
          "type": "address"
        }
      ],
      "stateMutability": "view",
      "type": "function"
    },
    {
      "inputs": [],
      "name": "SSV_TOKEN",
      "outputs": [
        {
          "internalType": "address",
          "name": "",
          "type": "address"
        }
      ],
      "stateMutability": "view",
      "type": "function"
    },
    {
      "inputs": [
        {
          "internalType": "address",
          "name": "_staker",
          "type": "address"
        },
        {
          "internalType": "bytes",
          "name": "pubkey",
          "type": "bytes"
        },
        {
          "internalType": "uint32[]",
          "name": "operatorIds",
          "type": "uint32[]"
        },
        {
          "internalType": "bytes[]",
          "name": "sharesPublicKeys",
          "type": "bytes[]"
        },
        {
          "internalType": "bytes[]",
          "name": "sharesEncrypted",
          "type": "bytes[]"
        },
        {
          "internalType": "uint256",
          "name": "ssvAmount",
          "type": "uint256"
        },
        {
          "internalType": "bytes",
          "name": "withdrawal_credentials",
          "type": "bytes"
        },
        {
          "internalType": "bytes",
          "name": "signature",
          "type": "bytes"
        },
        {
          "internalType": "bytes32",
          "name": "deposit_data_root",
          "type": "bytes32"
        }
      ],
      "name": "createSSV",
      "outputs": [],
      "stateMutability": "payable",
      "type": "function"
    },
    {
      "inputs": [
        {
          "internalType": "address",
          "name": "_staker",
          "type": "address"
        },
        {
          "internalType": "bytes",
          "name": "pubkey",
          "type": "bytes"
        },
        {
          "internalType": "uint32[]",
          "name": "operatorIds",
          "type": "uint32[]"
        },
        {
          "internalType": "bytes[]",
          "name": "sharesPublicKeys",
          "type": "bytes[]"
        },
        {
          "internalType": "bytes[]",
          "name": "sharesEncrypted",
          "type": "bytes[]"
        },
        {
          "internalType": "uint256",
          "name": "ssvAmount",
          "type": "uint256"
        }
      ],
      "name": "createSSVTest",
      "outputs": [],
      "stateMutability": "payable",
      "type": "function"
    },
    {
      "inputs": [],
      "name": "depositIntoContract",
      "outputs": [],
      "stateMutability": "payable",
      "type": "function"
    },
    {
      "inputs": [],
      "name": "depositIntoContractTest",
      "outputs": [],
      "stateMutability": "payable",
      "type": "function"
    },
    {
      "inputs": [],
      "name": "getBalance",
      "outputs": [
        {
          "internalType": "uint256",
          "name": "",
          "type": "uint256"
        }
      ],
      "stateMutability": "view",
      "type": "function"
    },
    {
      "inputs": [
        {
          "internalType": "address",
          "name": "_addr",
          "type": "address"
        }
      ],
      "name": "getValidator",
      "outputs": [
        {
          "internalType": "bytes[]",
          "name": "",
          "type": "bytes[]"
        }
      ],
      "stateMutability": "view",
      "type": "function"
    },
    {
      "inputs": [],
      "name": "getValidatorSelf",
      "outputs": [
        {
          "internalType": "bytes[]",
          "name": "",
          "type": "bytes[]"
        }
      ],
      "stateMutability": "view",
      "type": "function"
    },
    {
      "inputs": [],
      "name": "is_BUSINESS",
      "outputs": [
        {
          "internalType": "bytes32",
          "name": "",
          "type": "bytes32"
        }
      ],
      "stateMutability": "view",
      "type": "function"
    },
    {
      "inputs": [],
      "name": "owner",
      "outputs": [
        {
          "internalType": "address",
          "name": "",
          "type": "address"
        }
      ],
      "stateMutability": "view",
      "type": "function"
    },
    {
      "inputs": [],
      "name": "renounceOwnership",
      "outputs": [],
      "stateMutability": "nonpayable",
      "type": "function"
    },
    {
      "inputs": [
        {
          "internalType": "address",
          "name": "newOwner",
          "type": "address"
        }
      ],
      "name": "transferOwnership",
      "outputs": [],
      "stateMutability": "nonpayable",
      "type": "function"
    },
    {
      "inputs": [
        {
          "internalType": "address",
          "name": "_sender",
          "type": "address"
        }
      ],
      "name": "verified",
      "outputs": [
        {
          "internalType": "bool",
          "name": "",
          "type": "bool"
        }
      ],
      "stateMutability": "view",
      "type": "function"
    }
  ],
  "bytecode": {
    "object": "0x6080346200010157601f62001b1438819003918201601f19168301916001600160401b03831184841017620001065780849260809460405283398101031262000101576200004d816200011c565b6200005b602083016200011c565b6200007760606200006f604086016200011c565b94016200011c565b600160005560015460018060a01b03199033828216176001556040519560018060a01b03948592833391167f8be0079c531659141344cd1fd0a4f28419497f9722a3daafe3b4186f6b6457e0600080a38284600254169185600354169282876004541697600554169a16176002551617600355161760045516176005556119e29081620001328239f35b600080fd5b634e487b7160e01b600052604160045260246000fd5b51906001600160a01b0382168203620001015756fe6080604052600436101561001257600080fd5b6000803560e01c80630db065f41461109f5780630df1ecfd1461104d57806312065fe0146110135780631904bb2e14610eb55780633753836614610c3f5780634898858a14610ac05780634d5a1c1f14610a67578063715018a6146109c857806380164859146109765780638da5cb5b14610924578063946eadac146107b2578063cee8ce841461034e578063e0f3f8e0146102aa578063e99f0c9b14610258578063f2fde38b146101215763ff0d2c26146100cd57600080fd5b3461011e57807ffffffffffffffffffffffffffffffffffffffffffffffffffffffffffffffffc36011261011e57602073ffffffffffffffffffffffffffffffffffffffff60055416604051908152f35b80fd5b503461011e5760207ffffffffffffffffffffffffffffffffffffffffffffffffffffffffffffffffc36011261011e576101596110eb565b610161611241565b73ffffffffffffffffffffffffffffffffffffffff8091169081156101d457600154827fffffffffffffffffffffffff0000000000000000000000000000000000000000821617600155167f8be0079c531659141344cd1fd0a4f28419497f9722a3daafe3b4186f6b6457e0600080a380f35b60846040517f08c379a000000000000000000000000000000000000000000000000000000000815260206004820152602660248201527f4f776e61626c653a206e6577206f776e657220697320746865207a65726f206160448201527f64647265737300000000000000000000000000000000000000000000000000006064820152fd5b503461011e57807ffffffffffffffffffffffffffffffffffffffffffffffffffffffffffffffffc36011261011e57602073ffffffffffffffffffffffffffffffffffffffff60025416604051908152f35b50807ffffffffffffffffffffffffffffffffffffffffffffffffffffffffffffffffc36011261011e576102dc61134a565b6102ed6102e8336118df565b6112c0565b33815260076020526040812060017fffffffffffffffffffffffffffffffffffffffffffffffffffffffffffffff00825416179055337f3208b26f3b196315309b41d11d34544ee609dcc4ecbd0dfb2e82b8a6539e19718280a26001815580f35b506101207ffffffffffffffffffffffffffffffffffffffffffffffffffffffffffffffffc36011261011e576103826110eb565b67ffffffffffffffff6024358181116106d0576103a39036906004016111e2565b9290916044358181116107ae576103be903690600401611210565b906064358381116107aa576103d7903690600401611210565b91906084358581116107a6576103f1903690600401611210565b908a60c4358881116107a25761040b9036906004016111e2565b919060e435998a116107a25761046660ff604073ffffffffffffffffffffffffffffffffffffffff946104438f9e36906004016111e2565b96909e61044e61134a565b610456611241565b16815260076020522054166113b9565b6801bc16d674ec8000004710610744578d9973ffffffffffffffffffffffffffffffffffffffff6005541690813b15610740576801bc16d674ec8000008f8f92610551908f976105216104f1986040519b8c9a8b998a987f22895118000000000000000000000000000000000000000000000000000000008a52608060048b015260848a01916114a2565b917ffffffffffffffffffffffffffffffffffffffffffffffffffffffffffffffffc8884030160248901526114a2565b917ffffffffffffffffffffffffffffffffffffffffffffffffffffffffffffffffc8584030160448601526114a2565b61010435606483015203925af190811561073557889161071d575b5050600354600480546040517f095ea7b300000000000000000000000000000000000000000000000000000000815273ffffffffffffffffffffffffffffffffffffffff9182169281019290925260a435602483018190529792602091839160449183918e91165af18015610712576106e3575b5073ffffffffffffffffffffffffffffffffffffffff6004541693843b156106df5788968c9488948d94610644946040519c8d9b8c9a8b997fe40cb19d000000000000000000000000000000000000000000000000000000008b5260048b016115bf565b03925af180156106d4576106bc575b50506106b27f1d9f9a9e3282b963f061280cbb7f497e41f15f7e7aa8940b589b36847e9c60369373ffffffffffffffffffffffffffffffffffffffff8316865260066020526106a68185604089206116a5565b604051938493846118af565b0390a16001815580f35b6106c59061141e565b6106d0578338610653565b8380fd5b6040513d84823e3d90fd5b8880fd5b6107049060203d60201161070b575b6106fc8183611461565b8101906114e1565b50386105e0565b503d6106f2565b6040513d8b823e3d90fd5b6107269061141e565b61073157863861056c565b8680fd5b6040513d8a823e3d90fd5b8b80fd5b60646040517f08c379a000000000000000000000000000000000000000000000000000000000815260206004820152601060248201527f4e6f7420656e6f75676874204554482e000000000000000000000000000000006044820152fd5b5080fd5b8980fd5b8780fd5b8580fd5b503461011e57807ffffffffffffffffffffffffffffffffffffffffffffffffffffffffffffffffc36011261011e57338152602060068152604082209081549067ffffffffffffffff82116108f757604051926005916108168185851b0186611461565b83855280850191865280862086925b85841061083e576040518061083a8982611113565b0390f35b60405183899284549261085084611652565b8082526001948086169081156108be5750600114610886575b50610878816001960382611461565b815201920193019290610825565b868d52838d2095508c905b8082106108a75750810183019450610878610869565b865483830186015295850195889490910190610891565b7fffffffffffffffffffffffffffffffffffffffffffffffffffffffffffffff001685840152501515891b810183019450610878610869565b6024847f4e487b710000000000000000000000000000000000000000000000000000000081526041600452fd5b503461011e57807ffffffffffffffffffffffffffffffffffffffffffffffffffffffffffffffffc36011261011e57602073ffffffffffffffffffffffffffffffffffffffff60015416604051908152f35b503461011e57807ffffffffffffffffffffffffffffffffffffffffffffffffffffffffffffffffc36011261011e57602073ffffffffffffffffffffffffffffffffffffffff60045416604051908152f35b503461011e57807ffffffffffffffffffffffffffffffffffffffffffffffffffffffffffffffffc36011261011e576109ff611241565b600073ffffffffffffffffffffffffffffffffffffffff6001547fffffffffffffffffffffffff00000000000000000000000000000000000000008116600155167f8be0079c531659141344cd1fd0a4f28419497f9722a3daafe3b4186f6b6457e08280a380f35b503461011e57807ffffffffffffffffffffffffffffffffffffffffffffffffffffffffffffffffc36011261011e5760206040517faf369ce728c816785c72f1ff0222ca9553b2cb93729d6a803be6af0d2369239b8152f35b50807ffffffffffffffffffffffffffffffffffffffffffffffffffffffffffffffffc36011261011e57610af261134a565b610afe6102e8336118df565b6801bc16d674ec8000003403610b6f5733815260076020526040812060017fffffffffffffffffffffffffffffffffffffffffffffffffffffffffffffff00825416179055337ff1ba5e02dd9da55d69765f748d69bc46c6b056e18d3d4f619f1c372c5e568cb88280a26001815580f35b60c46040517f08c379a000000000000000000000000000000000000000000000000000000000815260206004820152606c60248201527f596f752061726520747279696e6720746f206465706f736974206d6f7265207460448201527f68616e207468652063757272656e7420706f6f6c2063616e20686f6c642e205060648201527f6c65617365207761697420666f7220746865206e657874206f6e65206f72206460848201527f65706f736974206c6573732e000000000000000000000000000000000000000060a4820152fd5b5060c07ffffffffffffffffffffffffffffffffffffffffffffffffffffffffffffffffc36011261011e57610c726110eb565b67ffffffffffffffff9190602435838111610eb157610c959036906004016111e2565b604492919235858111610ead57610cb0903690600401611210565b9060643587811161073157610cc9903690600401611210565b976084359081116107aa57610ce2903690600401611210565b610ced99919961134a565b610cf5611241565b73ffffffffffffffffffffffffffffffffffffffff998a88168a526007602052610d2560ff60408c2054166113b9565b8a60035416928b600454169360208c604051928380927f095ea7b300000000000000000000000000000000000000000000000000000000825281610d9360a435809c600484016020909392919373ffffffffffffffffffffffffffffffffffffffff60408201951681520152565b03925af18015610ea257610e84575b508b6004541694853b15610740578b969594899488948d94610df4946040519c8d9b8c9a8b997fe40cb19d000000000000000000000000000000000000000000000000000000008b5260048b016115bf565b03925af18015610e7957610e42575b506106b2907f1d9f9a9e3282b963f061280cbb7f497e41f15f7e7aa8940b589b36847e9c603694958316865260066020526106a68185604089206116a5565b907f1d9f9a9e3282b963f061280cbb7f497e41f15f7e7aa8940b589b36847e9c603694610e716106b29361141e565b945090610e03565b6040513d87823e3d90fd5b610e9b9060203d811161070b576106fc8183611461565b5038610da2565b6040513d8e823e3d90fd5b8480fd5b8280fd5b503461011e576020807ffffffffffffffffffffffffffffffffffffffffffffffffffffffffffffffffc3601126107a25773ffffffffffffffffffffffffffffffffffffffff610f036110eb565b16825260068152604082209081549067ffffffffffffffff82116108f75760405192600591610f368185851b0186611461565b83855280850191865280862086925b858410610f5a576040518061083a8982611113565b604051838992845492610f6c84611652565b808252600194808616908115610fda5750600114610fa2575b50610f94816001960382611461565b815201920193019290610f45565b868d52838d2095508c905b808210610fc35750810183019450610f94610f85565b865483830186015295850195889490910190610fad565b7fffffffffffffffffffffffffffffffffffffffffffffffffffffffffffffff001685840152501515891b810183019450610f94610f85565b503461011e57807ffffffffffffffffffffffffffffffffffffffffffffffffffffffffffffffffc36011261011e57602047604051908152f35b503461011e57807ffffffffffffffffffffffffffffffffffffffffffffffffffffffffffffffffc36011261011e57602073ffffffffffffffffffffffffffffffffffffffff60035416604051908152f35b503461011e5760207ffffffffffffffffffffffffffffffffffffffffffffffffffffffffffffffffc36011261011e5760206110e16110dc6110eb565b6118df565b6040519015158152f35b6004359073ffffffffffffffffffffffffffffffffffffffff8216820361110e57565b600080fd5b6020808201818352835180915260408301918060408360051b860101950193600080915b848310611148575050505050505090565b909192939495967fffffffffffffffffffffffffffffffffffffffffffffffffffffffffffffffc0828203018752848851805190818452855b8281106111ce5750508083018201859052601f017fffffffffffffffffffffffffffffffffffffffffffffffffffffffffffffffe016909101810197810196019493926001019190611137565b818101840151858201850152889301611181565b9181601f8401121561110e5782359167ffffffffffffffff831161110e576020838186019501011161110e57565b9181601f8401121561110e5782359167ffffffffffffffff831161110e576020808501948460051b01011161110e57565b73ffffffffffffffffffffffffffffffffffffffff60015416330361126257565b60646040517f08c379a000000000000000000000000000000000000000000000000000000000815260206004820152602060248201527f4f776e61626c653a2063616c6c6572206973206e6f7420746865206f776e65726044820152fd5b156112c757565b60846040517f08c379a0000000000000000000000000000000000000000000000000000000008152602060048201526024808201527f596f7520617265206e6f74206120766572696669656420627573696e6573732060448201527f7965742e000000000000000000000000000000000000000000000000000000006064820152fd5b60026000541461135b576002600055565b60646040517f08c379a000000000000000000000000000000000000000000000000000000000815260206004820152601f60248201527f5265656e7472616e637947756172643a207265656e7472616e742063616c6c006044820152fd5b156113c057565b60646040517f08c379a000000000000000000000000000000000000000000000000000000000815260206004820152601f60248201527f5374616b657220646964206e6f74206465706f73697420455448207965742e006044820152fd5b67ffffffffffffffff811161143257604052565b7f4e487b7100000000000000000000000000000000000000000000000000000000600052604160045260246000fd5b90601f7fffffffffffffffffffffffffffffffffffffffffffffffffffffffffffffffe0910116810190811067ffffffffffffffff82111761143257604052565b601f82602094937fffffffffffffffffffffffffffffffffffffffffffffffffffffffffffffffe0938186528686013760008582860101520116010190565b9081602091031261110e5751801515810361110e5790565b9082818152602080910193818360051b82010194846000925b858410611523575050505050505090565b909192939495967fffffffffffffffffffffffffffffffffffffffffffffffffffffffffffffffe082820301845287357fffffffffffffffffffffffffffffffffffffffffffffffffffffffffffffffe18436030181121561110e57830186810191903567ffffffffffffffff811161110e57803603831361110e576115ae889283926001956114a2565b990194019401929594939190611512565b999897959391906115db9195939560a08c5260a08c01916114a2565b906020828b829403828d01528281520194916000805b83821061162a575050505050826116259492611617928a608098960360408c01526114f9565b9187830360608901526114f9565b930152565b9091929396873563ffffffff8116809103610eb15781528301968301939291600101906115f1565b90600182811c9216801561169b575b602083101461166c57565b7f4e487b7100000000000000000000000000000000000000000000000000000000600052602260045260246000fd5b91607f1691611661565b9182546801000000000000000081101561143257600192838201808655821015611880576000948552602091828620019467ffffffffffffffff8411611853576116ef8654611652565b601f811161180d575b508092601f8511600114611770575092939291849182611745575b50507fffffffffffffffffffffffffffffffffffffffffffffffffffffffffffffffff91921b9260031b1c1916179055565b013591507fffffffffffffffffffffffffffffffffffffffffffffffffffffffffffffffff38611713565b868252808220939185917fffffffffffffffffffffffffffffffffffffffffffffffffffffffffffffffe0831691905b888383106117f357505050106117bb575b505050811b019055565b7fffffffffffffffffffffffffffffffffffffffffffffffffffffffffffffffff60f88560031b161c199101351690553880806117b1565b8686013588559096019593840193879350908101906117a0565b868252838220601f860160051c810191858710611849575b601f0160051c019086905b82811061183e5750506116f8565b838155018690611830565b9091508190611825565b807f4e487b7100000000000000000000000000000000000000000000000000000000602492526041600452fd5b7f4e487b7100000000000000000000000000000000000000000000000000000000600052603260045260246000fd5b60409073ffffffffffffffffffffffffffffffffffffffff6118dc959316815281602082015201916114a2565b90565b602073ffffffffffffffffffffffffffffffffffffffff604481600254169360405194859384927f4d30b6be0000000000000000000000000000000000000000000000000000000084521660048301527faf369ce728c816785c72f1ff0222ca9553b2cb93729d6a803be6af0d2369239b60248301525afa80156119a05760009061196e575b60019150101590565b6020823d8211611998575b8161198660209383611461565b8101031261011e575060019051611965565b3d9150611979565b6040513d6000823e3d90fdfea2646970667358221220b4eb60da6e3150b56addc5d6040f47f1aee51c662d413f6875ce09123574a46364736f6c63430008110033",
    "linkReferences": {}
  },
  "methodIdentifiers": {
    "DEPOSIT_ADDRESS()": "ff0d2c26",
    "QUADRATA()": "e99f0c9b",
    "SSV_ADDRESS()": "80164859",
    "SSV_TOKEN()": "0df1ecfd",
    "createSSV(address,bytes,uint32[],bytes[],bytes[],uint256,bytes,bytes,bytes32)": "cee8ce84",
    "createSSVTest(address,bytes,uint32[],bytes[],bytes[],uint256)": "37538366",
    "depositIntoContract()": "4898858a",
    "depositIntoContractTest()": "e0f3f8e0",
    "getBalance()": "12065fe0",
    "getValidator(address)": "1904bb2e",
    "getValidatorSelf()": "946eadac",
    "is_BUSINESS()": "4d5a1c1f",
    "owner()": "8da5cb5b",
    "renounceOwnership()": "715018a6",
    "transferOwnership(address)": "f2fde38b",
    "verified(address)": "0db065f4"
  },
  "id": 16
}