{
  "abi": [
    {
      "inputs": [],
      "stateMutability": "nonpayable",
      "type": "constructor"
    },
    {
      "anonymous": false,
      "inputs": [
        {
          "indexed": true,
          "internalType": "address",
          "name": "account",
          "type": "address"
        },
        {
          "indexed": true,
          "internalType": "address",
          "name": "operator",
          "type": "address"
        },
        {
          "indexed": false,
          "internalType": "bool",
          "name": "approved",
          "type": "bool"
        }
      ],
      "name": "ApprovalForAll",
      "type": "event"
    },
    {
      "anonymous": false,
      "inputs": [
        {
          "indexed": true,
          "internalType": "address",
          "name": "previousOwner",
          "type": "address"
        },
        {
          "indexed": true,
          "internalType": "address",
          "name": "newOwner",
          "type": "address"
        }
      ],
      "name": "OwnershipTransferred",
      "type": "event"
    },
    {
      "anonymous": false,
      "inputs": [
        {
          "indexed": false,
          "internalType": "string",
          "name": "_value",
          "type": "string"
        },
        {
          "indexed": true,
          "internalType": "uint256",
          "name": "_id",
          "type": "uint256"
        }
      ],
      "name": "PermanentURI",
      "type": "event"
    },
    {
      "anonymous": false,
      "inputs": [
        {
          "indexed": false,
          "internalType": "bool",
          "name": "_value",
          "type": "bool"
        }
      ],
      "name": "SoloVaultClosed",
      "type": "event"
    },
    {
      "anonymous": false,
      "inputs": [
        {
          "indexed": false,
          "internalType": "uint256",
          "name": "_value",
          "type": "uint256"
        }
      ],
      "name": "SoloVaultLimitedNearlyReached",
      "type": "event"
    },
    {
      "anonymous": false,
      "inputs": [
        {
          "indexed": false,
          "internalType": "bool",
          "name": "_value",
          "type": "bool"
        }
      ],
      "name": "SoloVaultOpend",
      "type": "event"
    },
    {
      "anonymous": false,
      "inputs": [
        {
          "indexed": true,
          "internalType": "address",
          "name": "operator",
          "type": "address"
        },
        {
          "indexed": true,
          "internalType": "address",
          "name": "from",
          "type": "address"
        },
        {
          "indexed": true,
          "internalType": "address",
          "name": "to",
          "type": "address"
        },
        {
          "indexed": false,
          "internalType": "uint256[]",
          "name": "ids",
          "type": "uint256[]"
        },
        {
          "indexed": false,
          "internalType": "uint256[]",
          "name": "values",
          "type": "uint256[]"
        }
      ],
      "name": "TransferBatch",
      "type": "event"
    },
    {
      "anonymous": false,
      "inputs": [
        {
          "indexed": true,
          "internalType": "address",
          "name": "operator",
          "type": "address"
        },
        {
          "indexed": true,
          "internalType": "address",
          "name": "from",
          "type": "address"
        },
        {
          "indexed": true,
          "internalType": "address",
          "name": "to",
          "type": "address"
        },
        {
          "indexed": false,
          "internalType": "uint256",
          "name": "id",
          "type": "uint256"
        },
        {
          "indexed": false,
          "internalType": "uint256",
          "name": "value",
          "type": "uint256"
        }
      ],
      "name": "TransferSingle",
      "type": "event"
    },
    {
      "anonymous": false,
      "inputs": [
        {
          "indexed": false,
          "internalType": "string",
          "name": "value",
          "type": "string"
        },
        {
          "indexed": true,
          "internalType": "uint256",
          "name": "id",
          "type": "uint256"
        }
      ],
      "name": "URI",
      "type": "event"
    },
    {
      "anonymous": false,
      "inputs": [
        {
          "indexed": false,
          "internalType": "uint256",
          "name": "_tokenID",
          "type": "uint256"
        },
        {
          "indexed": false,
          "internalType": "address",
          "name": "_user",
          "type": "address"
        },
        {
          "indexed": false,
          "internalType": "uint256",
          "name": "_fee",
          "type": "uint256"
        },
        {
          "indexed": false,
          "internalType": "uint256",
          "name": "_stakedETH",
          "type": "uint256"
        }
      ],
      "name": "UserRequestedWithdrawal",
      "type": "event"
    },
    {
      "inputs": [],
      "name": "allowPubDeposit",
      "outputs": [
        {
          "internalType": "bool",
          "name": "",
          "type": "bool"
        }
      ],
      "stateMutability": "view",
      "type": "function"
    },
    {
      "inputs": [
        {
          "internalType": "address",
          "name": "account",
          "type": "address"
        },
        {
          "internalType": "uint256",
          "name": "id",
          "type": "uint256"
        }
      ],
      "name": "balanceOf",
      "outputs": [
        {
          "internalType": "uint256",
          "name": "",
          "type": "uint256"
        }
      ],
      "stateMutability": "view",
      "type": "function"
    },
    {
      "inputs": [
        {
          "internalType": "address[]",
          "name": "accounts",
          "type": "address[]"
        },
        {
          "internalType": "uint256[]",
          "name": "ids",
          "type": "uint256[]"
        }
      ],
      "name": "balanceOfBatch",
      "outputs": [
        {
          "internalType": "uint256[]",
          "name": "",
          "type": "uint256[]"
        }
      ],
      "stateMutability": "view",
      "type": "function"
    },
    {
      "inputs": [
        {
          "internalType": "uint256",
          "name": "_newLimit",
          "type": "uint256"
        }
      ],
      "name": "changeETHLimit",
      "outputs": [],
      "stateMutability": "nonpayable",
      "type": "function"
    },
    {
      "inputs": [],
      "name": "closeSoloVault",
      "outputs": [],
      "stateMutability": "nonpayable",
      "type": "function"
    },
    {
      "inputs": [],
      "name": "contractURI",
      "outputs": [
        {
          "internalType": "string",
          "name": "",
          "type": "string"
        }
      ],
      "stateMutability": "pure",
      "type": "function"
    },
    {
      "inputs": [],
      "name": "depositSoloVault",
      "outputs": [],
      "stateMutability": "payable",
      "type": "function"
    },
    {
      "inputs": [
        {
          "internalType": "uint256",
          "name": "id",
          "type": "uint256"
        }
      ],
      "name": "exists",
      "outputs": [
        {
          "internalType": "bool",
          "name": "",
          "type": "bool"
        }
      ],
      "stateMutability": "view",
      "type": "function"
    },
    {
      "inputs": [],
      "name": "getBalance",
      "outputs": [
        {
          "internalType": "uint256",
          "name": "",
          "type": "uint256"
        }
      ],
      "stateMutability": "view",
      "type": "function"
    },
    {
      "inputs": [
        {
          "internalType": "uint256",
          "name": "_tokenID",
          "type": "uint256"
        }
      ],
      "name": "getMetadata",
      "outputs": [
        {
          "components": [
            {
              "internalType": "uint256",
              "name": "stakedETH",
              "type": "uint256"
            },
            {
              "internalType": "uint256",
              "name": "stakedTimestamp",
              "type": "uint256"
            },
            {
              "internalType": "bool",
              "name": "institution",
              "type": "bool"
            },
            {
              "internalType": "bytes32",
              "name": "institutionName",
              "type": "bytes32"
            },
            {
              "internalType": "bool",
              "name": "institutionVerified",
              "type": "bool"
            }
          ],
          "internalType": "struct EthAllocatorSoloVault.Metadata",
          "name": "",
          "type": "tuple"
        },
        {
          "internalType": "address",
          "name": "",
          "type": "address"
        },
        {
          "internalType": "string",
          "name": "",
          "type": "string"
        }
      ],
      "stateMutability": "view",
      "type": "function"
    },
    {
      "inputs": [],
      "name": "getTokenID",
      "outputs": [
        {
          "internalType": "uint256",
          "name": "",
          "type": "uint256"
        }
      ],
      "stateMutability": "view",
      "type": "function"
    },
    {
      "inputs": [
        {
          "internalType": "address",
          "name": "account",
          "type": "address"
        },
        {
          "internalType": "address",
          "name": "operator",
          "type": "address"
        }
      ],
      "name": "isApprovedForAll",
      "outputs": [
        {
          "internalType": "bool",
          "name": "",
          "type": "bool"
        }
      ],
      "stateMutability": "view",
      "type": "function"
    },
    {
      "inputs": [],
      "name": "name",
      "outputs": [
        {
          "internalType": "string",
          "name": "",
          "type": "string"
        }
      ],
      "stateMutability": "view",
      "type": "function"
    },
    {
      "inputs": [],
      "name": "openSoloVault",
      "outputs": [],
      "stateMutability": "nonpayable",
      "type": "function"
    },
    {
      "inputs": [],
      "name": "owner",
      "outputs": [
        {
          "internalType": "address",
          "name": "",
          "type": "address"
        }
      ],
      "stateMutability": "view",
      "type": "function"
    },
    {
      "inputs": [],
      "name": "renounceOwnership",
      "outputs": [],
      "stateMutability": "nonpayable",
      "type": "function"
    },
    {
      "inputs": [
        {
          "internalType": "address",
          "name": "from",
          "type": "address"
        },
        {
          "internalType": "address",
          "name": "to",
          "type": "address"
        },
        {
          "internalType": "uint256[]",
          "name": "ids",
          "type": "uint256[]"
        },
        {
          "internalType": "uint256[]",
          "name": "amounts",
          "type": "uint256[]"
        },
        {
          "internalType": "bytes",
          "name": "data",
          "type": "bytes"
        }
      ],
      "name": "safeBatchTransferFrom",
      "outputs": [],
      "stateMutability": "nonpayable",
      "type": "function"
    },
    {
      "inputs": [
        {
          "internalType": "address",
          "name": "from",
          "type": "address"
        },
        {
          "internalType": "address",
          "name": "to",
          "type": "address"
        },
        {
          "internalType": "uint256",
          "name": "id",
          "type": "uint256"
        },
        {
          "internalType": "uint256",
          "name": "amount",
          "type": "uint256"
        },
        {
          "internalType": "bytes",
          "name": "data",
          "type": "bytes"
        }
      ],
      "name": "safeTransferFrom",
      "outputs": [],
      "stateMutability": "nonpayable",
      "type": "function"
    },
    {
      "inputs": [
        {
          "internalType": "address",
          "name": "operator",
          "type": "address"
        },
        {
          "internalType": "bool",
          "name": "approved",
          "type": "bool"
        }
      ],
      "name": "setApprovalForAll",
      "outputs": [],
      "stateMutability": "nonpayable",
      "type": "function"
    },
    {
      "inputs": [
        {
          "internalType": "uint256",
          "name": "_amount",
          "type": "uint256"
        }
      ],
      "name": "setWithdrawFee",
      "outputs": [],
      "stateMutability": "nonpayable",
      "type": "function"
    },
    {
      "inputs": [
        {
          "internalType": "bytes4",
          "name": "interfaceId",
          "type": "bytes4"
        }
      ],
      "name": "supportsInterface",
      "outputs": [
        {
          "internalType": "bool",
          "name": "",
          "type": "bool"
        }
      ],
      "stateMutability": "view",
      "type": "function"
    },
    {
      "inputs": [],
      "name": "symbol",
      "outputs": [
        {
          "internalType": "string",
          "name": "",
          "type": "string"
        }
      ],
      "stateMutability": "view",
      "type": "function"
    },
    {
      "inputs": [
        {
          "internalType": "uint256",
          "name": "",
          "type": "uint256"
        }
      ],
      "name": "tokenIDtoValidator",
      "outputs": [
        {
          "internalType": "string",
          "name": "",
          "type": "string"
        }
      ],
      "stateMutability": "view",
      "type": "function"
    },
    {
      "inputs": [
        {
          "internalType": "uint256",
          "name": "_tokenId",
          "type": "uint256"
        }
      ],
      "name": "tokenURI",
      "outputs": [
        {
          "internalType": "string",
          "name": "",
          "type": "string"
        }
      ],
      "stateMutability": "pure",
      "type": "function"
    },
    {
      "inputs": [],
      "name": "totalSupply",
      "outputs": [
        {
          "internalType": "uint256",
          "name": "",
          "type": "uint256"
        }
      ],
      "stateMutability": "view",
      "type": "function"
    },
    {
      "inputs": [
        {
          "internalType": "uint256",
          "name": "id",
          "type": "uint256"
        }
      ],
      "name": "totalSupply",
      "outputs": [
        {
          "internalType": "uint256",
          "name": "",
          "type": "uint256"
        }
      ],
      "stateMutability": "view",
      "type": "function"
    },
    {
      "inputs": [
        {
          "internalType": "address",
          "name": "newOwner",
          "type": "address"
        }
      ],
      "name": "transferOwnership",
      "outputs": [],
      "stateMutability": "nonpayable",
      "type": "function"
    },
    {
      "inputs": [
        {
          "internalType": "uint256",
          "name": "_tokenID",
          "type": "uint256"
        },
        {
          "internalType": "string",
          "name": "_vali",
          "type": "string"
        }
      ],
      "name": "updateValidator",
      "outputs": [],
      "stateMutability": "nonpayable",
      "type": "function"
    },
    {
      "inputs": [
        {
          "internalType": "uint256",
          "name": "",
          "type": "uint256"
        }
      ],
      "name": "uri",
      "outputs": [
        {
          "internalType": "string",
          "name": "",
          "type": "string"
        }
      ],
      "stateMutability": "view",
      "type": "function"
    },
    {
      "inputs": [
        {
          "internalType": "uint256",
          "name": "_tokenID",
          "type": "uint256"
        }
      ],
      "name": "userRequestWithdraw",
      "outputs": [
        {
          "internalType": "uint256",
          "name": "_amount",
          "type": "uint256"
        }
      ],
      "stateMutability": "nonpayable",
      "type": "function"
    },
    {
      "inputs": [
        {
          "internalType": "uint256",
          "name": "_amount",
          "type": "uint256"
        }
      ],
      "name": "withdraw",
      "outputs": [
        {
          "internalType": "bool",
          "name": "",
          "type": "bool"
        }
      ],
      "stateMutability": "nonpayable",
      "type": "function"
    },
    {
      "inputs": [],
      "name": "withdrawBatch",
      "outputs": [
        {
          "internalType": "uint256",
          "name": "",
          "type": "uint256"
        }
      ],
      "stateMutability": "nonpayable",
      "type": "function"
    }
  ],
  "bytecode": {
    "object": "0x60c0604052601760809081527f426c6f636b736361706520536f6c6f205374616b696e6700000000000000000060a0526006906200003e9082620001e0565b50604080518082019091526009815268424c435320534f4c4f60b81b60208201526007906200006e9082620001e0565b506801158e460913d0000060085567f43fc2c04ee000006009556000600b553480156200009a57600080fd5b506040518060a00160405280606d8152602001620039a0606d9139620000c081620000d7565b506001600455620000d133620000e9565b620002ac565b6002620000e58282620001e0565b5050565b600580546001600160a01b038381166001600160a01b0319831681179093556040519116919082907f8be0079c531659141344cd1fd0a4f28419497f9722a3daafe3b4186f6b6457e090600090a35050565b634e487b7160e01b600052604160045260246000fd5b600181811c908216806200016657607f821691505b6020821081036200018757634e487b7160e01b600052602260045260246000fd5b50919050565b601f821115620001db57600081815260208120601f850160051c81016020861015620001b65750805b601f850160051c820191505b81811015620001d757828155600101620001c2565b5050505b505050565b81516001600160401b03811115620001fc57620001fc6200013b565b62000214816200020d845462000151565b846200018d565b602080601f8311600181146200024c5760008415620002335750858301515b600019600386901b1c1916600185901b178555620001d7565b600085815260208120601f198616915b828110156200027d578886015182559484019460019091019084016200025c565b50858210156200029c5787850151600019600388901b60f8161c191681555b5050505050600190811b01905550565b6136e480620002bc6000396000f3fe6080604052600436106101e25760003560e01c80638da5cb5b11610102578063c87b56dd11610095578063f242432a11610064578063f242432a146105a4578063f2fde38b146105c4578063f6b21af2146105e4578063f9d7afd7146105f957600080fd5b8063c87b56dd14610511578063ccae8a8d14610531578063e8a3d48514610539578063e985e9c51461054e57600080fd5b8063a574cea4116100d1578063a574cea414610475578063b1251026146104a4578063b6ac642a146104c4578063bd85b039146104e457600080fd5b80638da5cb5b146103f157806395d89b4114610426578063a22cb4651461043b578063a4e0db7e1461045b57600080fd5b80632eb2c2d61161017a5780636ba367a3116101495780636ba367a3146103875780636ea5ba1a1461039c578063715018a6146103bc57806382586105146103d157600080fd5b80632eb2c2d6146102f65780634e1273f4146103165780634f558e791461034357806363b613f21461037257600080fd5b806312065fe0116101b657806312065fe01461028c57806318160ddd1461029f578063209a5cb6146102b45780632e1a7d4d146102d657600080fd5b8062fdd58e146101e757806301ffc9a71461021a57806306fdde031461024a5780630e89341c1461026c575b600080fd5b3480156101f357600080fd5b50610207610202366004612a9e565b61060e565b6040519081526020015b60405180910390f35b34801561022657600080fd5b5061023a610235366004612af6565b6106ee565b6040519015158152602001610211565b34801561025657600080fd5b5061025f6107d1565b6040516102119190612b88565b34801561027857600080fd5b5061025f610287366004612b9b565b61085f565b34801561029857600080fd5b5047610207565b3480156102ab57600080fd5b506102076108f3565b3480156102c057600080fd5b506102d46102cf366004612caa565b610a0a565b005b3480156102e257600080fd5b5061023a6102f1366004612b9b565b610b6f565b34801561030257600080fd5b506102d4610311366004612dba565b610bd8565b34801561032257600080fd5b50610336610331366004612e64565b610ca1565b6040516102119190612f60565b34801561034f57600080fd5b5061023a61035e366004612b9b565b600090815260036020526040902054151590565b34801561037e57600080fd5b506102d4610df9565b34801561039357600080fd5b50600b54610207565b3480156103a857600080fd5b506102076103b7366004612b9b565b610e60565b3480156103c857600080fd5b506102d4610f5f565b3480156103dd57600080fd5b5061025f6103ec366004612b9b565b610f73565b3480156103fd57600080fd5b5060055460405173ffffffffffffffffffffffffffffffffffffffff9091168152602001610211565b34801561043257600080fd5b5061025f610f8c565b34801561044757600080fd5b506102d4610456366004612f73565b610f99565b34801561046757600080fd5b50600a5461023a9060ff1681565b34801561048157600080fd5b50610495610490366004612b9b565b610fa8565b60405161021193929190612faf565b3480156104b057600080fd5b506102d46104bf366004612b9b565b6110ea565b3480156104d057600080fd5b506102d46104df366004612b9b565b6110f7565b3480156104f057600080fd5b506102076104ff366004612b9b565b60009081526003602052604090205490565b34801561051d57600080fd5b5061025f61052c366004612b9b565b611117565b6102d4611148565b34801561054557600080fd5b5061025f6112b5565b34801561055a57600080fd5b5061023a61056936600461301a565b73ffffffffffffffffffffffffffffffffffffffff918216600090815260016020908152604080832093909416825291909152205460ff1690565b3480156105b057600080fd5b506102d46105bf36600461304d565b6112d5565b3480156105d057600080fd5b506102d46105df3660046130b2565b611397565b3480156105f057600080fd5b5061020761144e565b34801561060557600080fd5b506102d4611597565b600073ffffffffffffffffffffffffffffffffffffffff83166106b8576040517f08c379a000000000000000000000000000000000000000000000000000000000815260206004820152602a60248201527f455243313135353a2061646472657373207a65726f206973206e6f742061207660448201527f616c6964206f776e65720000000000000000000000000000000000000000000060648201526084015b60405180910390fd5b5060008181526020818152604080832073ffffffffffffffffffffffffffffffffffffffff861684529091529020545b92915050565b60007fffffffff0000000000000000000000000000000000000000000000000000000082167fd9b67a2600000000000000000000000000000000000000000000000000000000148061078157507fffffffff0000000000000000000000000000000000000000000000000000000082167f0e89341c00000000000000000000000000000000000000000000000000000000145b806106e857507f01ffc9a7000000000000000000000000000000000000000000000000000000007fffffffff000000000000000000000000000000000000000000000000000000008316146106e8565b600680546107de906130cd565b80601f016020809104026020016040519081016040528092919081815260200182805461080a906130cd565b80156108575780601f1061082c57610100808354040283529160200191610857565b820191906000526020600020905b81548152906001019060200180831161083a57829003601f168201915b505050505081565b60606002805461086e906130cd565b80601f016020809104026020016040519081016040528092919081815260200182805461089a906130cd565b80156108e75780601f106108bc576101008083540402835291602001916108e7565b820191906000526020600020905b8154815290600101906020018083116108ca57829003601f168201915b50505050509050919050565b600080805b3073ffffffffffffffffffffffffffffffffffffffff16636ba367a36040518163ffffffff1660e01b8152600401602060405180830381865afa158015610943573d6000803e3d6000fd5b505050506040513d601f19601f82011682018060405250810190610967919061311a565b8111610a04576040517fbd85b03900000000000000000000000000000000000000000000000000000000815260048101829052309063bd85b03990602401602060405180830381865afa1580156109c2573d6000803e3d6000fd5b505050506040513d601f19601f820116820180604052508101906109e6919061311a565b6109f09083613162565b9150806109fc81613175565b9150506108f8565b50919050565b610a1261166a565b610aec6040518060400160405280600481526020017f3078303000000000000000000000000000000000000000000000000000000000815250600e60008581526020019081526020016000208054610a69906130cd565b80601f0160208091040260200160405190810160405280929190818152602001828054610a95906130cd565b8015610ae25780601f10610ab757610100808354040283529160200191610ae2565b820191906000526020600020905b815481529060010190602001808311610ac557829003601f168201915b50505050506116eb565b610b52576040517f08c379a000000000000000000000000000000000000000000000000000000000815260206004820152601860248201527f56616c696461746f7220697320616c726561647920736574000000000000000060448201526064016106af565b6000828152600e60205260409020610b6a82826131f3565b505050565b6000610b7961166a565b47821115610b8657600080fd5b60055460405173ffffffffffffffffffffffffffffffffffffffff9091169083156108fc029084906000818181858888f19350505050158015610bcd573d6000803e3d6000fd5b50600190505b919050565b73ffffffffffffffffffffffffffffffffffffffff8516331480610c015750610c018533610569565b610c8d576040517f08c379a000000000000000000000000000000000000000000000000000000000815260206004820152602e60248201527f455243313135353a2063616c6c6572206973206e6f7420746f6b656e206f776e60448201527f6572206f7220617070726f76656400000000000000000000000000000000000060648201526084016106af565b610c9a8585858585611744565b5050505050565b60608151835114610d34576040517f08c379a000000000000000000000000000000000000000000000000000000000815260206004820152602960248201527f455243313135353a206163636f756e747320616e6420696473206c656e67746860448201527f206d69736d61746368000000000000000000000000000000000000000000000060648201526084016106af565b6000835167ffffffffffffffff811115610d5057610d50612bb4565b604051908082528060200260200182016040528015610d79578160200160208202803683370190505b50905060005b8451811015610df157610dc4858281518110610d9d57610d9d61330d565b6020026020010151858381518110610db757610db761330d565b602002602001015161060e565b828281518110610dd657610dd661330d565b6020908102919091010152610dea81613175565b9050610d7f565b509392505050565b610e0161166a565b600a80547fffffffffffffffffffffffffffffffffffffffffffffffffffffffffffffff00169055604051600081527fa30f924b0cb263d859ba97e2a10eb193cb74b1758ef3364ef2f26d51e7d0da5d906020015b60405180910390a1565b6008546000828152600d60205260408120549091903373ffffffffffffffffffffffffffffffffffffffff909116036106e85760006301e13380600854610ea7919061333c565b6000858152600c602052604081206001015491925090610ec79042613377565b90506301d52bd08110610ee4576706f05b59d3b200009250610f57565b610eee818361338a565b600854610efb9190613377565b6000868152600c60209081526040918290205482518981523392810192909252818301849052606082015290519194507f57e8bc4c74baca16ab16c5cc83fa0bc416b230ea2a49969e56a6fe1b5ea5a863919081900360800190a15b505092915050565b610f6761166a565b610f716000611a8c565b565b600e60205260009081526040902080546107de906130cd565b600780546107de906130cd565b610fa4338383611b03565b5050565b6040805160a080820183526000808352602080840182905283850182905260608085018390526080808601849052878452600c8352868420600d845287852054600e855288862089519788018a5282548852600183015495880195909552600282015460ff90811615159988019990995260038201548785015260049091015490971615159085015281549495929490939273ffffffffffffffffffffffffffffffffffffffff169190819061105d906130cd565b80601f0160208091040260200160405190810160405280929190818152602001828054611089906130cd565b80156110d65780601f106110ab576101008083540402835291602001916110d6565b820191906000526020600020905b8154815290600101906020018083116110b957829003601f168201915b505050505090509250925092509193909250565b6110f261166a565b600955565b6110ff61166a565b61111181670de0b6b3a764000061338a565b60085550565b606061112282611c56565b60405160200161113291906133a1565b6040516020818303038152906040529050919050565b611150611d14565b600a5460ff1615156001146111e7576040517f08c379a000000000000000000000000000000000000000000000000000000000815260206004820152603d60248201527f536f6c6f207661756c742069732063757272656e746c7920636c6f7365642e2060448201527f506c65617365207761697420666f7220746865206e657874206f6e652e00000060648201526084016106af565b6009543414611278576040517f08c379a000000000000000000000000000000000000000000000000000000000815260206004820152603d60248201527f596f75206e65656420746f206465706f7369742074686520657861637420616d60448201527f6f756e74206f662045544820666f7220536f6c6f205374616b696e672e00000060648201526084016106af565b6112853433600b54611d87565b60095447036112ab57600b805490600061129e83613175565b91905055506112ab610e01565b610f716001600455565b606060405180608001604052806053815260200161365c60539139905090565b73ffffffffffffffffffffffffffffffffffffffff85163314806112fe57506112fe8533610569565b61138a576040517f08c379a000000000000000000000000000000000000000000000000000000000815260206004820152602e60248201527f455243313135353a2063616c6c6572206973206e6f7420746f6b656e206f776e60448201527f6572206f7220617070726f76656400000000000000000000000000000000000060648201526084016106af565b610c9a8585858585611f88565b61139f61166a565b73ffffffffffffffffffffffffffffffffffffffff8116611442576040517f08c379a000000000000000000000000000000000000000000000000000000000815260206004820152602660248201527f4f776e61626c653a206e6577206f776e657220697320746865207a65726f206160448201527f646472657373000000000000000000000000000000000000000000000000000060648201526084016106af565b61144b81611a8c565b50565b600061145861166a565b600a5460ff16156114c5576040517f08c379a000000000000000000000000000000000000000000000000000000000815260206004820152601e60248201527f4465706f736974206c696d6974206e6f742072656163686564207965742e000060448201526064016106af565b6009544714611530576040517f08c379a000000000000000000000000000000000000000000000000000000000815260206004820152600d60248201527f506f6f6c206e6f742066756c6c0000000000000000000000000000000000000060448201526064016106af565b60055460095460405173ffffffffffffffffffffffffffffffffffffffff9092169181156108fc0291906000818181858888f19350505050158015611579573d6000803e3d6000fd5b5061158261159f565b6001600b546115919190613377565b90505b90565b61159f61166a565b600a5460ff161561160c576040517f08c379a000000000000000000000000000000000000000000000000000000000815260206004820152601760248201527f536f6c6f207661756c7420616c7265616479206f70656e00000000000000000060448201526064016106af565b600a80547fffffffffffffffffffffffffffffffffffffffffffffffffffffffffffffff001660019081179091556040519081527f95a0c01e659fc70a9b3d264c31e45781f030d66ee28173aad5b93c92f14f36dd90602001610e56565b60055473ffffffffffffffffffffffffffffffffffffffff163314610f71576040517f08c379a000000000000000000000000000000000000000000000000000000000815260206004820181905260248201527f4f776e61626c653a2063616c6c6572206973206e6f7420746865206f776e657260448201526064016106af565b6000816040516020016116fe919061347f565b6040516020818303038152906040528051906020012083604051602001611725919061347f565b6040516020818303038152906040528051906020012014905092915050565b81518351146117d5576040517f08c379a000000000000000000000000000000000000000000000000000000000815260206004820152602860248201527f455243313135353a2069647320616e6420616d6f756e7473206c656e6774682060448201527f6d69736d6174636800000000000000000000000000000000000000000000000060648201526084016106af565b73ffffffffffffffffffffffffffffffffffffffff8416611878576040517f08c379a000000000000000000000000000000000000000000000000000000000815260206004820152602560248201527f455243313135353a207472616e7366657220746f20746865207a65726f20616460448201527f647265737300000000000000000000000000000000000000000000000000000060648201526084016106af565b336118878187878787876121d4565b60005b84518110156119f75760008582815181106118a7576118a761330d565b6020026020010151905060008583815181106118c5576118c561330d565b6020908102919091018101516000848152808352604080822073ffffffffffffffffffffffffffffffffffffffff8e168352909352919091205490915081811015611992576040517f08c379a000000000000000000000000000000000000000000000000000000000815260206004820152602a60248201527f455243313135353a20696e73756666696369656e742062616c616e636520666f60448201527f72207472616e736665720000000000000000000000000000000000000000000060648201526084016106af565b60008381526020818152604080832073ffffffffffffffffffffffffffffffffffffffff8e8116855292528083208585039055908b168252812080548492906119dc908490613162565b92505081905550505050806119f090613175565b905061188a565b508473ffffffffffffffffffffffffffffffffffffffff168673ffffffffffffffffffffffffffffffffffffffff168273ffffffffffffffffffffffffffffffffffffffff167f4a39dc06d4c0dbc64b70af90fd698a233a518aa5d07e595d983b8c0526c8f7fb8787604051611a6e92919061349b565b60405180910390a4611a8481878787878761239f565b505050505050565b6005805473ffffffffffffffffffffffffffffffffffffffff8381167fffffffffffffffffffffffff0000000000000000000000000000000000000000831681179093556040519116919082907f8be0079c531659141344cd1fd0a4f28419497f9722a3daafe3b4186f6b6457e090600090a35050565b8173ffffffffffffffffffffffffffffffffffffffff168373ffffffffffffffffffffffffffffffffffffffff1603611bbe576040517f08c379a000000000000000000000000000000000000000000000000000000000815260206004820152602960248201527f455243313135353a2073657474696e6720617070726f76616c2073746174757360448201527f20666f722073656c66000000000000000000000000000000000000000000000060648201526084016106af565b73ffffffffffffffffffffffffffffffffffffffff83811660008181526001602090815260408083209487168084529482529182902080547fffffffffffffffffffffffffffffffffffffffffffffffffffffffffffffff001686151590811790915591519182527f17307eab39ab6107e8899845ad3d59bd9653f200f220920489ca2b5937696c31910160405180910390a3505050565b60606000611c6383612629565b600101905060008167ffffffffffffffff811115611c8357611c83612bb4565b6040519080825280601f01601f191660200182016040528015611cad576020820181803683370190505b5090508181016020015b7fffffffffffffffffffffffffffffffffffffffffffffffffffffffffffffffff017f3031323334353637383961626364656600000000000000000000000000000000600a86061a8153600a8504945084611cb757509392505050565b600260045403611d80576040517f08c379a000000000000000000000000000000000000000000000000000000000815260206004820152601f60248201527f5265656e7472616e637947756172643a207265656e7472616e742063616c6c0060448201526064016106af565b6002600455565b6040805160a081018252600060208083018290528284018290526060830182905260808301829052868352848252600d815283822080547fffffffffffffffffffffffff00000000000000000000000000000000000000001673ffffffffffffffffffffffffffffffffffffffff881617905583518085018552600481527f307830300000000000000000000000000000000000000000000000000000000081830152858352600e9091529290209091611e4190826131f3565b504260208201528051611eb0576040517f08c379a000000000000000000000000000000000000000000000000000000000815260206004820152601460248201527f706c65617365206465706f73697420657468657200000000000000000000000060448201526064016106af565b611ecc338360016040518060200160405280600081525061270b565b6000828152600c602090815260409182902083518155908301516001820155908201516002820180549115157fffffffffffffffffffffffffffffffffffffffffffffffffffffffffffffff009283161790556060830151600383015560808301516004909201805492151592909116919091179055817fa109ba539900bf1b633f956d63c96fc89b814c7287f7aa50a9216d0b55657207611f6d8261085f565b604051611f7a9190612b88565b60405180910390a250505050565b73ffffffffffffffffffffffffffffffffffffffff841661202b576040517f08c379a000000000000000000000000000000000000000000000000000000000815260206004820152602560248201527f455243313135353a207472616e7366657220746f20746865207a65726f20616460448201527f647265737300000000000000000000000000000000000000000000000000000060648201526084016106af565b33600061203785612882565b9050600061204485612882565b90506120548389898585896121d4565b60008681526020818152604080832073ffffffffffffffffffffffffffffffffffffffff8c16845290915290205485811015612112576040517f08c379a000000000000000000000000000000000000000000000000000000000815260206004820152602a60248201527f455243313135353a20696e73756666696369656e742062616c616e636520666f60448201527f72207472616e736665720000000000000000000000000000000000000000000060648201526084016106af565b60008781526020818152604080832073ffffffffffffffffffffffffffffffffffffffff8d8116855292528083208985039055908a1682528120805488929061215c908490613162565b9091555050604080518881526020810188905273ffffffffffffffffffffffffffffffffffffffff808b16928c821692918816917fc3d58168c5ae7397731d063d5bbf3d657854427343f4c083240f7aacaa2d0f62910160405180910390a46121c9848a8a8a8a8a6128cd565b505050505050505050565b73ffffffffffffffffffffffffffffffffffffffff85166122685760005b83518110156122665782818151811061220d5761220d61330d565b60200260200101516003600086848151811061222b5761222b61330d565b6020026020010151815260200190815260200160002060008282546122509190613162565b9091555061225f905081613175565b90506121f2565b505b73ffffffffffffffffffffffffffffffffffffffff8416611a845760005b83518110156123965760008482815181106122a3576122a361330d565b6020026020010151905060008483815181106122c1576122c161330d565b6020026020010151905060006003600084815260200190815260200160002054905081811015612373576040517f08c379a000000000000000000000000000000000000000000000000000000000815260206004820152602860248201527f455243313135353a206275726e20616d6f756e74206578636565647320746f7460448201527f616c537570706c7900000000000000000000000000000000000000000000000060648201526084016106af565b6000928352600360205260409092209103905561238f81613175565b9050612286565b50505050505050565b73ffffffffffffffffffffffffffffffffffffffff84163b15611a84576040517fbc197c8100000000000000000000000000000000000000000000000000000000815273ffffffffffffffffffffffffffffffffffffffff85169063bc197c819061241690899089908890889088906004016134c0565b6020604051808303816000875af192505050801561246f575060408051601f3d9081017fffffffffffffffffffffffffffffffffffffffffffffffffffffffffffffffe016820190925261246c9181019061352b565b60015b6125585761247b613548565b806308c379a0036124ce575061248f613563565b8061249a57506124d0565b806040517f08c379a00000000000000000000000000000000000000000000000000000000081526004016106af9190612b88565b505b6040517f08c379a000000000000000000000000000000000000000000000000000000000815260206004820152603460248201527f455243313135353a207472616e7366657220746f206e6f6e2d4552433131353560448201527f526563656976657220696d706c656d656e74657200000000000000000000000060648201526084016106af565b7fffffffff0000000000000000000000000000000000000000000000000000000081167fbc197c810000000000000000000000000000000000000000000000000000000014612396576040517f08c379a000000000000000000000000000000000000000000000000000000000815260206004820152602860248201527f455243313135353a204552433131353552656365697665722072656a6563746560448201527f6420746f6b656e7300000000000000000000000000000000000000000000000060648201526084016106af565b6000807a184f03e93ff9f4daa797ed6e38ed64bf6a1f0100000000000000008310612672577a184f03e93ff9f4daa797ed6e38ed64bf6a1f010000000000000000830492506040015b6d04ee2d6d415b85acef8100000000831061269e576d04ee2d6d415b85acef8100000000830492506020015b662386f26fc1000083106126bc57662386f26fc10000830492506010015b6305f5e10083106126d4576305f5e100830492506008015b61271083106126e857612710830492506004015b606483106126fa576064830492506002015b600a83106106e85760010192915050565b73ffffffffffffffffffffffffffffffffffffffff84166127ae576040517f08c379a000000000000000000000000000000000000000000000000000000000815260206004820152602160248201527f455243313135353a206d696e7420746f20746865207a65726f2061646472657360448201527f730000000000000000000000000000000000000000000000000000000000000060648201526084016106af565b3360006127ba85612882565b905060006127c785612882565b90506127d8836000898585896121d4565b60008681526020818152604080832073ffffffffffffffffffffffffffffffffffffffff8b16845290915281208054879290612815908490613162565b9091555050604080518781526020810187905273ffffffffffffffffffffffffffffffffffffffff808a1692600092918716917fc3d58168c5ae7397731d063d5bbf3d657854427343f4c083240f7aacaa2d0f62910160405180910390a4612396836000898989896128cd565b604080516001808252818301909252606091600091906020808301908036833701905050905082816000815181106128bc576128bc61330d565b602090810291909101015292915050565b73ffffffffffffffffffffffffffffffffffffffff84163b15611a84576040517ff23a6e6100000000000000000000000000000000000000000000000000000000815273ffffffffffffffffffffffffffffffffffffffff85169063f23a6e6190612944908990899088908890889060040161360b565b6020604051808303816000875af192505050801561299d575060408051601f3d9081017fffffffffffffffffffffffffffffffffffffffffffffffffffffffffffffffe016820190925261299a9181019061352b565b60015b6129a95761247b613548565b7fffffffff0000000000000000000000000000000000000000000000000000000081167ff23a6e610000000000000000000000000000000000000000000000000000000014612396576040517f08c379a000000000000000000000000000000000000000000000000000000000815260206004820152602860248201527f455243313135353a204552433131353552656365697665722072656a6563746560448201527f6420746f6b656e7300000000000000000000000000000000000000000000000060648201526084016106af565b803573ffffffffffffffffffffffffffffffffffffffff81168114610bd357600080fd5b60008060408385031215612ab157600080fd5b612aba83612a7a565b946020939093013593505050565b7fffffffff000000000000000000000000000000000000000000000000000000008116811461144b57600080fd5b600060208284031215612b0857600080fd5b8135612b1381612ac8565b9392505050565b60005b83811015612b35578181015183820152602001612b1d565b50506000910152565b60008151808452612b56816020860160208601612b1a565b601f017fffffffffffffffffffffffffffffffffffffffffffffffffffffffffffffffe0169290920160200192915050565b602081526000612b136020830184612b3e565b600060208284031215612bad57600080fd5b5035919050565b7f4e487b7100000000000000000000000000000000000000000000000000000000600052604160045260246000fd5b7fffffffffffffffffffffffffffffffffffffffffffffffffffffffffffffffe0601f830116810181811067ffffffffffffffff82111715612c2757612c27612bb4565b6040525050565b600067ffffffffffffffff831115612c4857612c48612bb4565b604051612c7d60207fffffffffffffffffffffffffffffffffffffffffffffffffffffffffffffffe0601f8701160182612be3565b809150838152848484011115612c9257600080fd5b83836020830137600060208583010152509392505050565b60008060408385031215612cbd57600080fd5b82359150602083013567ffffffffffffffff811115612cdb57600080fd5b8301601f81018513612cec57600080fd5b612cfb85823560208401612c2e565b9150509250929050565b600067ffffffffffffffff821115612d1f57612d1f612bb4565b5060051b60200190565b600082601f830112612d3a57600080fd5b81356020612d4782612d05565b604051612d548282612be3565b83815260059390931b8501820192828101915086841115612d7457600080fd5b8286015b84811015612d8f5780358352918301918301612d78565b509695505050505050565b600082601f830112612dab57600080fd5b612b1383833560208501612c2e565b600080600080600060a08688031215612dd257600080fd5b612ddb86612a7a565b9450612de960208701612a7a565b9350604086013567ffffffffffffffff80821115612e0657600080fd5b612e1289838a01612d29565b94506060880135915080821115612e2857600080fd5b612e3489838a01612d29565b93506080880135915080821115612e4a57600080fd5b50612e5788828901612d9a565b9150509295509295909350565b60008060408385031215612e7757600080fd5b823567ffffffffffffffff80821115612e8f57600080fd5b818501915085601f830112612ea357600080fd5b81356020612eb082612d05565b604051612ebd8282612be3565b83815260059390931b8501820192828101915089841115612edd57600080fd5b948201945b83861015612f0257612ef386612a7a565b82529482019490820190612ee2565b96505086013592505080821115612f1857600080fd5b50612cfb85828601612d29565b600081518084526020808501945080840160005b83811015612f5557815187529582019590820190600101612f39565b509495945050505050565b602081526000612b136020830184612f25565b60008060408385031215612f8657600080fd5b612f8f83612a7a565b915060208301358015158114612fa457600080fd5b809150509250929050565b83518152602084015160208201526040840151151560408201526060840151606082015260808401511515608082015273ffffffffffffffffffffffffffffffffffffffff831660a082015260e060c0820152600061301160e0830184612b3e565b95945050505050565b6000806040838503121561302d57600080fd5b61303683612a7a565b915061304460208401612a7a565b90509250929050565b600080600080600060a0868803121561306557600080fd5b61306e86612a7a565b945061307c60208701612a7a565b93506040860135925060608601359150608086013567ffffffffffffffff8111156130a657600080fd5b612e5788828901612d9a565b6000602082840312156130c457600080fd5b612b1382612a7a565b600181811c908216806130e157607f821691505b602082108103610a04577f4e487b7100000000000000000000000000000000000000000000000000000000600052602260045260246000fd5b60006020828403121561312c57600080fd5b5051919050565b7f4e487b7100000000000000000000000000000000000000000000000000000000600052601160045260246000fd5b808201808211156106e8576106e8613133565b60007fffffffffffffffffffffffffffffffffffffffffffffffffffffffffffffffff82036131a6576131a6613133565b5060010190565b601f821115610b6a57600081815260208120601f850160051c810160208610156131d45750805b601f850160051c820191505b81811015611a84578281556001016131e0565b815167ffffffffffffffff81111561320d5761320d612bb4565b6132218161321b84546130cd565b846131ad565b602080601f831160018114613274576000841561323e5750858301515b7fffffffffffffffffffffffffffffffffffffffffffffffffffffffffffffffff600386901b1c1916600185901b178555611a84565b6000858152602081207fffffffffffffffffffffffffffffffffffffffffffffffffffffffffffffffe08616915b828110156132c1578886015182559484019460019091019084016132a2565b50858210156132fd57878501517fffffffffffffffffffffffffffffffffffffffffffffffffffffffffffffffff600388901b60f8161c191681555b5050505050600190811b01905550565b7f4e487b7100000000000000000000000000000000000000000000000000000000600052603260045260246000fd5b600082613372577f4e487b7100000000000000000000000000000000000000000000000000000000600052601260045260246000fd5b500490565b818103818111156106e8576106e8613133565b80820281158282048414176106e8576106e8613133565b7f68747470733a2f2f697066732e626c6f636b73636170652e6e6574776f726b2f81527f69706e732f6b3531717a6935757175356469766b66613276787532693731796860208201527f6a336b36726d36626776676e64347130306834663830636234696d736739757960408201527f32396c2f0000000000000000000000000000000000000000000000000000000060608201526000825161344b816064850160208701612b1a565b7f2e6a736f6e0000000000000000000000000000000000000000000000000000006064939091019283015250606901919050565b60008251613491818460208701612b1a565b9190910192915050565b6040815260006134ae6040830185612f25565b82810360208401526130118185612f25565b600073ffffffffffffffffffffffffffffffffffffffff808816835280871660208401525060a060408301526134f960a0830186612f25565b828103606084015261350b8186612f25565b9050828103608084015261351f8185612b3e565b98975050505050505050565b60006020828403121561353d57600080fd5b8151612b1381612ac8565b600060033d11156115945760046000803e5060005160e01c90565b600060443d10156135715790565b6040517ffffffffffffffffffffffffffffffffffffffffffffffffffffffffffffffffc803d016004833e81513d67ffffffffffffffff81602484011181841117156135bf57505050505090565b82850191508151818111156135d75750505050505090565b843d87010160208285010111156135f15750505050505090565b61360060208286010187612be3565b509095945050505050565b600073ffffffffffffffffffffffffffffffffffffffff808816835280871660208401525084604083015283606083015260a0608083015261365060a0830184612b3e565b97965050505050505056fe68747470733a2f2f697066732e626c6f636b73636170652e6e6574776f726b2f697066732f516d5052446a5367336964785445384254533337756d446d545a324c5a62337833344c5642514d79616a396e5679a264697066735822122001a901a4dc75917209bd6e084eade5bb60505464d2ce2d7f972e2f671cf0b5b064736f6c6343000811003368747470733a2f2f697066732e626c6f636b73636170652e6e6574776f726b2f69706e732f6b3531717a6935757175356469766b6661327678753269373179686a336b36726d36626776676e64347130306834663830636234696d736739757932396c2f7b69647d2e6a736f6e",
    "linkReferences": {}
  },
  "methodIdentifiers": {
    "allowPubDeposit()": "a4e0db7e",
    "balanceOf(address,uint256)": "00fdd58e",
    "balanceOfBatch(address[],uint256[])": "4e1273f4",
    "changeETHLimit(uint256)": "b1251026",
    "closeSoloVault()": "63b613f2",
    "contractURI()": "e8a3d485",
    "depositSoloVault()": "ccae8a8d",
    "exists(uint256)": "4f558e79",
    "getBalance()": "12065fe0",
    "getMetadata(uint256)": "a574cea4",
    "getTokenID()": "6ba367a3",
    "isApprovedForAll(address,address)": "e985e9c5",
    "name()": "06fdde03",
    "openSoloVault()": "f9d7afd7",
    "owner()": "8da5cb5b",
    "renounceOwnership()": "715018a6",
    "safeBatchTransferFrom(address,address,uint256[],uint256[],bytes)": "2eb2c2d6",
    "safeTransferFrom(address,address,uint256,uint256,bytes)": "f242432a",
    "setApprovalForAll(address,bool)": "a22cb465",
    "setWithdrawFee(uint256)": "b6ac642a",
    "supportsInterface(bytes4)": "01ffc9a7",
    "symbol()": "95d89b41",
    "tokenIDtoValidator(uint256)": "82586105",
    "tokenURI(uint256)": "c87b56dd",
    "totalSupply()": "18160ddd",
    "totalSupply(uint256)": "bd85b039",
    "transferOwnership(address)": "f2fde38b",
    "updateValidator(uint256,string)": "209a5cb6",
    "uri(uint256)": "0e89341c",
    "userRequestWithdraw(uint256)": "6ea5ba1a",
    "withdraw(uint256)": "2e1a7d4d",
    "withdrawBatch()": "f6b21af2"
  },
  "id": 23
}