{
  "abi": [
    {
      "inputs": [],
      "stateMutability": "nonpayable",
      "type": "constructor"
    },
    {
      "anonymous": false,
      "inputs": [
        {
          "indexed": true,
          "internalType": "address",
          "name": "account",
          "type": "address"
        },
        {
          "indexed": true,
          "internalType": "address",
          "name": "operator",
          "type": "address"
        },
        {
          "indexed": false,
          "internalType": "bool",
          "name": "approved",
          "type": "bool"
        }
      ],
      "name": "ApprovalForAll",
      "type": "event"
    },
    {
      "anonymous": false,
      "inputs": [
        {
          "indexed": true,
          "internalType": "address",
          "name": "previousOwner",
          "type": "address"
        },
        {
          "indexed": true,
          "internalType": "address",
          "name": "newOwner",
          "type": "address"
        }
      ],
      "name": "OwnershipTransferred",
      "type": "event"
    },
    {
      "anonymous": false,
      "inputs": [
        {
          "indexed": false,
          "internalType": "string",
          "name": "_value",
          "type": "string"
        },
        {
          "indexed": true,
          "internalType": "uint256",
          "name": "_id",
          "type": "uint256"
        }
      ],
      "name": "PermanentURI",
      "type": "event"
    },
    {
      "anonymous": false,
      "inputs": [
        {
          "indexed": false,
          "internalType": "bool",
          "name": "_value",
          "type": "bool"
        }
      ],
      "name": "PubPoolClosed",
      "type": "event"
    },
    {
      "anonymous": false,
      "inputs": [
        {
          "indexed": false,
          "internalType": "uint256",
          "name": "_value",
          "type": "uint256"
        }
      ],
      "name": "PubPoolLimitedNearlyReached",
      "type": "event"
    },
    {
      "anonymous": false,
      "inputs": [
        {
          "indexed": false,
          "internalType": "bool",
          "name": "_value",
          "type": "bool"
        }
      ],
      "name": "PubPoolOpend",
      "type": "event"
    },
    {
      "anonymous": false,
      "inputs": [
        {
          "indexed": false,
          "internalType": "uint256",
          "name": "_ipfsID",
          "type": "uint256"
        },
        {
          "indexed": false,
          "internalType": "uint256",
          "name": "_tokenID",
          "type": "uint256"
        },
        {
          "components": [
            {
              "internalType": "uint256",
              "name": "stakedETH",
              "type": "uint256"
            },
            {
              "internalType": "uint256",
              "name": "stakedTimestamp",
              "type": "uint256"
            },
            {
              "internalType": "bytes3",
              "name": "stakedType",
              "type": "bytes3"
            },
            {
              "internalType": "bool",
              "name": "institution",
              "type": "bool"
            },
            {
              "internalType": "bytes32",
              "name": "institutionName",
              "type": "bytes32"
            },
            {
              "internalType": "bool",
              "name": "institutionVerified",
              "type": "bool"
            }
          ],
          "indexed": false,
          "internalType": "struct EthAllocatorPubPool.Metadata",
          "name": "_metadata",
          "type": "tuple"
        }
      ],
      "name": "StakeBadgeCreated",
      "type": "event"
    },
    {
      "anonymous": false,
      "inputs": [
        {
          "indexed": true,
          "internalType": "address",
          "name": "operator",
          "type": "address"
        },
        {
          "indexed": true,
          "internalType": "address",
          "name": "from",
          "type": "address"
        },
        {
          "indexed": true,
          "internalType": "address",
          "name": "to",
          "type": "address"
        },
        {
          "indexed": false,
          "internalType": "uint256[]",
          "name": "ids",
          "type": "uint256[]"
        },
        {
          "indexed": false,
          "internalType": "uint256[]",
          "name": "values",
          "type": "uint256[]"
        }
      ],
      "name": "TransferBatch",
      "type": "event"
    },
    {
      "anonymous": false,
      "inputs": [
        {
          "indexed": true,
          "internalType": "address",
          "name": "operator",
          "type": "address"
        },
        {
          "indexed": true,
          "internalType": "address",
          "name": "from",
          "type": "address"
        },
        {
          "indexed": true,
          "internalType": "address",
          "name": "to",
          "type": "address"
        },
        {
          "indexed": false,
          "internalType": "uint256",
          "name": "id",
          "type": "uint256"
        },
        {
          "indexed": false,
          "internalType": "uint256",
          "name": "value",
          "type": "uint256"
        }
      ],
      "name": "TransferSingle",
      "type": "event"
    },
    {
      "anonymous": false,
      "inputs": [
        {
          "indexed": false,
          "internalType": "string",
          "name": "value",
          "type": "string"
        },
        {
          "indexed": true,
          "internalType": "uint256",
          "name": "id",
          "type": "uint256"
        }
      ],
      "name": "URI",
      "type": "event"
    },
    {
      "anonymous": false,
      "inputs": [
        {
          "indexed": false,
          "internalType": "uint256",
          "name": "_tokenID",
          "type": "uint256"
        },
        {
          "indexed": false,
          "internalType": "address",
          "name": "_user",
          "type": "address"
        },
        {
          "indexed": false,
          "internalType": "uint256",
          "name": "_fee",
          "type": "uint256"
        },
        {
          "indexed": false,
          "internalType": "uint256",
          "name": "_stakedETH",
          "type": "uint256"
        }
      ],
      "name": "UserRequestedWithdrawal",
      "type": "event"
    },
    {
      "inputs": [],
      "name": "allowPubDeposit",
      "outputs": [
        {
          "internalType": "bool",
          "name": "",
          "type": "bool"
        }
      ],
      "stateMutability": "view",
      "type": "function"
    },
    {
      "inputs": [
        {
          "internalType": "address",
          "name": "account",
          "type": "address"
        },
        {
          "internalType": "uint256",
          "name": "id",
          "type": "uint256"
        }
      ],
      "name": "balanceOf",
      "outputs": [
        {
          "internalType": "uint256",
          "name": "",
          "type": "uint256"
        }
      ],
      "stateMutability": "view",
      "type": "function"
    },
    {
      "inputs": [
        {
          "internalType": "address[]",
          "name": "accounts",
          "type": "address[]"
        },
        {
          "internalType": "uint256[]",
          "name": "ids",
          "type": "uint256[]"
        }
      ],
      "name": "balanceOfBatch",
      "outputs": [
        {
          "internalType": "uint256[]",
          "name": "",
          "type": "uint256[]"
        }
      ],
      "stateMutability": "view",
      "type": "function"
    },
    {
      "inputs": [
        {
          "internalType": "uint256",
          "name": "_newLimit",
          "type": "uint256"
        }
      ],
      "name": "changeETHLimit",
      "outputs": [],
      "stateMutability": "nonpayable",
      "type": "function"
    },
    {
      "inputs": [],
      "name": "closePubPool",
      "outputs": [],
      "stateMutability": "nonpayable",
      "type": "function"
    },
    {
      "inputs": [],
      "name": "contractURI",
      "outputs": [
        {
          "internalType": "string",
          "name": "",
          "type": "string"
        }
      ],
      "stateMutability": "pure",
      "type": "function"
    },
    {
      "inputs": [],
      "name": "depositPubPool",
      "outputs": [],
      "stateMutability": "payable",
      "type": "function"
    },
    {
      "inputs": [
        {
          "internalType": "uint256",
          "name": "id",
          "type": "uint256"
        }
      ],
      "name": "exists",
      "outputs": [
        {
          "internalType": "bool",
          "name": "",
          "type": "bool"
        }
      ],
      "stateMutability": "view",
      "type": "function"
    },
    {
      "inputs": [],
      "name": "getBalance",
      "outputs": [
        {
          "internalType": "uint256",
          "name": "",
          "type": "uint256"
        }
      ],
      "stateMutability": "view",
      "type": "function"
    },
    {
      "inputs": [
        {
          "internalType": "uint256",
          "name": "_tokenID",
          "type": "uint256"
        }
      ],
      "name": "getMetadata",
      "outputs": [
        {
          "components": [
            {
              "internalType": "uint256",
              "name": "stakedETH",
              "type": "uint256"
            },
            {
              "internalType": "uint256",
              "name": "stakedTimestamp",
              "type": "uint256"
            },
            {
              "internalType": "bytes3",
              "name": "stakedType",
              "type": "bytes3"
            },
            {
              "internalType": "bool",
              "name": "institution",
              "type": "bool"
            },
            {
              "internalType": "bytes32",
              "name": "institutionName",
              "type": "bytes32"
            },
            {
              "internalType": "bool",
              "name": "institutionVerified",
              "type": "bool"
            }
          ],
          "internalType": "struct EthAllocatorPubPool.Metadata[]",
          "name": "",
          "type": "tuple[]"
        },
        {
          "internalType": "address[]",
          "name": "",
          "type": "address[]"
        },
        {
          "internalType": "string",
          "name": "",
          "type": "string"
        }
      ],
      "stateMutability": "view",
      "type": "function"
    },
    {
      "inputs": [],
      "name": "getTokenID",
      "outputs": [
        {
          "internalType": "uint256",
          "name": "",
          "type": "uint256"
        }
      ],
      "stateMutability": "view",
      "type": "function"
    },
    {
      "inputs": [
        {
          "internalType": "address",
          "name": "account",
          "type": "address"
        },
        {
          "internalType": "address",
          "name": "operator",
          "type": "address"
        }
      ],
      "name": "isApprovedForAll",
      "outputs": [
        {
          "internalType": "bool",
          "name": "",
          "type": "bool"
        }
      ],
      "stateMutability": "view",
      "type": "function"
    },
    {
      "inputs": [],
      "name": "name",
      "outputs": [
        {
          "internalType": "string",
          "name": "",
          "type": "string"
        }
      ],
      "stateMutability": "view",
      "type": "function"
    },
    {
      "inputs": [],
      "name": "openPubPool",
      "outputs": [],
      "stateMutability": "nonpayable",
      "type": "function"
    },
    {
      "inputs": [],
      "name": "owner",
      "outputs": [
        {
          "internalType": "address",
          "name": "",
          "type": "address"
        }
      ],
      "stateMutability": "view",
      "type": "function"
    },
    {
      "inputs": [],
      "name": "renounceOwnership",
      "outputs": [],
      "stateMutability": "nonpayable",
      "type": "function"
    },
    {
      "inputs": [
        {
          "internalType": "address",
          "name": "from",
          "type": "address"
        },
        {
          "internalType": "address",
          "name": "to",
          "type": "address"
        },
        {
          "internalType": "uint256[]",
          "name": "ids",
          "type": "uint256[]"
        },
        {
          "internalType": "uint256[]",
          "name": "amounts",
          "type": "uint256[]"
        },
        {
          "internalType": "bytes",
          "name": "data",
          "type": "bytes"
        }
      ],
      "name": "safeBatchTransferFrom",
      "outputs": [],
      "stateMutability": "nonpayable",
      "type": "function"
    },
    {
      "inputs": [
        {
          "internalType": "address",
          "name": "from",
          "type": "address"
        },
        {
          "internalType": "address",
          "name": "to",
          "type": "address"
        },
        {
          "internalType": "uint256",
          "name": "id",
          "type": "uint256"
        },
        {
          "internalType": "uint256",
          "name": "amount",
          "type": "uint256"
        },
        {
          "internalType": "bytes",
          "name": "data",
          "type": "bytes"
        }
      ],
      "name": "safeTransferFrom",
      "outputs": [],
      "stateMutability": "nonpayable",
      "type": "function"
    },
    {
      "inputs": [
        {
          "internalType": "address",
          "name": "operator",
          "type": "address"
        },
        {
          "internalType": "bool",
          "name": "approved",
          "type": "bool"
        }
      ],
      "name": "setApprovalForAll",
      "outputs": [],
      "stateMutability": "nonpayable",
      "type": "function"
    },
    {
      "inputs": [
        {
          "internalType": "uint256",
          "name": "_amount",
          "type": "uint256"
        }
      ],
      "name": "setWithdrawFee",
      "outputs": [],
      "stateMutability": "nonpayable",
      "type": "function"
    },
    {
      "inputs": [
        {
          "internalType": "bytes4",
          "name": "interfaceId",
          "type": "bytes4"
        }
      ],
      "name": "supportsInterface",
      "outputs": [
        {
          "internalType": "bool",
          "name": "",
          "type": "bool"
        }
      ],
      "stateMutability": "view",
      "type": "function"
    },
    {
      "inputs": [],
      "name": "symbol",
      "outputs": [
        {
          "internalType": "string",
          "name": "",
          "type": "string"
        }
      ],
      "stateMutability": "view",
      "type": "function"
    },
    {
      "inputs": [
        {
          "internalType": "uint256",
          "name": "",
          "type": "uint256"
        }
      ],
      "name": "tokenIDtoValidator",
      "outputs": [
        {
          "internalType": "string",
          "name": "",
          "type": "string"
        }
      ],
      "stateMutability": "view",
      "type": "function"
    },
    {
      "inputs": [
        {
          "internalType": "uint256",
          "name": "_tokenId",
          "type": "uint256"
        }
      ],
      "name": "tokenURI",
      "outputs": [
        {
          "internalType": "string",
          "name": "",
          "type": "string"
        }
      ],
      "stateMutability": "pure",
      "type": "function"
    },
    {
      "inputs": [],
      "name": "totalSupply",
      "outputs": [
        {
          "internalType": "uint256",
          "name": "",
          "type": "uint256"
        }
      ],
      "stateMutability": "view",
      "type": "function"
    },
    {
      "inputs": [
        {
          "internalType": "uint256",
          "name": "id",
          "type": "uint256"
        }
      ],
      "name": "totalSupply",
      "outputs": [
        {
          "internalType": "uint256",
          "name": "",
          "type": "uint256"
        }
      ],
      "stateMutability": "view",
      "type": "function"
    },
    {
      "inputs": [
        {
          "internalType": "address",
          "name": "newOwner",
          "type": "address"
        }
      ],
      "name": "transferOwnership",
      "outputs": [],
      "stateMutability": "nonpayable",
      "type": "function"
    },
    {
      "inputs": [
        {
          "internalType": "uint256",
          "name": "_tokenID",
          "type": "uint256"
        },
        {
          "internalType": "string",
          "name": "_vali",
          "type": "string"
        }
      ],
      "name": "updateValidator",
      "outputs": [],
      "stateMutability": "nonpayable",
      "type": "function"
    },
    {
      "inputs": [
        {
          "internalType": "uint256",
          "name": "",
          "type": "uint256"
        }
      ],
      "name": "uri",
      "outputs": [
        {
          "internalType": "string",
          "name": "",
          "type": "string"
        }
      ],
      "stateMutability": "view",
      "type": "function"
    },
    {
      "inputs": [
        {
          "internalType": "uint256",
          "name": "_tokenID",
          "type": "uint256"
        }
      ],
      "name": "userRequestWithdraw",
      "outputs": [
        {
          "internalType": "uint256",
          "name": "_amount",
          "type": "uint256"
        }
      ],
      "stateMutability": "nonpayable",
      "type": "function"
    },
    {
      "inputs": [
        {
          "internalType": "uint256",
          "name": "_amount",
          "type": "uint256"
        }
      ],
      "name": "withdraw",
      "outputs": [
        {
          "internalType": "bool",
          "name": "",
          "type": "bool"
        }
      ],
      "stateMutability": "nonpayable",
      "type": "function"
    },
    {
      "inputs": [],
      "name": "withdrawBatch",
      "outputs": [
        {
          "internalType": "uint256",
          "name": "",
          "type": "uint256"
        }
      ],
      "stateMutability": "nonpayable",
      "type": "function"
    }
  ],
  "bytecode": {
    "object": "0x60c0604052602060809081527f426c6f636b736361706520506f6f6c6564205374616b696e6720476f65726c6960a0526006906200003e9082620001d4565b50604080518082019091526004815263424c435360e01b6020820152600790620000699082620001d4565b506801158e460913d0000060085560106009556000600b553480156200008e57600080fd5b506040518060a00160405280606d8152602001620040c5606d9139620000b481620000cb565b506001600455620000c533620000dd565b620002a0565b6002620000d98282620001d4565b5050565b600580546001600160a01b038381166001600160a01b0319831681179093556040519116919082907f8be0079c531659141344cd1fd0a4f28419497f9722a3daafe3b4186f6b6457e090600090a35050565b634e487b7160e01b600052604160045260246000fd5b600181811c908216806200015a57607f821691505b6020821081036200017b57634e487b7160e01b600052602260045260246000fd5b50919050565b601f821115620001cf57600081815260208120601f850160051c81016020861015620001aa5750805b601f850160051c820191505b81811015620001cb57828155600101620001b6565b5050505b505050565b81516001600160401b03811115620001f057620001f06200012f565b620002088162000201845462000145565b8462000181565b602080601f831160018114620002405760008415620002275750858301515b600019600386901b1c1916600185901b178555620001cb565b600085815260208120601f198616915b82811015620002715788860151825594840194600190910190840162000250565b5085821015620002905787850151600019600388901b60f8161c191681555b5050505050600190811b01905550565b613e1580620002b06000396000f3fe6080604052600436106101e25760003560e01c80638258610511610102578063bd85b03911610095578063ef31c32411610064578063ef31c324146105a4578063f242432a146105b9578063f2fde38b146105d9578063f6b21af2146105f957600080fd5b8063bd85b039146104ec578063c87b56dd14610519578063e8a3d48514610539578063e985e9c51461054e57600080fd5b8063a4e0db7e116100d1578063a4e0db7e14610463578063a574cea41461047d578063b1251026146104ac578063b6ac642a146104cc57600080fd5b806382586105146103d95780638da5cb5b146103f957806395d89b411461042e578063a22cb4651461044357600080fd5b80632e1a7d4d1161017a5780636ba367a3116101495780636ba367a3146103875780636ea5ba1a1461039c578063715018a6146103bc57806381cf638f146103d157600080fd5b80632e1a7d4d146102eb5780632eb2c2d61461030b5780634e1273f41461032b5780634f558e791461035857600080fd5b806312065fe0116101b657806312065fe01461028c578063158dc8751461029f57806318160ddd146102b6578063209a5cb6146102cb57600080fd5b8062fdd58e146101e757806301ffc9a71461021a57806306fdde031461024a5780630e89341c1461026c575b600080fd5b3480156101f357600080fd5b50610207610202366004613093565b61060e565b6040519081526020015b60405180910390f35b34801561022657600080fd5b5061023a6102353660046130eb565b6106ee565b6040519015158152602001610211565b34801561025657600080fd5b5061025f6107d1565b604051610211919061317d565b34801561027857600080fd5b5061025f610287366004613190565b61085f565b34801561029857600080fd5b5047610207565b3480156102ab57600080fd5b506102b46108f3565b005b3480156102c257600080fd5b506102076109cb565b3480156102d757600080fd5b506102b46102e636600461329f565b610ae2565b3480156102f757600080fd5b5061023a610306366004613190565b610c47565b34801561031757600080fd5b506102b46103263660046133af565b610cb0565b34801561033757600080fd5b5061034b610346366004613459565b610d79565b6040516102119190613555565b34801561036457600080fd5b5061023a610373366004613190565b600090815260036020526040902054151590565b34801561039357600080fd5b50600b54610207565b3480156103a857600080fd5b506102076103b7366004613190565b610ed1565b3480156103c857600080fd5b506102b4611172565b6102b4611186565b3480156103e557600080fd5b5061025f6103f4366004613190565b611407565b34801561040557600080fd5b5060055460405173ffffffffffffffffffffffffffffffffffffffff9091168152602001610211565b34801561043a57600080fd5b5061025f611420565b34801561044f57600080fd5b506102b461045e366004613568565b61142d565b34801561046f57600080fd5b50600a5461023a9060ff1681565b34801561048957600080fd5b5061049d610498366004613190565b61143c565b604051610211939291906135a4565b3480156104b857600080fd5b506102b46104c7366004613190565b611621565b3480156104d857600080fd5b506102b46104e7366004613190565b61162e565b3480156104f857600080fd5b50610207610507366004613190565b60009081526003602052604090205490565b34801561052557600080fd5b5061025f610534366004613190565b61164e565b34801561054557600080fd5b5061025f61167f565b34801561055a57600080fd5b5061023a6105693660046136ad565b73ffffffffffffffffffffffffffffffffffffffff918216600090815260016020908152604080832093909416825291909152205460ff1690565b3480156105b057600080fd5b506102b461169f565b3480156105c557600080fd5b506102b46105d43660046136e0565b611700565b3480156105e557600080fd5b506102b46105f4366004613745565b6117c2565b34801561060557600080fd5b50610207611879565b600073ffffffffffffffffffffffffffffffffffffffff83166106b8576040517f08c379a000000000000000000000000000000000000000000000000000000000815260206004820152602a60248201527f455243313135353a2061646472657373207a65726f206973206e6f742061207660448201527f616c6964206f776e65720000000000000000000000000000000000000000000060648201526084015b60405180910390fd5b5060008181526020818152604080832073ffffffffffffffffffffffffffffffffffffffff861684529091529020545b92915050565b60007fffffffff0000000000000000000000000000000000000000000000000000000082167fd9b67a2600000000000000000000000000000000000000000000000000000000148061078157507fffffffff0000000000000000000000000000000000000000000000000000000082167f0e89341c00000000000000000000000000000000000000000000000000000000145b806106e857507f01ffc9a7000000000000000000000000000000000000000000000000000000007fffffffff000000000000000000000000000000000000000000000000000000008316146106e8565b600680546107de90613760565b80601f016020809104026020016040519081016040528092919081815260200182805461080a90613760565b80156108575780601f1061082c57610100808354040283529160200191610857565b820191906000526020600020905b81548152906001019060200180831161083a57829003601f168201915b505050505081565b60606002805461086e90613760565b80601f016020809104026020016040519081016040528092919081815260200182805461089a90613760565b80156108e75780601f106108bc576101008083540402835291602001916108e7565b820191906000526020600020905b8154815290600101906020018083116108ca57829003601f168201915b50505050509050919050565b6108fb6119fb565b600a5460ff1615610968576040517f08c379a000000000000000000000000000000000000000000000000000000000815260206004820152601860248201527f5075626c696320706f6f6c20616c7265616479206f70656e000000000000000060448201526064016106af565b600a80547fffffffffffffffffffffffffffffffffffffffffffffffffffffffffffffff001660019081179091556040519081527e8dd3e93baa4fe7895976ab5b545c723c8d89b05b913777bfba4bfa899e2a44906020015b60405180910390a1565b600080805b3073ffffffffffffffffffffffffffffffffffffffff16636ba367a36040518163ffffffff1660e01b8152600401602060405180830381865afa158015610a1b573d6000803e3d6000fd5b505050506040513d601f19601f82011682018060405250810190610a3f91906137ad565b8111610adc576040517fbd85b03900000000000000000000000000000000000000000000000000000000815260048101829052309063bd85b03990602401602060405180830381865afa158015610a9a573d6000803e3d6000fd5b505050506040513d601f19601f82011682018060405250810190610abe91906137ad565b610ac890836137f5565b915080610ad481613808565b9150506109d0565b50919050565b610aea6119fb565b610bc46040518060400160405280600481526020017f3078303000000000000000000000000000000000000000000000000000000000815250600e60008581526020019081526020016000208054610b4190613760565b80601f0160208091040260200160405190810160405280929190818152602001828054610b6d90613760565b8015610bba5780601f10610b8f57610100808354040283529160200191610bba565b820191906000526020600020905b815481529060010190602001808311610b9d57829003601f168201915b5050505050611a7c565b610c2a576040517f08c379a000000000000000000000000000000000000000000000000000000000815260206004820152601860248201527f56616c696461746f7220697320616c726561647920736574000000000000000060448201526064016106af565b6000828152600e60205260409020610c428282613886565b505050565b6000610c516119fb565b47821115610c5e57600080fd5b60055460405173ffffffffffffffffffffffffffffffffffffffff9091169083156108fc029084906000818181858888f19350505050158015610ca5573d6000803e3d6000fd5b50600190505b919050565b73ffffffffffffffffffffffffffffffffffffffff8516331480610cd95750610cd98533610569565b610d65576040517f08c379a000000000000000000000000000000000000000000000000000000000815260206004820152602e60248201527f455243313135353a2063616c6c6572206973206e6f7420746f6b656e206f776e60448201527f6572206f7220617070726f76656400000000000000000000000000000000000060648201526084016106af565b610d728585858585611ad5565b5050505050565b60608151835114610e0c576040517f08c379a000000000000000000000000000000000000000000000000000000000815260206004820152602960248201527f455243313135353a206163636f756e747320616e6420696473206c656e67746860448201527f206d69736d61746368000000000000000000000000000000000000000000000060648201526084016106af565b6000835167ffffffffffffffff811115610e2857610e286131a9565b604051908082528060200260200182016040528015610e51578160200160208202803683370190505b50905060005b8451811015610ec957610e9c858281518110610e7557610e756139a0565b6020026020010151858381518110610e8f57610e8f6139a0565b602002602001015161060e565b828281518110610eae57610eae6139a0565b6020908102919091010152610ec281613808565b9050610e57565b509392505050565b6000806008549050610f186040518060400160405280601381526020017f637572576974686472617746656520696e69740000000000000000000000000081525082611e1d565b60005b6000848152600d602052604090205481101561116b576000848152600d60205260409020805433919083908110610f5457610f546139a0565b60009182526020909120015473ffffffffffffffffffffffffffffffffffffffff160361111a5760006301e13380600854610f8f91906139cf565b9050610fd06040518060400160405280600781526020017f736563466565200000000000000000000000000000000000000000000000000081525082611e1d565b6000858152600c60205260408120805484908110610ff057610ff06139a0565b9060005260206000209060050201600101544261100d9190613a0a565b905061104e6040518060400160405280600b81526020017f74696d655061737365642000000000000000000000000000000000000000000081525082611e1d565b6301d52bd08110611069576706f05b59d3b200009350611117565b6110738183613a1d565b6008546110809190613a0a565b93507f57e8bc4c74baca16ab16c5cc83fa0bc416b230ea2a49969e56a6fe1b5ea5a863863386600c60008b815260200190815260200160002087815481106110ca576110ca6139a0565b6000918252602091829020600590910201546040805195865273ffffffffffffffffffffffffffffffffffffffff9094169185019190915291830152606082015260800160405180910390a15b50505b6111596040518060400160405280600f81526020017f637572576974686472617746656520000000000000000000000000000000000081525083611e1d565b8061116381613808565b915050610f1b565b5092915050565b61117a6119fb565b6111846000611eae565b565b61118e611f25565b600061119a3447613a0a565b6009546111af90670de0b6b3a7640000613a1d565b6111b99190613a0a565b600a5490915060ff161515600114611253576040517f08c379a000000000000000000000000000000000000000000000000000000000815260206004820152603e60248201527f5075626c696320706f6f6c2069732063757272656e746c7920636c6f7365642e60448201527f20506c65617365207761697420666f7220746865206e657874206f6e652e000060648201526084016106af565b8034111561132f576040517f08c379a000000000000000000000000000000000000000000000000000000000815260206004820152606c60248201527f596f752061726520747279696e6720746f206465706f736974206d6f7265207460448201527f68616e207468652063757272656e7420706f6f6c2063616e20686f6c642e205060648201527f6c65617365207761697420666f7220746865206e657874206f6e65206f72206460848201527f65706f736974206c6573732e000000000000000000000000000000000000000060a482015260c4016106af565b61133c3433600b54611f98565b6714d1120d7b160000600954670de0b6b3a764000061135b9190613a1d565b6113659190613a0a565b4710158015611387575060095461138490670de0b6b3a7640000613a1d565b47105b156113c4576040514781527fb460249bd2b5d39774483350298177c130ed6f9ea9fe44be023d931cc8f4086f9060200160405180910390a16113fc565b6009546113d990670de0b6b3a7640000613a1d565b47106113fc57600b80549060006113ef83613808565b91905055506113fc6116a7565b506111846001600455565b600e60205260009081526040902080546107de90613760565b600780546107de90613760565b61143833838361234b565b5050565b6000818152600c60209081526040808320600d8352818420600e8452828520825484518187028101870190955280855260609687968796928692909184015b828210156115195760008481526020908190206040805160c081018252600586029092018054835260018082015484860152600282015460e881901b7fffffff00000000000000000000000000000000000000000000000000000000001693850193909352630100000090920460ff908116151560608501526003820154608085015260049091015416151560a0830152908352909201910161147b565b5050505092508180548060200260200160405190810160405280929190818152602001828054801561158157602002820191906000526020600020905b815473ffffffffffffffffffffffffffffffffffffffff168152600190910190602001808311611556575b5050505050915080805461159490613760565b80601f01602080910402602001604051908101604052809291908181526020018280546115c090613760565b801561160d5780601f106115e25761010080835404028352916020019161160d565b820191906000526020600020905b8154815290600101906020018083116115f057829003601f168201915b505050505090509250925092509193909250565b6116296119fb565b600955565b6116366119fb565b61164881670de0b6b3a7640000613a1d565b60085550565b60606116598261249e565b6040516020016116699190613a34565b6040516020818303038152906040529050919050565b6060604051806080016040528060538152602001613d8d60539139905090565b6116a76119fb565b600a80547fffffffffffffffffffffffffffffffffffffffffffffffffffffffffffffff00169055604051600081527f3a7713b5c95bd34fb811d85c9797ca678591fbbb6ffc6f06e009bc863e9546b5906020016109c1565b73ffffffffffffffffffffffffffffffffffffffff851633148061172957506117298533610569565b6117b5576040517f08c379a000000000000000000000000000000000000000000000000000000000815260206004820152602e60248201527f455243313135353a2063616c6c6572206973206e6f7420746f6b656e206f776e60448201527f6572206f7220617070726f76656400000000000000000000000000000000000060648201526084016106af565b610d72858585858561255c565b6117ca6119fb565b73ffffffffffffffffffffffffffffffffffffffff811661186d576040517f08c379a000000000000000000000000000000000000000000000000000000000815260206004820152602660248201527f4f776e61626c653a206e6577206f776e657220697320746865207a65726f206160448201527f646472657373000000000000000000000000000000000000000000000000000060648201526084016106af565b61187681611eae565b50565b60006118836119fb565b600a5460ff16156118f0576040517f08c379a000000000000000000000000000000000000000000000000000000000815260206004820152601f60248201527f4465706f736974206c696d6974206e6f742072656163686564207965742e200060448201526064016106af565b60095461190590670de0b6b3a7640000613a1d565b471461196d576040517f08c379a000000000000000000000000000000000000000000000000000000000815260206004820152600d60248201527f506f6f6c206e6f742066756c6c0000000000000000000000000000000000000060448201526064016106af565b60055473ffffffffffffffffffffffffffffffffffffffff1673ffffffffffffffffffffffffffffffffffffffff166108fc600954670de0b6b3a76400006119b59190613a1d565b6040518115909202916000818181858888f193505050501580156119dd573d6000803e3d6000fd5b506119e66108fb565b6001600b546119f59190613a0a565b90505b90565b60055473ffffffffffffffffffffffffffffffffffffffff163314611184576040517f08c379a000000000000000000000000000000000000000000000000000000000815260206004820181905260248201527f4f776e61626c653a2063616c6c6572206973206e6f7420746865206f776e657260448201526064016106af565b600081604051602001611a8f9190613b12565b6040516020818303038152906040528051906020012083604051602001611ab69190613b12565b6040516020818303038152906040528051906020012014905092915050565b8151835114611b66576040517f08c379a000000000000000000000000000000000000000000000000000000000815260206004820152602860248201527f455243313135353a2069647320616e6420616d6f756e7473206c656e6774682060448201527f6d69736d6174636800000000000000000000000000000000000000000000000060648201526084016106af565b73ffffffffffffffffffffffffffffffffffffffff8416611c09576040517f08c379a000000000000000000000000000000000000000000000000000000000815260206004820152602560248201527f455243313135353a207472616e7366657220746f20746865207a65726f20616460448201527f647265737300000000000000000000000000000000000000000000000000000060648201526084016106af565b33611c188187878787876127a8565b60005b8451811015611d88576000858281518110611c3857611c386139a0565b602002602001015190506000858381518110611c5657611c566139a0565b6020908102919091018101516000848152808352604080822073ffffffffffffffffffffffffffffffffffffffff8e168352909352919091205490915081811015611d23576040517f08c379a000000000000000000000000000000000000000000000000000000000815260206004820152602a60248201527f455243313135353a20696e73756666696369656e742062616c616e636520666f60448201527f72207472616e736665720000000000000000000000000000000000000000000060648201526084016106af565b60008381526020818152604080832073ffffffffffffffffffffffffffffffffffffffff8e8116855292528083208585039055908b16825281208054849290611d6d9084906137f5565b9250508190555050505080611d8190613808565b9050611c1b565b508473ffffffffffffffffffffffffffffffffffffffff168673ffffffffffffffffffffffffffffffffffffffff168273ffffffffffffffffffffffffffffffffffffffff167f4a39dc06d4c0dbc64b70af90fd698a233a518aa5d07e595d983b8c0526c8f7fb8787604051611dff929190613b2e565b60405180910390a4611e15818787878787612973565b505050505050565b6114388282604051602401611e33929190613b5c565b604080517fffffffffffffffffffffffffffffffffffffffffffffffffffffffffffffffe08184030181529190526020810180517bffffffffffffffffffffffffffffffffffffffffffffffffffffffff167f9710a9d000000000000000000000000000000000000000000000000000000000179052612bfd565b6005805473ffffffffffffffffffffffffffffffffffffffff8381167fffffffffffffffffffffffff0000000000000000000000000000000000000000831681179093556040519116919082907f8be0079c531659141344cd1fd0a4f28419497f9722a3daafe3b4186f6b6457e090600090a35050565b600260045403611f91576040517f08c379a000000000000000000000000000000000000000000000000000000000815260206004820152601f60248201527f5265656e7472616e637947756172643a207265656e7472616e742063616c6c0060448201526064016106af565b6002600455565b6040805160c08101825260006020808301829052828401829052606083018290526080830182905260a08301829052868352848252600d815283822080546001810182559083528183200180547fffffffffffffffffffffffff00000000000000000000000000000000000000001673ffffffffffffffffffffffffffffffffffffffff881617905583518085018552600481527f307830300000000000000000000000000000000000000000000000000000000081830152858352600e90915292902090916120689082613886565b5042602082015280516120d7576040517f08c379a000000000000000000000000000000000000000000000000000000000815260206004820152601460248201527f706c65617365206465706f73697420657468657200000000000000000000000060448201526064016106af565b8051670de0b6b3a764000011612112577f6d0000000000000000000000000000000000000000000000000000000000000060408201526121ea565b80516729a2241af62c00001161214d577f6c0000000000000000000000000000000000000000000000000000000000000060408201526121ea565b8051676124fee993bc000011612188577f786c00000000000000000000000000000000000000000000000000000000000060408201526121ea565b805167c249fdd327780000116121c3577f78786c000000000000000000000000000000000000000000000000000000000060408201526121ea565b7f730000000000000000000000000000000000000000000000000000000000000060408201525b6122063383600160405180602001604052806000815250612c1e565b6000828152600c60209081526040808320805460018082018355918552938390208551600590950201938455918401519183019190915582810151600283018054606086015160e89390931c7fffffffffffffffffffffffffffffffffffffffffffffffffffffffff00000000909116176301000000921515929092029190911790556080830151600383015560a0830151600490920180547fffffffffffffffffffffffffffffffffffffffffffffffffffffffffffffff001692151592909217909155517f494ebb471dcff91b49b3681c0bbe1294d8874f5d018f33d6632bfec5fa02028e906122fd90849081908590613b7e565b60405180910390a1817fa109ba539900bf1b633f956d63c96fc89b814c7287f7aa50a9216d0b556572076123308461164e565b60405161233d919061317d565b60405180910390a250505050565b8173ffffffffffffffffffffffffffffffffffffffff168373ffffffffffffffffffffffffffffffffffffffff1603612406576040517f08c379a000000000000000000000000000000000000000000000000000000000815260206004820152602960248201527f455243313135353a2073657474696e6720617070726f76616c2073746174757360448201527f20666f722073656c66000000000000000000000000000000000000000000000060648201526084016106af565b73ffffffffffffffffffffffffffffffffffffffff83811660008181526001602090815260408083209487168084529482529182902080547fffffffffffffffffffffffffffffffffffffffffffffffffffffffffffffff001686151590811790915591519182527f17307eab39ab6107e8899845ad3d59bd9653f200f220920489ca2b5937696c31910160405180910390a3505050565b606060006124ab83612d95565b600101905060008167ffffffffffffffff8111156124cb576124cb6131a9565b6040519080825280601f01601f1916602001820160405280156124f5576020820181803683370190505b5090508181016020015b7fffffffffffffffffffffffffffffffffffffffffffffffffffffffffffffffff017f3031323334353637383961626364656600000000000000000000000000000000600a86061a8153600a85049450846124ff57509392505050565b73ffffffffffffffffffffffffffffffffffffffff84166125ff576040517f08c379a000000000000000000000000000000000000000000000000000000000815260206004820152602560248201527f455243313135353a207472616e7366657220746f20746865207a65726f20616460448201527f647265737300000000000000000000000000000000000000000000000000000060648201526084016106af565b33600061260b85612e77565b9050600061261885612e77565b90506126288389898585896127a8565b60008681526020818152604080832073ffffffffffffffffffffffffffffffffffffffff8c168452909152902054858110156126e6576040517f08c379a000000000000000000000000000000000000000000000000000000000815260206004820152602a60248201527f455243313135353a20696e73756666696369656e742062616c616e636520666f60448201527f72207472616e736665720000000000000000000000000000000000000000000060648201526084016106af565b60008781526020818152604080832073ffffffffffffffffffffffffffffffffffffffff8d8116855292528083208985039055908a168252812080548892906127309084906137f5565b9091555050604080518881526020810188905273ffffffffffffffffffffffffffffffffffffffff808b16928c821692918816917fc3d58168c5ae7397731d063d5bbf3d657854427343f4c083240f7aacaa2d0f62910160405180910390a461279d848a8a8a8a8a612ec2565b505050505050505050565b73ffffffffffffffffffffffffffffffffffffffff851661283c5760005b835181101561283a578281815181106127e1576127e16139a0565b6020026020010151600360008684815181106127ff576127ff6139a0565b60200260200101518152602001908152602001600020600082825461282491906137f5565b90915550612833905081613808565b90506127c6565b505b73ffffffffffffffffffffffffffffffffffffffff8416611e155760005b835181101561296a576000848281518110612877576128776139a0565b602002602001015190506000848381518110612895576128956139a0565b6020026020010151905060006003600084815260200190815260200160002054905081811015612947576040517f08c379a000000000000000000000000000000000000000000000000000000000815260206004820152602860248201527f455243313135353a206275726e20616d6f756e74206578636565647320746f7460448201527f616c537570706c7900000000000000000000000000000000000000000000000060648201526084016106af565b6000928352600360205260409092209103905561296381613808565b905061285a565b50505050505050565b73ffffffffffffffffffffffffffffffffffffffff84163b15611e15576040517fbc197c8100000000000000000000000000000000000000000000000000000000815273ffffffffffffffffffffffffffffffffffffffff85169063bc197c81906129ea9089908990889088908890600401613bfd565b6020604051808303816000875af1925050508015612a43575060408051601f3d9081017fffffffffffffffffffffffffffffffffffffffffffffffffffffffffffffffe0168201909252612a4091810190613c5c565b60015b612b2c57612a4f613c79565b806308c379a003612aa25750612a63613c94565b80612a6e5750612aa4565b806040517f08c379a00000000000000000000000000000000000000000000000000000000081526004016106af919061317d565b505b6040517f08c379a000000000000000000000000000000000000000000000000000000000815260206004820152603460248201527f455243313135353a207472616e7366657220746f206e6f6e2d4552433131353560448201527f526563656976657220696d706c656d656e74657200000000000000000000000060648201526084016106af565b7fffffffff0000000000000000000000000000000000000000000000000000000081167fbc197c81000000000000000000000000000000000000000000000000000000001461296a576040517f08c379a000000000000000000000000000000000000000000000000000000000815260206004820152602860248201527f455243313135353a204552433131353552656365697665722072656a6563746560448201527f6420746f6b656e7300000000000000000000000000000000000000000000000060648201526084016106af565b80516a636f6e736f6c652e6c6f67602083016000808483855afa5050505050565b73ffffffffffffffffffffffffffffffffffffffff8416612cc1576040517f08c379a000000000000000000000000000000000000000000000000000000000815260206004820152602160248201527f455243313135353a206d696e7420746f20746865207a65726f2061646472657360448201527f730000000000000000000000000000000000000000000000000000000000000060648201526084016106af565b336000612ccd85612e77565b90506000612cda85612e77565b9050612ceb836000898585896127a8565b60008681526020818152604080832073ffffffffffffffffffffffffffffffffffffffff8b16845290915281208054879290612d289084906137f5565b9091555050604080518781526020810187905273ffffffffffffffffffffffffffffffffffffffff808a1692600092918716917fc3d58168c5ae7397731d063d5bbf3d657854427343f4c083240f7aacaa2d0f62910160405180910390a461296a83600089898989612ec2565b6000807a184f03e93ff9f4daa797ed6e38ed64bf6a1f0100000000000000008310612dde577a184f03e93ff9f4daa797ed6e38ed64bf6a1f010000000000000000830492506040015b6d04ee2d6d415b85acef81000000008310612e0a576d04ee2d6d415b85acef8100000000830492506020015b662386f26fc100008310612e2857662386f26fc10000830492506010015b6305f5e1008310612e40576305f5e100830492506008015b6127108310612e5457612710830492506004015b60648310612e66576064830492506002015b600a83106106e85760010192915050565b60408051600180825281830190925260609160009190602080830190803683370190505090508281600081518110612eb157612eb16139a0565b602090810291909101015292915050565b73ffffffffffffffffffffffffffffffffffffffff84163b15611e15576040517ff23a6e6100000000000000000000000000000000000000000000000000000000815273ffffffffffffffffffffffffffffffffffffffff85169063f23a6e6190612f399089908990889088908890600401613d3c565b6020604051808303816000875af1925050508015612f92575060408051601f3d9081017fffffffffffffffffffffffffffffffffffffffffffffffffffffffffffffffe0168201909252612f8f91810190613c5c565b60015b612f9e57612a4f613c79565b7fffffffff0000000000000000000000000000000000000000000000000000000081167ff23a6e61000000000000000000000000000000000000000000000000000000001461296a576040517f08c379a000000000000000000000000000000000000000000000000000000000815260206004820152602860248201527f455243313135353a204552433131353552656365697665722072656a6563746560448201527f6420746f6b656e7300000000000000000000000000000000000000000000000060648201526084016106af565b803573ffffffffffffffffffffffffffffffffffffffff81168114610cab57600080fd5b600080604083850312156130a657600080fd5b6130af8361306f565b946020939093013593505050565b7fffffffff000000000000000000000000000000000000000000000000000000008116811461187657600080fd5b6000602082840312156130fd57600080fd5b8135613108816130bd565b9392505050565b60005b8381101561312a578181015183820152602001613112565b50506000910152565b6000815180845261314b81602086016020860161310f565b601f017fffffffffffffffffffffffffffffffffffffffffffffffffffffffffffffffe0169290920160200192915050565b6020815260006131086020830184613133565b6000602082840312156131a257600080fd5b5035919050565b7f4e487b7100000000000000000000000000000000000000000000000000000000600052604160045260246000fd5b7fffffffffffffffffffffffffffffffffffffffffffffffffffffffffffffffe0601f830116810181811067ffffffffffffffff8211171561321c5761321c6131a9565b6040525050565b600067ffffffffffffffff83111561323d5761323d6131a9565b60405161327260207fffffffffffffffffffffffffffffffffffffffffffffffffffffffffffffffe0601f87011601826131d8565b80915083815284848401111561328757600080fd5b83836020830137600060208583010152509392505050565b600080604083850312156132b257600080fd5b82359150602083013567ffffffffffffffff8111156132d057600080fd5b8301601f810185136132e157600080fd5b6132f085823560208401613223565b9150509250929050565b600067ffffffffffffffff821115613314576133146131a9565b5060051b60200190565b600082601f83011261332f57600080fd5b8135602061333c826132fa565b60405161334982826131d8565b83815260059390931b850182019282810191508684111561336957600080fd5b8286015b84811015613384578035835291830191830161336d565b509695505050505050565b600082601f8301126133a057600080fd5b61310883833560208501613223565b600080600080600060a086880312156133c757600080fd5b6133d08661306f565b94506133de6020870161306f565b9350604086013567ffffffffffffffff808211156133fb57600080fd5b61340789838a0161331e565b9450606088013591508082111561341d57600080fd5b61342989838a0161331e565b9350608088013591508082111561343f57600080fd5b5061344c8882890161338f565b9150509295509295909350565b6000806040838503121561346c57600080fd5b823567ffffffffffffffff8082111561348457600080fd5b818501915085601f83011261349857600080fd5b813560206134a5826132fa565b6040516134b282826131d8565b83815260059390931b85018201928281019150898411156134d257600080fd5b948201945b838610156134f7576134e88661306f565b825294820194908201906134d7565b9650508601359250508082111561350d57600080fd5b506132f08582860161331e565b600081518084526020808501945080840160005b8381101561354a5781518752958201959082019060010161352e565b509495945050505050565b602081526000613108602083018461351a565b6000806040838503121561357b57600080fd5b6135848361306f565b91506020830135801515811461359957600080fd5b809150509250929050565b606080825284519082018190526000906020906080840190828801845b828110156136425761362f84835180518252602081015160208301527fffffff000000000000000000000000000000000000000000000000000000000060408201511660408301526060810151151560608301526080810151608083015260a0810151151560a08301525050565b60c09390930192908401906001016135c1565b5050508381038285015285518082528683019183019060005b8181101561368d57835173ffffffffffffffffffffffffffffffffffffffff168352928401929184019160010161365b565b505084810360408601526136a18187613133565b98975050505050505050565b600080604083850312156136c057600080fd5b6136c98361306f565b91506136d76020840161306f565b90509250929050565b600080600080600060a086880312156136f857600080fd5b6137018661306f565b945061370f6020870161306f565b93506040860135925060608601359150608086013567ffffffffffffffff81111561373957600080fd5b61344c8882890161338f565b60006020828403121561375757600080fd5b6131088261306f565b600181811c9082168061377457607f821691505b602082108103610adc577f4e487b7100000000000000000000000000000000000000000000000000000000600052602260045260246000fd5b6000602082840312156137bf57600080fd5b5051919050565b7f4e487b7100000000000000000000000000000000000000000000000000000000600052601160045260246000fd5b808201808211156106e8576106e86137c6565b60007fffffffffffffffffffffffffffffffffffffffffffffffffffffffffffffffff8203613839576138396137c6565b5060010190565b601f821115610c4257600081815260208120601f850160051c810160208610156138675750805b601f850160051c820191505b81811015611e1557828155600101613873565b815167ffffffffffffffff8111156138a0576138a06131a9565b6138b4816138ae8454613760565b84613840565b602080601f83116001811461390757600084156138d15750858301515b7fffffffffffffffffffffffffffffffffffffffffffffffffffffffffffffffff600386901b1c1916600185901b178555611e15565b6000858152602081207fffffffffffffffffffffffffffffffffffffffffffffffffffffffffffffffe08616915b8281101561395457888601518255948401946001909101908401613935565b508582101561399057878501517fffffffffffffffffffffffffffffffffffffffffffffffffffffffffffffffff600388901b60f8161c191681555b5050505050600190811b01905550565b7f4e487b7100000000000000000000000000000000000000000000000000000000600052603260045260246000fd5b600082613a05577f4e487b7100000000000000000000000000000000000000000000000000000000600052601260045260246000fd5b500490565b818103818111156106e8576106e86137c6565b80820281158282048414176106e8576106e86137c6565b7f68747470733a2f2f697066732e626c6f636b73636170652e6e6574776f726b2f81527f69706e732f6b3531717a6935757175356468323866746469776a646f786e757460208201527f7762367a696f3870726c796f617965696c6c33376d747079363772363775797760408201527f7965622f00000000000000000000000000000000000000000000000000000000606082015260008251613ade81606485016020870161310f565b7f2e6a736f6e0000000000000000000000000000000000000000000000000000006064939091019283015250606901919050565b60008251613b2481846020870161310f565b9190910192915050565b604081526000613b41604083018561351a565b8281036020840152613b53818561351a565b95945050505050565b604081526000613b6f6040830185613133565b90508260208301529392505050565b838152602081018390526101008101613bf5604083018480518252602081015160208301527fffffff000000000000000000000000000000000000000000000000000000000060408201511660408301526060810151151560608301526080810151608083015260a0810151151560a08301525050565b949350505050565b600073ffffffffffffffffffffffffffffffffffffffff808816835280871660208401525060a06040830152613c3660a083018661351a565b8281036060840152613c48818661351a565b905082810360808401526136a18185613133565b600060208284031215613c6e57600080fd5b8151613108816130bd565b600060033d11156119f85760046000803e5060005160e01c90565b600060443d1015613ca25790565b6040517ffffffffffffffffffffffffffffffffffffffffffffffffffffffffffffffffc803d016004833e81513d67ffffffffffffffff8160248401118184111715613cf057505050505090565b8285019150815181811115613d085750505050505090565b843d8701016020828501011115613d225750505050505090565b613d31602082860101876131d8565b509095945050505050565b600073ffffffffffffffffffffffffffffffffffffffff808816835280871660208401525084604083015283606083015260a06080830152613d8160a0830184613133565b97965050505050505056fe68747470733a2f2f697066732e626c6f636b73636170652e6e6574776f726b2f697066732f516d56396f57534741456d78503945545355725154477177637177365a4d6d3856684535414671744751384c6265a2646970667358221220aac496b6dc9b4c3d1b3092c06b8cfc526b432caab7e8fe9eb54a0061090bf76c64736f6c6343000811003368747470733a2f2f697066732e626c6f636b73636170652e6e6574776f726b2f69706e732f6b3531717a6935757175356468323866746469776a646f786e75747762367a696f3870726c796f617965696c6c33376d74707936377236377579777965622f7b69647d2e6a736f6e",
    "linkReferences": {}
  },
  "methodIdentifiers": {
    "allowPubDeposit()": "a4e0db7e",
    "balanceOf(address,uint256)": "00fdd58e",
    "balanceOfBatch(address[],uint256[])": "4e1273f4",
    "changeETHLimit(uint256)": "b1251026",
    "closePubPool()": "ef31c324",
    "contractURI()": "e8a3d485",
    "depositPubPool()": "81cf638f",
    "exists(uint256)": "4f558e79",
    "getBalance()": "12065fe0",
    "getMetadata(uint256)": "a574cea4",
    "getTokenID()": "6ba367a3",
    "isApprovedForAll(address,address)": "e985e9c5",
    "name()": "06fdde03",
    "openPubPool()": "158dc875",
    "owner()": "8da5cb5b",
    "renounceOwnership()": "715018a6",
    "safeBatchTransferFrom(address,address,uint256[],uint256[],bytes)": "2eb2c2d6",
    "safeTransferFrom(address,address,uint256,uint256,bytes)": "f242432a",
    "setApprovalForAll(address,bool)": "a22cb465",
    "setWithdrawFee(uint256)": "b6ac642a",
    "supportsInterface(bytes4)": "01ffc9a7",
    "symbol()": "95d89b41",
    "tokenIDtoValidator(uint256)": "82586105",
    "tokenURI(uint256)": "c87b56dd",
    "totalSupply()": "18160ddd",
    "totalSupply(uint256)": "bd85b039",
    "transferOwnership(address)": "f2fde38b",
    "updateValidator(uint256,string)": "209a5cb6",
    "uri(uint256)": "0e89341c",
    "userRequestWithdraw(uint256)": "6ea5ba1a",
    "withdraw(uint256)": "2e1a7d4d",
    "withdrawBatch()": "f6b21af2"
  },
  "id": 22
}