{
  "abi": [
    {
      "inputs": [
        {
          "internalType": "address",
          "name": "_quadrataContract",
          "type": "address"
        }
      ],
      "stateMutability": "nonpayable",
      "type": "constructor"
    },
    {
      "anonymous": false,
      "inputs": [
        {
          "indexed": true,
          "internalType": "address",
          "name": "previousOwner",
          "type": "address"
        },
        {
          "indexed": true,
          "internalType": "address",
          "name": "newOwner",
          "type": "address"
        }
      ],
      "name": "OwnershipTransferred",
      "type": "event"
    },
    {
      "anonymous": false,
      "inputs": [
        {
          "indexed": false,
          "internalType": "bool",
          "name": "_value",
          "type": "bool"
        }
      ],
      "name": "PubPoolClosed",
      "type": "event"
    },
    {
      "anonymous": false,
      "inputs": [
        {
          "indexed": false,
          "internalType": "uint256",
          "name": "_value",
          "type": "uint256"
        }
      ],
      "name": "PubPoolLimitedNearlyReached",
      "type": "event"
    },
    {
      "anonymous": false,
      "inputs": [
        {
          "indexed": false,
          "internalType": "bool",
          "name": "_value",
          "type": "bool"
        }
      ],
      "name": "PubPoolOpend",
      "type": "event"
    },
    {
      "anonymous": false,
      "inputs": [
        {
          "indexed": false,
          "internalType": "uint256",
          "name": "_tokenID",
          "type": "uint256"
        },
        {
          "indexed": false,
          "internalType": "address",
          "name": "_user",
          "type": "address"
        },
        {
          "indexed": false,
          "internalType": "uint256",
          "name": "_fee",
          "type": "uint256"
        },
        {
          "indexed": false,
          "internalType": "uint256",
          "name": "_stakedETH",
          "type": "uint256"
        }
      ],
      "name": "UserRequestedWithdrawal",
      "type": "event"
    },
    {
      "inputs": [],
      "name": "allowPubDeposit",
      "outputs": [
        {
          "internalType": "bool",
          "name": "",
          "type": "bool"
        }
      ],
      "stateMutability": "view",
      "type": "function"
    },
    {
      "inputs": [],
      "name": "closePubPool",
      "outputs": [],
      "stateMutability": "nonpayable",
      "type": "function"
    },
    {
      "inputs": [],
      "name": "depositEthKYB",
      "outputs": [],
      "stateMutability": "payable",
      "type": "function"
    },
    {
      "inputs": [],
      "name": "getBalance",
      "outputs": [
        {
          "internalType": "uint256",
          "name": "",
          "type": "uint256"
        }
      ],
      "stateMutability": "view",
      "type": "function"
    },
    {
      "inputs": [],
      "name": "is_BUSINESS",
      "outputs": [
        {
          "internalType": "bytes32",
          "name": "",
          "type": "bytes32"
        }
      ],
      "stateMutability": "view",
      "type": "function"
    },
    {
      "inputs": [],
      "name": "openPubPool",
      "outputs": [],
      "stateMutability": "nonpayable",
      "type": "function"
    },
    {
      "inputs": [],
      "name": "owner",
      "outputs": [
        {
          "internalType": "address",
          "name": "",
          "type": "address"
        }
      ],
      "stateMutability": "view",
      "type": "function"
    },
    {
      "inputs": [],
      "name": "quadrataContract",
      "outputs": [
        {
          "internalType": "address",
          "name": "",
          "type": "address"
        }
      ],
      "stateMutability": "view",
      "type": "function"
    },
    {
      "inputs": [],
      "name": "renounceOwnership",
      "outputs": [],
      "stateMutability": "nonpayable",
      "type": "function"
    },
    {
      "inputs": [
        {
          "internalType": "uint256",
          "name": "",
          "type": "uint256"
        }
      ],
      "name": "tokenIDtoValidator",
      "outputs": [
        {
          "internalType": "address",
          "name": "",
          "type": "address"
        }
      ],
      "stateMutability": "view",
      "type": "function"
    },
    {
      "inputs": [
        {
          "internalType": "address",
          "name": "newOwner",
          "type": "address"
        }
      ],
      "name": "transferOwnership",
      "outputs": [],
      "stateMutability": "nonpayable",
      "type": "function"
    },
    {
      "inputs": [
        {
          "internalType": "uint256",
          "name": "_tokenID",
          "type": "uint256"
        },
        {
          "internalType": "address",
          "name": "_vali",
          "type": "address"
        }
      ],
      "name": "updateValidator",
      "outputs": [],
      "stateMutability": "nonpayable",
      "type": "function"
    },
    {
      "inputs": [
        {
          "internalType": "address",
          "name": "_sender",
          "type": "address"
        }
      ],
      "name": "verified",
      "outputs": [
        {
          "internalType": "bool",
          "name": "",
          "type": "bool"
        }
      ],
      "stateMutability": "view",
      "type": "function"
    },
    {
      "inputs": [
        {
          "internalType": "uint256",
          "name": "_amount",
          "type": "uint256"
        }
      ],
      "name": "withdrawAny",
      "outputs": [],
      "stateMutability": "nonpayable",
      "type": "function"
    },
    {
      "inputs": [],
      "name": "withdrawBatch",
      "outputs": [],
      "stateMutability": "nonpayable",
      "type": "function"
    }
  ],
  "bytecode": {
    "object": "0x6080604052600280546001600160a01b0319169055600060035534801561002557600080fd5b50604051610cbb380380610cbb833981016040819052610044916100c9565b600160005561005233610077565b600280546001600160a01b0319166001600160a01b03929092169190911790556100f9565b600180546001600160a01b038381166001600160a01b0319831681179093556040519116919082907f8be0079c531659141344cd1fd0a4f28419497f9722a3daafe3b4186f6b6457e090600090a35050565b6000602082840312156100db57600080fd5b81516001600160a01b03811681146100f257600080fd5b9392505050565b610bb3806101086000396000f3fe6080604052600436106100e85760003560e01c8063715018a61161008a578063a4e0db7e11610059578063a4e0db7e14610273578063ef31c32414610294578063f2fde38b146102a9578063f6b21af2146102c957600080fd5b8063715018a6146101ea57806377ad99f0146101ff578063825861051461021f5780638da5cb5b1461025557600080fd5b8063158dc875116100c6578063158dc875146101775780634d5a1c1f1461018e5780635a27cbcb146101c257806362a4f740146101e257600080fd5b80630db065f4146100ed5780630e87d0d91461012257806312065fe01461015a575b600080fd5b3480156100f957600080fd5b5061010d610108366004610ab2565b6102de565b60405190151581526020015b60405180910390f35b34801561012e57600080fd5b50600254610142906001600160a01b031681565b6040516001600160a01b039091168152602001610119565b34801561016657600080fd5b50475b604051908152602001610119565b34801561018357600080fd5b5061018c610380565b005b34801561019a57600080fd5b506101697faf369ce728c816785c72f1ff0222ca9553b2cb93729d6a803be6af0d2369239b81565b3480156101ce57600080fd5b5061018c6101dd366004610ad4565b61043f565b61018c6104e5565b3480156101f657600080fd5b5061018c6106dc565b34801561020b57600080fd5b5061018c61021a366004610b00565b6106ee565b34801561022b57600080fd5b5061014261023a366004610b00565b6005602052600090815260409020546001600160a01b031681565b34801561026157600080fd5b506001546001600160a01b0316610142565b34801561027f57600080fd5b5060025461010d90600160a01b900460ff1681565b3480156102a057600080fd5b5061018c610741565b3480156102b557600080fd5b5061018c6102c4366004610ab2565b610796565b3480156102d557600080fd5b5061018c61080f565b60025460405163d8b5ab6760e01b81526001600160a01b038381166004830152600160248301527faf369ce728c816785c72f1ff0222ca9553b2cb93729d6a803be6af0d2369239b6044830152600092169063d8b5ab6790606401602060405180830381865afa158015610356573d6000803e3d6000fd5b505050506040513d601f19601f8201168201806040525081019061037a9190610b19565b92915050565b610388610911565b600254600160a01b900460ff16156103e75760405162461bcd60e51b815260206004820152601860248201527f5075626c696320706f6f6c20616c7265616479206f70656e000000000000000060448201526064015b60405180910390fd5b6002805460ff60a01b1916600160a01b908117918290556040517e8dd3e93baa4fe7895976ab5b545c723c8d89b05b913777bfba4bfa899e2a449261043592900460ff161515815260200190565b60405180910390a1565b610447610911565b60008281526005602052604081205461046b916001600160a01b039091169061096b565b6104b75760405162461bcd60e51b815260206004820152601860248201527f56616c696461746f7220697320616c726561647920736574000000000000000060448201526064016103de565b60009182526005602052604090912080546001600160a01b0319166001600160a01b03909216919091179055565b6104ed6109eb565b60006104f93447610b51565b61050c906801bc16d674ed189680610b51565b600254909150600160a01b900460ff1615156001146105935760405162461bcd60e51b815260206004820152603e60248201527f5075626c696320706f6f6c2069732063757272656e746c7920636c6f7365642e60448201527f20506c65617365207761697420666f7220746865206e657874206f6e652e000060648201526084016103de565b803411156106445760405162461bcd60e51b815260206004820152606c60248201527f596f752061726520747279696e6720746f206465706f736974206d6f7265207460448201527f68616e207468652063757272656e7420706f6f6c2063616e20686f6c642e205060648201527f6c65617365207761697420666f7220746865206e657874206f6e65206f72206460848201526b32b837b9b4ba103632b9b99760a11b60a482015260c4016103de565b6801a055690d9db80000471015801561066557506801bc16d674ec80000047105b156106a2576040514781527fb460249bd2b5d39774483350298177c130ed6f9ea9fe44be023d931cc8f4086f9060200160405180910390a16106cf565b6801bc16d674ec80000047106106cf57600380549060006106c283610b64565b91905055506106cf610749565b506106da6001600055565b565b6106e4610911565b6106da6000610a44565b6106f6610911565b4781111561070357600080fd5b6001546040516001600160a01b039091169082156108fc029083906000818181858888f1935050505015801561073d573d6000803e3d6000fd5b5050565b610749610911565b6002805460ff60a01b1916908190556040517f3a7713b5c95bd34fb811d85c9797ca678591fbbb6ffc6f06e009bc863e9546b59161043591600160a01b90910460ff161515815260200190565b61079e610911565b6001600160a01b0381166108035760405162461bcd60e51b815260206004820152602660248201527f4f776e61626c653a206e6577206f776e657220697320746865207a65726f206160448201526564647265737360d01b60648201526084016103de565b61080c81610a44565b50565b610817610911565b600254600160a01b900460ff161561088b5760405162461bcd60e51b815260206004820152603160248201527f5075626c696320706f6f6c206973207374696c6c206f70656e2e20506c656173604482015270329031b637b9b29034ba103334b939ba1760791b60648201526084016103de565b476801bc16d674ec800000146108d35760405162461bcd60e51b815260206004820152600d60248201526c141bdbdb081b9bdd08199d5b1b609a1b60448201526064016103de565b6001546040516001600160a01b03909116906000906801bc16d674ec8000009082818181858883f1935050505015801561080c573d6000803e3d6000fd5b6001546001600160a01b031633146106da5760405162461bcd60e51b815260206004820181905260248201527f4f776e61626c653a2063616c6c6572206973206e6f7420746865206f776e657260448201526064016103de565b6040516bffffffffffffffffffffffff19606083901b16602082015260009060340160405160208183030381529060405280519060200120836040516020016109cc919060609190911b6bffffffffffffffffffffffff1916815260140190565b6040516020818303038152906040528051906020012014905092915050565b600260005403610a3d5760405162461bcd60e51b815260206004820152601f60248201527f5265656e7472616e637947756172643a207265656e7472616e742063616c6c0060448201526064016103de565b6002600055565b600180546001600160a01b038381166001600160a01b0319831681179093556040519116919082907f8be0079c531659141344cd1fd0a4f28419497f9722a3daafe3b4186f6b6457e090600090a35050565b80356001600160a01b0381168114610aad57600080fd5b919050565b600060208284031215610ac457600080fd5b610acd82610a96565b9392505050565b60008060408385031215610ae757600080fd5b82359150610af760208401610a96565b90509250929050565b600060208284031215610b1257600080fd5b5035919050565b600060208284031215610b2b57600080fd5b81518015158114610acd57600080fd5b634e487b7160e01b600052601160045260246000fd5b8181038181111561037a5761037a610b3b565b600060018201610b7657610b76610b3b565b506001019056fea264697066735822122051e27289a69440d2de6323ad7b0c55a0df13028aab31542d7172735f56aa6af064736f6c63430008110033",
    "linkReferences": {}
  },
  "methodIdentifiers": {
    "allowPubDeposit()": "a4e0db7e",
    "closePubPool()": "ef31c324",
    "depositEthKYB()": "62a4f740",
    "getBalance()": "12065fe0",
    "is_BUSINESS()": "4d5a1c1f",
    "openPubPool()": "158dc875",
    "owner()": "8da5cb5b",
    "quadrataContract()": "0e87d0d9",
    "renounceOwnership()": "715018a6",
    "tokenIDtoValidator(uint256)": "82586105",
    "transferOwnership(address)": "f2fde38b",
    "updateValidator(uint256,address)": "5a27cbcb",
    "verified(address)": "0db065f4",
    "withdrawAny(uint256)": "77ad99f0",
    "withdrawBatch()": "f6b21af2"
  },
  "id": 14
}