{
  "abi": [
    {
      "inputs": [
        {
          "internalType": "address",
          "name": "_quadrataContract",
          "type": "address"
        }
      ],
      "stateMutability": "nonpayable",
      "type": "constructor"
    },
    {
      "anonymous": false,
      "inputs": [
        {
          "indexed": true,
          "internalType": "address",
          "name": "previousOwner",
          "type": "address"
        },
        {
          "indexed": true,
          "internalType": "address",
          "name": "newOwner",
          "type": "address"
        }
      ],
      "name": "OwnershipTransferred",
      "type": "event"
    },
    {
      "anonymous": false,
      "inputs": [
        {
          "indexed": false,
          "internalType": "bool",
          "name": "_value",
          "type": "bool"
        }
      ],
      "name": "PubPoolClosed",
      "type": "event"
    },
    {
      "anonymous": false,
      "inputs": [
        {
          "indexed": false,
          "internalType": "uint256",
          "name": "_value",
          "type": "uint256"
        }
      ],
      "name": "PubPoolLimitedNearlyReached",
      "type": "event"
    },
    {
      "anonymous": false,
      "inputs": [
        {
          "indexed": false,
          "internalType": "bool",
          "name": "_value",
          "type": "bool"
        }
      ],
      "name": "PubPoolOpend",
      "type": "event"
    },
    {
      "anonymous": false,
      "inputs": [
        {
          "indexed": false,
          "internalType": "uint256",
          "name": "_tokenID",
          "type": "uint256"
        },
        {
          "indexed": false,
          "internalType": "address",
          "name": "_user",
          "type": "address"
        },
        {
          "indexed": false,
          "internalType": "uint256",
          "name": "_fee",
          "type": "uint256"
        },
        {
          "indexed": false,
          "internalType": "uint256",
          "name": "_stakedETH",
          "type": "uint256"
        }
      ],
      "name": "UserRequestedWithdrawal",
      "type": "event"
    },
    {
      "inputs": [],
      "name": "allowPubDeposit",
      "outputs": [
        {
          "internalType": "bool",
          "name": "",
          "type": "bool"
        }
      ],
      "stateMutability": "view",
      "type": "function"
    },
    {
      "inputs": [],
      "name": "closePubPool",
      "outputs": [],
      "stateMutability": "nonpayable",
      "type": "function"
    },
    {
      "inputs": [],
      "name": "depositEthKYB",
      "outputs": [],
      "stateMutability": "payable",
      "type": "function"
    },
    {
      "inputs": [
        {
          "internalType": "bytes",
          "name": "pubkey",
          "type": "bytes"
        },
        {
          "internalType": "uint32[]",
          "name": "operatorIds",
          "type": "uint32[]"
        },
        {
          "internalType": "bytes[]",
          "name": "sharesPublicKeys",
          "type": "bytes[]"
        },
        {
          "internalType": "bytes[]",
          "name": "sharesEncrypted",
          "type": "bytes[]"
        },
        {
          "internalType": "uint256",
          "name": "amount",
          "type": "uint256"
        }
      ],
      "name": "depositSSV",
      "outputs": [],
      "stateMutability": "nonpayable",
      "type": "function"
    },
    {
      "inputs": [],
      "name": "getBalance",
      "outputs": [
        {
          "internalType": "uint256",
          "name": "",
          "type": "uint256"
        }
      ],
      "stateMutability": "view",
      "type": "function"
    },
    {
      "inputs": [],
      "name": "is_BUSINESS",
      "outputs": [
        {
          "internalType": "bytes32",
          "name": "",
          "type": "bytes32"
        }
      ],
      "stateMutability": "view",
      "type": "function"
    },
    {
      "inputs": [],
      "name": "openPubPool",
      "outputs": [],
      "stateMutability": "nonpayable",
      "type": "function"
    },
    {
      "inputs": [],
      "name": "owner",
      "outputs": [
        {
          "internalType": "address",
          "name": "",
          "type": "address"
        }
      ],
      "stateMutability": "view",
      "type": "function"
    },
    {
      "inputs": [],
      "name": "quadrataContract",
      "outputs": [
        {
          "internalType": "address",
          "name": "",
          "type": "address"
        }
      ],
      "stateMutability": "view",
      "type": "function"
    },
    {
      "inputs": [],
      "name": "renounceOwnership",
      "outputs": [],
      "stateMutability": "nonpayable",
      "type": "function"
    },
    {
      "inputs": [
        {
          "internalType": "uint256",
          "name": "",
          "type": "uint256"
        }
      ],
      "name": "tokenIDtoValidator",
      "outputs": [
        {
          "internalType": "address",
          "name": "",
          "type": "address"
        }
      ],
      "stateMutability": "view",
      "type": "function"
    },
    {
      "inputs": [
        {
          "internalType": "address",
          "name": "newOwner",
          "type": "address"
        }
      ],
      "name": "transferOwnership",
      "outputs": [],
      "stateMutability": "nonpayable",
      "type": "function"
    },
    {
      "inputs": [
        {
          "internalType": "uint256",
          "name": "_tokenID",
          "type": "uint256"
        },
        {
          "internalType": "address",
          "name": "_vali",
          "type": "address"
        }
      ],
      "name": "updateValidator",
      "outputs": [],
      "stateMutability": "nonpayable",
      "type": "function"
    },
    {
      "inputs": [
        {
          "internalType": "address",
          "name": "_sender",
          "type": "address"
        }
      ],
      "name": "verified",
      "outputs": [
        {
          "internalType": "bool",
          "name": "",
          "type": "bool"
        }
      ],
      "stateMutability": "view",
      "type": "function"
    },
    {
      "inputs": [
        {
          "internalType": "uint256",
          "name": "_amount",
          "type": "uint256"
        }
      ],
      "name": "withdrawAny",
      "outputs": [],
      "stateMutability": "nonpayable",
      "type": "function"
    },
    {
      "inputs": [],
      "name": "withdrawBatch",
      "outputs": [],
      "stateMutability": "nonpayable",
      "type": "function"
    }
  ],
  "bytecode": {
    "object": "0x6080604052600280546001600160a01b0319169055600060035534801561002557600080fd5b50604051611123380380611123833981016040819052610044916100c9565b600160005561005233610077565b600280546001600160a01b0319166001600160a01b03929092169190911790556100f9565b600180546001600160a01b038381166001600160a01b0319831681179093556040519116919082907f8be0079c531659141344cd1fd0a4f28419497f9722a3daafe3b4186f6b6457e090600090a35050565b6000602082840312156100db57600080fd5b81516001600160a01b03811681146100f257600080fd5b9392505050565b61101b806101086000396000f3fe6080604052600436106100f35760003560e01c806377ad99f01161008a578063ef31c32411610059578063ef31c3241461029f578063f2fde38b146102b4578063f6449afc146102d4578063f6b21af2146102f457600080fd5b806377ad99f01461020a578063825861051461022a5780638da5cb5b14610260578063a4e0db7e1461027e57600080fd5b80634d5a1c1f116100c65780634d5a1c1f146101995780635a27cbcb146101cd57806362a4f740146101ed578063715018a6146101f557600080fd5b80630db065f4146100f85780630e87d0d91461012d57806312065fe014610165578063158dc87514610182575b600080fd5b34801561010457600080fd5b50610118610113366004610c66565b610309565b60405190151581526020015b60405180910390f35b34801561013957600080fd5b5060025461014d906001600160a01b031681565b6040516001600160a01b039091168152602001610124565b34801561017157600080fd5b50475b604051908152602001610124565b34801561018e57600080fd5b506101976103bd565b005b3480156101a557600080fd5b506101747faf369ce728c816785c72f1ff0222ca9553b2cb93729d6a803be6af0d2369239b81565b3480156101d957600080fd5b506101976101e8366004610c88565b61047c565b610197610522565b34801561020157600080fd5b5061019761077a565b34801561021657600080fd5b50610197610225366004610cb4565b61078c565b34801561023657600080fd5b5061014d610245366004610cb4565b6005602052600090815260409020546001600160a01b031681565b34801561026c57600080fd5b506001546001600160a01b031661014d565b34801561028a57600080fd5b5060025461011890600160a01b900460ff1681565b3480156102ab57600080fd5b506101976107df565b3480156102c057600080fd5b506101976102cf366004610c66565b610834565b3480156102e057600080fd5b506101976102ef366004610d19565b6108ad565b34801561030057600080fd5b506101976109c2565b6002546040516326985b5f60e11b81526001600160a01b0383811660048301527faf369ce728c816785c72f1ff0222ca9553b2cb93729d6a803be6af0d2369239b60248301526000928392911690634d30b6be90604401602060405180830381865afa15801561037d573d6000803e3d6000fd5b505050506040513d601f19601f820116820180604052508101906103a19190610e10565b9050600181106103b45750600192915050565b50600092915050565b6103c5610ac4565b600254600160a01b900460ff16156104245760405162461bcd60e51b815260206004820152601860248201527f5075626c696320706f6f6c20616c7265616479206f70656e000000000000000060448201526064015b60405180910390fd5b6002805460ff60a01b1916600160a01b908117918290556040517e8dd3e93baa4fe7895976ab5b545c723c8d89b05b913777bfba4bfa899e2a449261047292900460ff161515815260200190565b60405180910390a1565b610484610ac4565b6000828152600560205260408120546104a8916001600160a01b0390911690610b1e565b6104f45760405162461bcd60e51b815260206004820152601860248201527f56616c696461746f7220697320616c7265616479207365740000000000000000604482015260640161041b565b60009182526005602052604090912080546001600160a01b0319166001600160a01b03909216919091179055565b61052a610b9f565b61053333610309565b61058b5760405162461bcd60e51b8152602060048201526024808201527f596f7520617265206e6f74206120766572696669656420627573696e657373206044820152633cb2ba1760e11b606482015260840161041b565b60006105973447610e3f565b6105aa906801bc16d674ed189680610e3f565b600254909150600160a01b900460ff1615156001146106315760405162461bcd60e51b815260206004820152603e60248201527f5075626c696320706f6f6c2069732063757272656e746c7920636c6f7365642e60448201527f20506c65617365207761697420666f7220746865206e657874206f6e652e0000606482015260840161041b565b803411156106e25760405162461bcd60e51b815260206004820152606c60248201527f596f752061726520747279696e6720746f206465706f736974206d6f7265207460448201527f68616e207468652063757272656e7420706f6f6c2063616e20686f6c642e205060648201527f6c65617365207761697420666f7220746865206e657874206f6e65206f72206460848201526b32b837b9b4ba103632b9b99760a11b60a482015260c40161041b565b6801a055690d9db80000471015801561070357506801bc16d674ec80000047105b15610740576040514781527fb460249bd2b5d39774483350298177c130ed6f9ea9fe44be023d931cc8f4086f9060200160405180910390a161076d565b6801bc16d674ec800000471061076d576003805490600061076083610e52565b919050555061076d6107e7565b506107786001600055565b565b610782610ac4565b6107786000610bf8565b610794610ac4565b478111156107a157600080fd5b6001546040516001600160a01b039091169082156108fc029083906000818181858888f193505050501580156107db573d6000803e3d6000fd5b5050565b6107e7610ac4565b6002805460ff60a01b1916908190556040517f3a7713b5c95bd34fb811d85c9797ca678591fbbb6ffc6f06e009bc863e9546b59161047291600160a01b90910460ff161515815260200190565b61083c610ac4565b6001600160a01b0381166108a15760405162461bcd60e51b815260206004820152602660248201527f4f776e61626c653a206e6577206f776e657220697320746865207a65726f206160448201526564647265737360d01b606482015260840161041b565b6108aa81610bf8565b50565b60405163095ea7b360e01b815273b9e155e65b5c4d66df28da8e9a0957f06f11bc04600482015260248101829052733a9f01091c446bde031e39ea8354647afef091e79063095ea7b3906044016020604051808303816000875af1158015610919573d6000803e3d6000fd5b505050506040513d601f19601f8201168201806040525081019061093d9190610e6b565b5060405163e40cb19d60e01b815273b9e155e65b5c4d66df28da8e9a0957f06f11bc049063e40cb19d90610985908c908c908c908c908c908c908c908c908c90600401610f48565b600060405180830381600087803b15801561099f57600080fd5b505af11580156109b3573d6000803e3d6000fd5b50505050505050505050505050565b6109ca610ac4565b600254600160a01b900460ff1615610a3e5760405162461bcd60e51b815260206004820152603160248201527f5075626c696320706f6f6c206973207374696c6c206f70656e2e20506c656173604482015270329031b637b9b29034ba103334b939ba1760791b606482015260840161041b565b476801bc16d674ec80000014610a865760405162461bcd60e51b815260206004820152600d60248201526c141bdbdb081b9bdd08199d5b1b609a1b604482015260640161041b565b6001546040516001600160a01b03909116906000906801bc16d674ec8000009082818181858883f193505050501580156108aa573d6000803e3d6000fd5b6001546001600160a01b031633146107785760405162461bcd60e51b815260206004820181905260248201527f4f776e61626c653a2063616c6c6572206973206e6f7420746865206f776e6572604482015260640161041b565b6040516bffffffffffffffffffffffff19606083901b1660208201526000906034016040516020818303038152906040528051906020012083604051602001610b7f919060609190911b6bffffffffffffffffffffffff1916815260140190565b604051602081830303815290604052805190602001201490505b92915050565b600260005403610bf15760405162461bcd60e51b815260206004820152601f60248201527f5265656e7472616e637947756172643a207265656e7472616e742063616c6c00604482015260640161041b565b6002600055565b600180546001600160a01b038381166001600160a01b0319831681179093556040519116919082907f8be0079c531659141344cd1fd0a4f28419497f9722a3daafe3b4186f6b6457e090600090a35050565b80356001600160a01b0381168114610c6157600080fd5b919050565b600060208284031215610c7857600080fd5b610c8182610c4a565b9392505050565b60008060408385031215610c9b57600080fd5b82359150610cab60208401610c4a565b90509250929050565b600060208284031215610cc657600080fd5b5035919050565b60008083601f840112610cdf57600080fd5b50813567ffffffffffffffff811115610cf757600080fd5b6020830191508360208260051b8501011115610d1257600080fd5b9250929050565b600080600080600080600080600060a08a8c031215610d3757600080fd5b893567ffffffffffffffff80821115610d4f57600080fd5b818c0191508c601f830112610d6357600080fd5b813581811115610d7257600080fd5b8d6020828501011115610d8457600080fd5b60209283019b509950908b01359080821115610d9f57600080fd5b610dab8d838e01610ccd565b909950975060408c0135915080821115610dc457600080fd5b610dd08d838e01610ccd565b909750955060608c0135915080821115610de957600080fd5b50610df68c828d01610ccd565b9a9d999c50979a9699959894979660800135949350505050565b600060208284031215610e2257600080fd5b5051919050565b634e487b7160e01b600052601160045260246000fd5b81810381811115610b9957610b99610e29565b600060018201610e6457610e64610e29565b5060010190565b600060208284031215610e7d57600080fd5b81518015158114610c8157600080fd5b81835281816020850137506000828201602090810191909152601f909101601f19169091010190565b81835260006020808501808196508560051b810191508460005b87811015610f3b5782840389528135601e19883603018112610ef157600080fd5b8701858101903567ffffffffffffffff811115610f0d57600080fd5b803603821315610f1c57600080fd5b610f27868284610e8d565b9a87019a9550505090840190600101610ed0565b5091979650505050505050565b60a081526000610f5c60a083018b8d610e8d565b8281036020848101919091528982528a9181016000805b8c811015610fa257843563ffffffff8116808214610f8f578384fd5b8452509383019391830191600101610f73565b50508481036040860152610fb7818a8c610eb6565b925050508281036060840152610fce818688610eb6565b9150508260808301529a995050505050505050505056fea264697066735822122067431e5cb664088cc3b0a553d22bb54474497f041b53856f2facba554e6bb35064736f6c63430008110033",
    "linkReferences": {}
  },
  "methodIdentifiers": {
    "allowPubDeposit()": "a4e0db7e",
    "closePubPool()": "ef31c324",
    "depositEthKYB()": "62a4f740",
    "depositSSV(bytes,uint32[],bytes[],bytes[],uint256)": "f6449afc",
    "getBalance()": "12065fe0",
    "is_BUSINESS()": "4d5a1c1f",
    "openPubPool()": "158dc875",
    "owner()": "8da5cb5b",
    "quadrataContract()": "0e87d0d9",
    "renounceOwnership()": "715018a6",
    "tokenIDtoValidator(uint256)": "82586105",
    "transferOwnership(address)": "f2fde38b",
    "updateValidator(uint256,address)": "5a27cbcb",
    "verified(address)": "0db065f4",
    "withdrawAny(uint256)": "77ad99f0",
    "withdrawBatch()": "f6b21af2"
  },
  "id": 15
}