{
  "abi": [
    {
      "inputs": [
        {
          "internalType": "address",
          "name": "_quadrataContract",
          "type": "address"
        }
      ],
      "stateMutability": "nonpayable",
      "type": "constructor"
    },
    {
      "anonymous": false,
      "inputs": [
        {
          "indexed": true,
          "internalType": "address",
          "name": "previousOwner",
          "type": "address"
        },
        {
          "indexed": true,
          "internalType": "address",
          "name": "newOwner",
          "type": "address"
        }
      ],
      "name": "OwnershipTransferred",
      "type": "event"
    },
    {
      "anonymous": false,
      "inputs": [
        {
          "indexed": false,
          "internalType": "bool",
          "name": "_value",
          "type": "bool"
        }
      ],
      "name": "PubPoolClosed",
      "type": "event"
    },
    {
      "anonymous": false,
      "inputs": [
        {
          "indexed": false,
          "internalType": "uint256",
          "name": "_value",
          "type": "uint256"
        }
      ],
      "name": "PubPoolLimitedNearlyReached",
      "type": "event"
    },
    {
      "anonymous": false,
      "inputs": [
        {
          "indexed": false,
          "internalType": "bool",
          "name": "_value",
          "type": "bool"
        }
      ],
      "name": "PubPoolOpend",
      "type": "event"
    },
    {
      "anonymous": false,
      "inputs": [
        {
          "indexed": false,
          "internalType": "uint256",
          "name": "_tokenID",
          "type": "uint256"
        },
        {
          "indexed": false,
          "internalType": "address",
          "name": "_user",
          "type": "address"
        },
        {
          "indexed": false,
          "internalType": "uint256",
          "name": "_fee",
          "type": "uint256"
        },
        {
          "indexed": false,
          "internalType": "uint256",
          "name": "_stakedETH",
          "type": "uint256"
        }
      ],
      "name": "UserRequestedWithdrawal",
      "type": "event"
    },
    {
      "inputs": [],
      "name": "allowPubDeposit",
      "outputs": [
        {
          "internalType": "bool",
          "name": "",
          "type": "bool"
        }
      ],
      "stateMutability": "view",
      "type": "function"
    },
    {
      "inputs": [],
      "name": "closePubPool",
      "outputs": [],
      "stateMutability": "nonpayable",
      "type": "function"
    },
    {
      "inputs": [],
      "name": "depositEthKYB",
      "outputs": [],
      "stateMutability": "payable",
      "type": "function"
    },
    {
      "inputs": [
        {
          "internalType": "uint32[]",
          "name": "operatorIds",
          "type": "uint32[]"
        },
        {
          "internalType": "uint256",
          "name": "amount",
          "type": "uint256"
        }
      ],
      "name": "depositSSV",
      "outputs": [],
      "stateMutability": "nonpayable",
      "type": "function"
    },
    {
      "inputs": [],
      "name": "getBalance",
      "outputs": [
        {
          "internalType": "uint256",
          "name": "",
          "type": "uint256"
        }
      ],
      "stateMutability": "view",
      "type": "function"
    },
    {
      "inputs": [],
      "name": "getOperators",
      "outputs": [
        {
          "internalType": "uint32[4]",
          "name": "OperatorIDs",
          "type": "uint32[4]"
        }
      ],
      "stateMutability": "pure",
      "type": "function"
    },
    {
      "inputs": [],
      "name": "is_BUSINESS",
      "outputs": [
        {
          "internalType": "bytes32",
          "name": "",
          "type": "bytes32"
        }
      ],
      "stateMutability": "view",
      "type": "function"
    },
    {
      "inputs": [],
      "name": "openPubPool",
      "outputs": [],
      "stateMutability": "nonpayable",
      "type": "function"
    },
    {
      "inputs": [],
      "name": "owner",
      "outputs": [
        {
          "internalType": "address",
          "name": "",
          "type": "address"
        }
      ],
      "stateMutability": "view",
      "type": "function"
    },
    {
      "inputs": [],
      "name": "quadrataContract",
      "outputs": [
        {
          "internalType": "address",
          "name": "",
          "type": "address"
        }
      ],
      "stateMutability": "view",
      "type": "function"
    },
    {
      "inputs": [],
      "name": "renounceOwnership",
      "outputs": [],
      "stateMutability": "nonpayable",
      "type": "function"
    },
    {
      "inputs": [
        {
          "internalType": "uint256",
          "name": "",
          "type": "uint256"
        }
      ],
      "name": "tokenIDtoValidator",
      "outputs": [
        {
          "internalType": "address",
          "name": "",
          "type": "address"
        }
      ],
      "stateMutability": "view",
      "type": "function"
    },
    {
      "inputs": [
        {
          "internalType": "address",
          "name": "newOwner",
          "type": "address"
        }
      ],
      "name": "transferOwnership",
      "outputs": [],
      "stateMutability": "nonpayable",
      "type": "function"
    },
    {
      "inputs": [
        {
          "internalType": "uint256",
          "name": "_tokenID",
          "type": "uint256"
        },
        {
          "internalType": "address",
          "name": "_vali",
          "type": "address"
        }
      ],
      "name": "updateValidator",
      "outputs": [],
      "stateMutability": "nonpayable",
      "type": "function"
    },
    {
      "inputs": [
        {
          "internalType": "address",
          "name": "_sender",
          "type": "address"
        }
      ],
      "name": "verified",
      "outputs": [
        {
          "internalType": "bool",
          "name": "",
          "type": "bool"
        }
      ],
      "stateMutability": "view",
      "type": "function"
    },
    {
      "inputs": [
        {
          "internalType": "uint256",
          "name": "_amount",
          "type": "uint256"
        }
      ],
      "name": "withdrawAny",
      "outputs": [],
      "stateMutability": "nonpayable",
      "type": "function"
    },
    {
      "inputs": [],
      "name": "withdrawBatch",
      "outputs": [],
      "stateMutability": "nonpayable",
      "type": "function"
    }
  ],
  "bytecode": {
    "object": "0x6080604052600280546001600160a01b0319169055600060035534801561002557600080fd5b506040516200308d3803806200308d833981016040819052610046916100cb565b600160005561005433610079565b600280546001600160a01b0319166001600160a01b03929092169190911790556100fb565b600180546001600160a01b038381166001600160a01b0319831681179093556040519116919082907f8be0079c531659141344cd1fd0a4f28419497f9722a3daafe3b4186f6b6457e090600090a35050565b6000602082840312156100dd57600080fd5b81516001600160a01b03811681146100f457600080fd5b9392505050565b612f82806200010b6000396000f3fe60806040526004361061010e5760003560e01c8063715018a6116100a55780639203affa11610074578063ef31c32411610059578063ef31c32414610341578063f2fde38b14610356578063f6b21af21461037657600080fd5b80639203affa146102ef578063a4e0db7e1461030f57600080fd5b8063715018a61461024c57806377ad99f01461026157806382586105146102815780638da5cb5b146102c457600080fd5b806327a099d8116100e157806327a099d8146101ce5780634d5a1c1f146101f05780635a27cbcb1461022457806362a4f7401461024457600080fd5b80630db065f4146101135780630e87d0d91461014857806312065fe01461019a578063158dc875146101b7575b600080fd5b34801561011f57600080fd5b5061013361012e366004611248565b61038b565b60405190151581526020015b60405180910390f35b34801561015457600080fd5b506002546101759073ffffffffffffffffffffffffffffffffffffffff1681565b60405173ffffffffffffffffffffffffffffffffffffffff909116815260200161013f565b3480156101a657600080fd5b50475b60405190815260200161013f565b3480156101c357600080fd5b506101cc61046b565b005b3480156101da57600080fd5b506101e3610581565b60405161013f919061126a565b3480156101fc57600080fd5b506101a97faf369ce728c816785c72f1ff0222ca9553b2cb93729d6a803be6af0d2369239b81565b34801561023057600080fd5b506101cc61023f3660046112a1565b6105b2565b6101cc6106a4565b34801561025857600080fd5b506101cc610985565b34801561026d57600080fd5b506101cc61027c3660046112cd565b610997565b34801561028d57600080fd5b5061017561029c3660046112cd565b60056020526000908152604090205473ffffffffffffffffffffffffffffffffffffffff1681565b3480156102d057600080fd5b5060015473ffffffffffffffffffffffffffffffffffffffff16610175565b3480156102fb57600080fd5b506101cc61030a366004611329565b6109f7565b34801561031b57600080fd5b506002546101339074010000000000000000000000000000000000000000900460ff1681565b34801561034d57600080fd5b506101cc610d47565b34801561036257600080fd5b506101cc610371366004611248565b610dc8565b34801561038257600080fd5b506101cc610e7f565b6002546040517f4d30b6be00000000000000000000000000000000000000000000000000000000815273ffffffffffffffffffffffffffffffffffffffff83811660048301527faf369ce728c816785c72f1ff0222ca9553b2cb93729d6a803be6af0d2369239b60248301526000928392911690634d30b6be90604401602060405180830381865afa158015610425573d6000803e3d6000fd5b505050506040513d601f19601f820116820180604052508101906104499190611412565b90506001811061045c5750600192915050565b50600092915050565b50919050565b610473610fef565b60025474010000000000000000000000000000000000000000900460ff16156104fd576040517f08c379a000000000000000000000000000000000000000000000000000000000815260206004820152601860248201527f5075626c696320706f6f6c20616c7265616479206f70656e000000000000000060448201526064015b60405180910390fd5b600280547fffffffffffffffffffffff00ffffffffffffffffffffffffffffffffffffffff1674010000000000000000000000000000000000000000908117918290556040517e8dd3e93baa4fe7895976ab5b545c723c8d89b05b913777bfba4bfa899e2a449261057792900460ff161515815260200190565b60405180910390a1565b610589611201565b5060408051608081018252602a8152600260208201526009918101919091526053606082015290565b6105ba610fef565b6000828152600560205260408120546105eb9173ffffffffffffffffffffffffffffffffffffffff90911690611070565b610651576040517f08c379a000000000000000000000000000000000000000000000000000000000815260206004820152601860248201527f56616c696461746f7220697320616c726561647920736574000000000000000060448201526064016104f4565b60009182526005602052604090912080547fffffffffffffffffffffffff00000000000000000000000000000000000000001673ffffffffffffffffffffffffffffffffffffffff909216919091179055565b6106ac611117565b6106b53361038b565b610740576040517f08c379a0000000000000000000000000000000000000000000000000000000008152602060048201526024808201527f596f7520617265206e6f74206120766572696669656420627573696e6573732060448201527f7965742e0000000000000000000000000000000000000000000000000000000060648201526084016104f4565b600061074c344761145a565b61075f906801bc16d674ed18968061145a565b60025490915074010000000000000000000000000000000000000000900460ff161515600114610811576040517f08c379a000000000000000000000000000000000000000000000000000000000815260206004820152603e60248201527f5075626c696320706f6f6c2069732063757272656e746c7920636c6f7365642e60448201527f20506c65617365207761697420666f7220746865206e657874206f6e652e000060648201526084016104f4565b803411156108ed576040517f08c379a000000000000000000000000000000000000000000000000000000000815260206004820152606c60248201527f596f752061726520747279696e6720746f206465706f736974206d6f7265207460448201527f68616e207468652063757272656e7420706f6f6c2063616e20686f6c642e205060648201527f6c65617365207761697420666f7220746865206e657874206f6e65206f72206460848201527f65706f736974206c6573732e000000000000000000000000000000000000000060a482015260c4016104f4565b6801a055690d9db80000471015801561090e57506801bc16d674ec80000047105b1561094b576040514781527fb460249bd2b5d39774483350298177c130ed6f9ea9fe44be023d931cc8f4086f9060200160405180910390a1610978565b6801bc16d674ec8000004710610978576003805490600061096b8361146d565b9190505550610978610d4f565b506109836001600055565b565b61098d610fef565b610983600061118a565b61099f610fef565b478111156109ac57600080fd5b60015460405173ffffffffffffffffffffffffffffffffffffffff9091169082156108fc029083906000818181858888f193505050501580156109f3573d6000803e3d6000fd5b5050565b60006040518060a00160405280606281526020016118536062913990506006604051806102a001604052806102648152602001611f39610264913981546001810183556000928352602090922090910190610a529082611541565b506006604051806102a001604052806102648152602001612743610264913981546001810183556000928352602090922090910190610a919082611541565b506006604051806102a001604052806102648152602001612ce9610264913981546001810183556000928352602090922090910190610ad09082611541565b506006604051806102a0016040528061026481526020016124df610264913981546001810183556000928352602090922090910190610b0f9082611541565b506007604051806103800160405280610342815260200161219d610342913981546001810183556000928352602090922090910190610b4e9082611541565b50600760405180610380016040528061034281526020016118b5610342913981546001810183556000928352602090922090910190610b8d9082611541565b5060076040518061038001604052806103428152602001611bf7610342913981546001810183556000928352602090922090910190610bcc9082611541565b50600760405180610380016040528061034281526020016129a7610342913981546001810183556000928352602090922090910190610c0b9082611541565b506040517f095ea7b300000000000000000000000000000000000000000000000000000000815273b9e155e65b5c4d66df28da8e9a0957f06f11bc04600482015260248101839052733a9f01091c446bde031e39ea8354647afef091e79063095ea7b3906044016020604051808303816000875af1158015610c91573d6000803e3d6000fd5b505050506040513d601f19601f82011682018060405250810190610cb5919061165b565b506040517fe40cb19d00000000000000000000000000000000000000000000000000000000815273b9e155e65b5c4d66df28da8e9a0957f06f11bc049063e40cb19d90610d109084908790600690600790899060040161179d565b600060405180830381600087803b158015610d2a57600080fd5b505af1158015610d3e573d6000803e3d6000fd5b50505050505050565b610d4f610fef565b600280547fffffffffffffffffffffff00ffffffffffffffffffffffffffffffffffffffff16908190556040517f3a7713b5c95bd34fb811d85c9797ca678591fbbb6ffc6f06e009bc863e9546b591610577917401000000000000000000000000000000000000000090910460ff161515815260200190565b610dd0610fef565b73ffffffffffffffffffffffffffffffffffffffff8116610e73576040517f08c379a000000000000000000000000000000000000000000000000000000000815260206004820152602660248201527f4f776e61626c653a206e6577206f776e657220697320746865207a65726f206160448201527f646472657373000000000000000000000000000000000000000000000000000060648201526084016104f4565b610e7c8161118a565b50565b610e87610fef565b60025474010000000000000000000000000000000000000000900460ff1615610f32576040517f08c379a000000000000000000000000000000000000000000000000000000000815260206004820152603160248201527f5075626c696320706f6f6c206973207374696c6c206f70656e2e20506c65617360448201527f6520636c6f73652069742066697273742e00000000000000000000000000000060648201526084016104f4565b476801bc16d674ec80000014610fa4576040517f08c379a000000000000000000000000000000000000000000000000000000000815260206004820152600d60248201527f506f6f6c206e6f742066756c6c0000000000000000000000000000000000000060448201526064016104f4565b60015460405173ffffffffffffffffffffffffffffffffffffffff909116906000906801bc16d674ec8000009082818181858883f19350505050158015610e7c573d6000803e3d6000fd5b60015473ffffffffffffffffffffffffffffffffffffffff163314610983576040517f08c379a000000000000000000000000000000000000000000000000000000000815260206004820181905260248201527f4f776e61626c653a2063616c6c6572206973206e6f7420746865206f776e657260448201526064016104f4565b6040517fffffffffffffffffffffffffffffffffffffffff000000000000000000000000606083901b16602082015260009060340160405160208183030381529060405280519060200120836040516020016110f7919060609190911b7fffffffffffffffffffffffffffffffffffffffff00000000000000000000000016815260140190565b604051602081830303815290604052805190602001201490505b92915050565b600260005403611183576040517f08c379a000000000000000000000000000000000000000000000000000000000815260206004820152601f60248201527f5265656e7472616e637947756172643a207265656e7472616e742063616c6c0060448201526064016104f4565b6002600055565b6001805473ffffffffffffffffffffffffffffffffffffffff8381167fffffffffffffffffffffffff0000000000000000000000000000000000000000831681179093556040519116919082907f8be0079c531659141344cd1fd0a4f28419497f9722a3daafe3b4186f6b6457e090600090a35050565b60405180608001604052806004906020820280368337509192915050565b803573ffffffffffffffffffffffffffffffffffffffff8116811461124357600080fd5b919050565b60006020828403121561125a57600080fd5b6112638261121f565b9392505050565b60808101818360005b600481101561129857815163ffffffff16835260209283019290910190600101611273565b50505092915050565b600080604083850312156112b457600080fd5b823591506112c46020840161121f565b90509250929050565b6000602082840312156112df57600080fd5b5035919050565b7f4e487b7100000000000000000000000000000000000000000000000000000000600052604160045260246000fd5b803563ffffffff8116811461124357600080fd5b6000806040838503121561133c57600080fd5b823567ffffffffffffffff8082111561135457600080fd5b818501915085601f83011261136857600080fd5b813560208282111561137c5761137c6112e6565b8160051b6040517fffffffffffffffffffffffffffffffffffffffffffffffffffffffffffffffe0603f830116810181811086821117156113bf576113bf6112e6565b6040529283528183019350848101820192898411156113dd57600080fd5b948201945b83861015611402576113f386611315565b855294820194938201936113e2565b9997909101359750505050505050565b60006020828403121561142457600080fd5b5051919050565b7f4e487b7100000000000000000000000000000000000000000000000000000000600052601160045260246000fd5b818103818111156111115761111161142b565b60007fffffffffffffffffffffffffffffffffffffffffffffffffffffffffffffffff820361149e5761149e61142b565b5060010190565b600181811c908216806114b957607f821691505b602082108103610465577f4e487b7100000000000000000000000000000000000000000000000000000000600052602260045260246000fd5b601f82111561153c57600081815260208120601f850160051c810160208610156115195750805b601f850160051c820191505b8181101561153857828155600101611525565b5050505b505050565b815167ffffffffffffffff81111561155b5761155b6112e6565b61156f8161156984546114a5565b846114f2565b602080601f8311600181146115c2576000841561158c5750858301515b7fffffffffffffffffffffffffffffffffffffffffffffffffffffffffffffffff600386901b1c1916600185901b178555611538565b6000858152602081207fffffffffffffffffffffffffffffffffffffffffffffffffffffffffffffffe08616915b8281101561160f578886015182559484019460019091019084016115f0565b508582101561164b57878501517fffffffffffffffffffffffffffffffffffffffffffffffffffffffffffffffff600388901b60f8161c191681555b5050505050600190811b01905550565b60006020828403121561166d57600080fd5b8151801515811461126357600080fd5b600081518084526020808501945080840160005b838110156116b357815163ffffffff1687529582019590820190600101611691565b509495945050505050565b600081548084526020808501808196506005915083821b81016000878152848120815b8781101561178e578484038b528282546116fa816114a5565b80875260018281168015611715576001811461174c57611777565b7fffffffffffffffffffffffffffffffffffffffffffffffffffffffffffffff0084168c8a01528b8315158c1b8a01019450611777565b8688528b8820885b8481101561176f5781548b82018f0152908301908d01611754565b8a018d019550505b509d8a019d929650505091909101906001016116e1565b50919998505050505050505050565b60a08152600086518060a084015260005b818110156117cb576020818a0181015160c08684010152016117ae565b50600060c082850101527fffffffffffffffffffffffffffffffffffffffffffffffffffffffffffffffe0601f8201168301905060c083820301602084015261181760c082018861167d565b9050828103604084015261182b81876116be565b9050828103606084015261183f81866116be565b915050826080830152969550505050505056fe30786131633461616532363036313662346534623433346434613136316636626634626134646230633162373865613339373430653231613534323564623365393262663332343666326362353030303731653861386264376432666235393066363078303030303030303030303030303030303030303030303030303030303030303030303030303030303030303030303030303030303030303030303030303032303030303030303030303030303030303030303030303030303030303030303030303030303030303030303030303030303030303030303030303030303031353837363435333536383436353936663735366336323464346237613533353135313632346134653733333134373433333537393331373735363266353336323338366633333735363137393339363436643330326234363661353636383336363734383739353034313736376136363666333936383338373137363262333832663464333436323637346236373333363633373533333433323632346437363462343237363435326634373435363836393665373332623665333633343734363134383561363333343434366337323464353634653339366337333331343834613336363134363462326636383464353136653636343535363634333336613533346234333731373836323631363633383434363236323739363735313338363737343636346334623532353434343463366234613666353436333537343134343332333633313435333333303738343637313739333536663665353137353737353236353438363337343664366333383262366133313735333236643731343935363533366436383738346235373661373335373436353333303733333137393465363434323461343735383461363537323538353537353435346233303534363532623632373536633462373234613333373533323661343537613438346237613733353733343331373136343661333636653437373133303639346135353339326633323337353234623737343235383530363436373636373533303339366235333530333834613433366634373464353236323538343837333731366437373739333636373662333633303331343733303661363533353532373534393436343936343639373036653638343334333336373034653535343934653661326636353662333834643664366535613731363932623433373537613333366634363666373836663534373733643364303030303030303030303030303030303078303030303030303030303030303030303030303030303030303030303030303030303030303030303030303030303030303030303030303030303030303032303030303030303030303030303030303030303030303030303030303030303030303030303030303030303030303030303030303030303030303030303031353834343638333333323731346237353338343736653535363636633634343836633332326236323432346634623736353836643532333736343338366136373262343435323332353035383537373333333333373133393433363836633635363737363434366136653338373933383466346335323537353133313661373036353663366134373639353036373532366232663439373234323438353836373561353534623462333535323438343933313537326637363665343733343737343835373734343737613661373136383432363732623436363435373637353734343466343736383266363835333538343534343462343234373266373435323539363336623637343737313530346435373431353636623463366434623737343533393437353232663335333736623338343433393466373336333463333533313532353735343331333837313732373435383435353635393730346137363636363534383339346334633535343135383735346136363331366236393463356136643466333137313334373735373736353834363539376136343731346636393338366636643339366237613633353534653439373033313538343937343433366434643433333334373335353236653561373634623665366137343735363237393331363737313666353133363332356135343335363435373436373632663433333636323435373333333439366134663735353434323735333434383736353933333731366232623532353435373533353534653333343535303633333133313538346633343330363434383336363633393436363136633332373836363339373136663337363735343437326632663736326237363331366434363266353834313464346233303337373836623331333334633339346435373335373336363632366337323739373733643364303030303030303030303030303030304c5330744c5331435255644a54694253553045675546564354456c4449457446575330744c533074436b314a53554a4a616b464f516d64726357687261556335647a424351564646526b464254304e425554684254556c4a516b4e6e53304e42555556424e56563353466c74556e4a6f4c33687762576f76643152486357774b4c7973765a45644e5746466c536b673056557074536a4e4e575868794d555530614746345a6b684c4b334e7a536b6858597a597662576c705254645a4d544278637939734e7a52764e4864474e6e4a325358597256417054596e5132556a644f4e584e4b59555a73596e5a334d325a43616d70695a456c51546e424851304a5461586c33615463334d336c515a7938764f4730344f484d784e544e77596a5a6d566e5669553251784d7a4a57436c70455a6b686d4d456450646e41346230687863485935616d707351304e6c563270684e58557a567a68714e325277574442735154597661544a52615734794e335645534856694d48643165574645634770724e44634b574731744f48563264315646545777314c307472524567335a324658556a4e7a4e6b6c755a6a52345456704b624845764d47706c566b646f556c6c356248673352464531576e56424e444e4353474e474d5774784d416f335a485530656a4655513274464e305a495a6c5a524d546446556e707755486c6d53326c35596c51345558646e6233565656326847556a4a714b33457862485a4762484a51523055324f5770495745394d56574d30436e56335355524255554643436930744c5330745255354549464a545153425156554a4d53554d675330565a4c5330744c53304b3078303030303030303030303030303030303030303030303030303030303030303030303030303030303030303030303030303030303030303030303030303032303030303030303030303030303030303030303030303030303030303030303030303030303030303030303030303030303030303030303030303030303031353837373466363636373736373837393636333436383466333535303634366136383732333637383438353437393734343337343534333134373533363836393732363637353337373536383735353033353738373535393638333734353434346536323331333436393732373937343664363734343331363934363438363237383631343134383634373034373666353934623435333934393336333932623631363434313539343535333631333134393333353036623536366236643664366137363432353534643534363935343664366533363530376133333737346435353538353934633665343634633633333037313631333437343532353637323531373636623638346534633631333136323534333437383438333035333731346234353638363536343464373333373533333736383465363734353661346637333433353235313262373735393335366337313336353836323631373434363637353937353436346333383331363734653262333634313735366237303638363636383463363934343535333033343266326636333632373834643663353633343661373436333336333536623465353937313332353937323636343534613661373537333337363937353634353436313439363734353334343734333332346437333262353132663337346434383632363236643736363634383530343837613437356136613332353037363539353136623436373833373761353036313530353733363664333334643632353236653336346235613463363234333738333337353634363637383336346434633636346635353432333135383739366434333530373935373533363836623464363735343533356136663338346433323732363136333662343535373738343435353466366436633661343534623539333036613461373435353439373733643364303030303030303030303030303030304c5330744c5331435255644a54694253553045675546564354456c4449457446575330744c533074436b314a53554a4a616b464f516d64726357687261556335647a424351564646526b464254304e425554684254556c4a516b4e6e53304e4255555642656c52445a31684c65537457526974764f464e49644656775431594b63584e4453444a485356684f556b4a74533049786232353161554532546e42464b3363724f58464d516c6c51556a64445a3070346557784d59574676596e4e564e57684b643030314b325a4b634746334f5539586241707a535534304d4774524e55314a615859335356464254557469536e5a754e6d467759575a4759584a46546a4133576a4a554e3256565744553152574a775343396c52585a44557a4234576a5633646b6c4354544a51436e704b53553554596c56554e4852354d544e445a6b465a4f4535494f576379624664695333417a565574754d545a70636d524d6357466d6430746a55544e74614739304b334e42534535324e5464614e57645a5333494b554759305130463462306f7954304645566c5259554778754f586c754f47686955303834616a5a4a4f54564859577869576b396c5a5464475233464d4e6d5972566e4a725a58424c4d4555354b325646536b4a545677706f65555278636a673464454679646c423156574e6855456c744d6c6c30644735735453397052474a4e4e444e6e575852484f455631625441764d455a5a5a475935646d744a6554525a4b32566d61476450566d6c75436e42335355524255554643436930744c5330745255354549464a545153425156554a4d53554d675330565a4c5330744c53304b4c5330744c5331435255644a54694253553045675546564354456c4449457446575330744c533074436b314a53554a4a616b464f516d64726357687261556335647a424351564646526b464254304e425554684254556c4a516b4e6e53304e42555556426555745657545645556d5a5a52456c6a656e677a636a68565930554b546c70464d4664495158467556324649526a5a59526c55796456644f626a564f564539345a6b74345a6d5a614c7a6b796556453163697451566b4a50526d5172634868494c7a493251584a565433644e4c316c425251705262445a30567a427463314671645574495531513461557476544452544e55743061444e6f655442716546524852315a5a6157646a574731765255526a643259786147387764575278526d6c454e33644657584e31436d5a486132453255315a514e6e426162314e4d615539485a46524b5557567a564449355745564364445a6e626c684d614642314d4552324b30787351554a4a51317071574546545a5774705346564b5548526a596c674b526a5a464c306c536347706b5748564e536d55794f585a44636d5a7564586857576b393361317074647a4a5864476c6a596c4e444f564a705346525957555131646e5647616b5a5852484e5a4d4552485544687a4f416f7963316861564864734e576c346445686c55574d324e316c4c52464e365955314d4e6e59315655565a626c6855547a5a7a4e4846565357566e54584a775a6a6433533078475657787152544d77626e4e4961564255436a42525355524255554643436930744c5330745255354549464a545153425156554a4d53554d675330565a4c5330744c53304b3078303030303030303030303030303030303030303030303030303030303030303030303030303030303030303030303030303030303030303030303030303032303030303030303030303030303030303030303030303030303030303030303030303030303030303030303030303030303030303030303030303030303031353834643732353636643436373533323431363336643262353833393533333836373336353034353266333334393536373032623332363136643639373533373632366634333632353835393537346436363535373935303633346533333266363635373461346136323661353035393661373135313732353635613734343133313634333335343534343736643631333435333732373234313262363737373437346234363663376133333666343234623336333334333262343733373262373736643432343636623531353535323439343137303533353433393666353737613333366537323434373836333736363834353561326234393636326635363433373336313336346336623436343336643336373233303635373036363731346132623434353334653733343435303661366433353435346335343733333736373661366536373463343134633330333035313530343233343639343334633735353435373664326637363337333536653333373232623637363433333330326637353432363536353433346333303636343937333330326236333436343134623661373533303666373235613664373936363338373134633733346536653465353036613633353736663439353934333537373436643437353136633535353137313533353436323739353134353536346536633339373034383461373735323631343336613666346634663635353733363666333036653330353033353461366337613733333437363761333533343338353733383663326634353438366134323439353335383561373537613638366137353735376136383530373534663736343132623531353534613262373136353431333835383731363735343338326236373335346236393739333134353534366333343336363834383434326237353530346637303638373733643364303030303030303030303030303030304c5330744c5331435255644a54694253553045675546564354456c4449457446575330744c533074436b314a53554a4a616b464f516d64726357687261556335647a424351564646526b464254304e425554684254556c4a516b4e6e53304e4255555642656c633556474e4a4d577858626d5579646b4e715a7a4a6c6232554b59336f334e6e5a344f56553251576776546e5a525430644a59314a54626b356d55576331616d786a4d304a7554554d34655731705154517a56484a44656a6c365546566855566f7a5a473569645739445a4559336177706f4f575a4b63566433534646725532704651315a745679745153324656576d51346157343263475647626d67725a456f77656e52316355783161556c4a4d5751765530357864474a5561464132566a513454477844436b6c7356556858564652614b7a4e5659326442616e6c77656e4978526d7859553268475630773061476378655846334b30703157573179546e593263475a616557645662545a5161544256617a565855565a6e556b344b523252725533425462325a595a45524763456c574e307842553356306132644755797471566e70614c334535626d6831656a566a4e6c4a5761445976563168695a5670446258686e4d47553252326849565859306241703453474e6153556b726157687a576b354b4d33563562324e6961576c756245354561544e4d4b326879534555784d45784e6556526f4e326c565343387964316b344d6a4a4b4d6d644453455a7a4e57686b566b4e72436d35335355524255554643436930744c5330745255354549464a545153425156554a4d53554d675330565a4c5330744c53304ba2646970667358221220c0066bfa715e47525732c0f7f02b15991e429fe9d8e885f7d5650f4c8f99bc0e64736f6c63430008110033",
    "linkReferences": {}
  },
  "methodIdentifiers": {
    "allowPubDeposit()": "a4e0db7e",
    "closePubPool()": "ef31c324",
    "depositEthKYB()": "62a4f740",
    "depositSSV(uint32[],uint256)": "9203affa",
    "getBalance()": "12065fe0",
    "getOperators()": "27a099d8",
    "is_BUSINESS()": "4d5a1c1f",
    "openPubPool()": "158dc875",
    "owner()": "8da5cb5b",
    "quadrataContract()": "0e87d0d9",
    "renounceOwnership()": "715018a6",
    "tokenIDtoValidator(uint256)": "82586105",
    "transferOwnership(address)": "f2fde38b",
    "updateValidator(uint256,address)": "5a27cbcb",
    "verified(address)": "0db065f4",
    "withdrawAny(uint256)": "77ad99f0",
    "withdrawBatch()": "f6b21af2"
  },
  "id": 25
}