{
  "abi": [
    {
      "inputs": [
        {
          "internalType": "address",
          "name": "_quadrataContract",
          "type": "address"
        },
        {
          "internalType": "address",
          "name": "_ssvToken",
          "type": "address"
        },
        {
          "internalType": "address",
          "name": "_ssvContract",
          "type": "address"
        },
        {
          "internalType": "address",
          "name": "_depositAddress",
          "type": "address"
        }
      ],
      "stateMutability": "nonpayable",
      "type": "constructor"
    },
    {
      "anonymous": false,
      "inputs": [
        {
          "indexed": false,
          "internalType": "address",
          "name": "_sender",
          "type": "address"
        }
      ],
      "name": "DepositReceived",
      "type": "event"
    },
    {
      "anonymous": false,
      "inputs": [
        {
          "indexed": false,
          "internalType": "address",
          "name": "_sender",
          "type": "address"
        },
        {
          "indexed": false,
          "internalType": "bytes",
          "name": "_pubkey",
          "type": "bytes"
        }
      ],
      "name": "DepositReceivedStaked",
      "type": "event"
    },
    {
      "anonymous": false,
      "inputs": [
        {
          "indexed": false,
          "internalType": "address",
          "name": "_sender",
          "type": "address"
        }
      ],
      "name": "DepositReceivedTest",
      "type": "event"
    },
    {
      "anonymous": false,
      "inputs": [
        {
          "indexed": false,
          "internalType": "address",
          "name": "_sender",
          "type": "address"
        }
      ],
      "name": "DepositStaked",
      "type": "event"
    },
    {
      "anonymous": false,
      "inputs": [
        {
          "indexed": true,
          "internalType": "address",
          "name": "previousOwner",
          "type": "address"
        },
        {
          "indexed": true,
          "internalType": "address",
          "name": "newOwner",
          "type": "address"
        }
      ],
      "name": "OwnershipTransferred",
      "type": "event"
    },
    {
      "inputs": [],
      "name": "DEPOSIT_ADDRESS",
      "outputs": [
        {
          "internalType": "address",
          "name": "",
          "type": "address"
        }
      ],
      "stateMutability": "view",
      "type": "function"
    },
    {
      "inputs": [],
      "name": "QUADRATA",
      "outputs": [
        {
          "internalType": "address",
          "name": "",
          "type": "address"
        }
      ],
      "stateMutability": "view",
      "type": "function"
    },
    {
      "inputs": [],
      "name": "SSV_ADDRESS",
      "outputs": [
        {
          "internalType": "address",
          "name": "",
          "type": "address"
        }
      ],
      "stateMutability": "view",
      "type": "function"
    },
    {
      "inputs": [],
      "name": "SSV_TOKEN",
      "outputs": [
        {
          "internalType": "address",
          "name": "",
          "type": "address"
        }
      ],
      "stateMutability": "view",
      "type": "function"
    },
    {
      "inputs": [
        {
          "internalType": "address",
          "name": "_staker",
          "type": "address"
        },
        {
          "internalType": "bytes",
          "name": "pubkey",
          "type": "bytes"
        },
        {
          "internalType": "uint32[]",
          "name": "operatorIds",
          "type": "uint32[]"
        },
        {
          "internalType": "bytes[]",
          "name": "sharesPublicKeys",
          "type": "bytes[]"
        },
        {
          "internalType": "bytes[]",
          "name": "sharesEncrypted",
          "type": "bytes[]"
        },
        {
          "internalType": "uint256",
          "name": "ssvAmount",
          "type": "uint256"
        },
        {
          "internalType": "bytes",
          "name": "withdrawal_credentials",
          "type": "bytes"
        },
        {
          "internalType": "bytes",
          "name": "signature",
          "type": "bytes"
        },
        {
          "internalType": "bytes32",
          "name": "deposit_data_root",
          "type": "bytes32"
        }
      ],
      "name": "createSSV",
      "outputs": [],
      "stateMutability": "payable",
      "type": "function"
    },
    {
      "inputs": [
        {
          "internalType": "address",
          "name": "_staker",
          "type": "address"
        },
        {
          "internalType": "bytes",
          "name": "pubkey",
          "type": "bytes"
        },
        {
          "internalType": "uint32[]",
          "name": "operatorIds",
          "type": "uint32[]"
        },
        {
          "internalType": "bytes[]",
          "name": "sharesPublicKeys",
          "type": "bytes[]"
        },
        {
          "internalType": "bytes[]",
          "name": "sharesEncrypted",
          "type": "bytes[]"
        },
        {
          "internalType": "uint256",
          "name": "ssvAmount",
          "type": "uint256"
        }
      ],
      "name": "createSSVTest",
      "outputs": [],
      "stateMutability": "payable",
      "type": "function"
    },
    {
      "inputs": [],
      "name": "depositIntoContract",
      "outputs": [],
      "stateMutability": "payable",
      "type": "function"
    },
    {
      "inputs": [],
      "name": "depositIntoContractTest",
      "outputs": [],
      "stateMutability": "payable",
      "type": "function"
    },
    {
      "inputs": [],
      "name": "getBalance",
      "outputs": [
        {
          "internalType": "uint256",
          "name": "",
          "type": "uint256"
        }
      ],
      "stateMutability": "view",
      "type": "function"
    },
    {
      "inputs": [
        {
          "internalType": "address",
          "name": "_addr",
          "type": "address"
        }
      ],
      "name": "getValidator",
      "outputs": [
        {
          "internalType": "bytes[]",
          "name": "",
          "type": "bytes[]"
        }
      ],
      "stateMutability": "view",
      "type": "function"
    },
    {
      "inputs": [],
      "name": "getValidatorSelf",
      "outputs": [
        {
          "internalType": "bytes[]",
          "name": "",
          "type": "bytes[]"
        }
      ],
      "stateMutability": "view",
      "type": "function"
    },
    {
      "inputs": [],
      "name": "is_BUSINESS",
      "outputs": [
        {
          "internalType": "bytes32",
          "name": "",
          "type": "bytes32"
        }
      ],
      "stateMutability": "view",
      "type": "function"
    },
    {
      "inputs": [],
      "name": "owner",
      "outputs": [
        {
          "internalType": "address",
          "name": "",
          "type": "address"
        }
      ],
      "stateMutability": "view",
      "type": "function"
    },
    {
      "inputs": [],
      "name": "renounceOwnership",
      "outputs": [],
      "stateMutability": "nonpayable",
      "type": "function"
    },
    {
      "inputs": [
        {
          "internalType": "address",
          "name": "newOwner",
          "type": "address"
        }
      ],
      "name": "transferOwnership",
      "outputs": [],
      "stateMutability": "nonpayable",
      "type": "function"
    },
    {
      "inputs": [
        {
          "internalType": "address",
          "name": "_sender",
          "type": "address"
        }
      ],
      "name": "verified",
      "outputs": [
        {
          "internalType": "bool",
          "name": "",
          "type": "bool"
        }
      ],
      "stateMutability": "view",
      "type": "function"
    }
  ],
  "bytecode": {
    "object": "0x6080346200010157601f62001b1e38819003918201601f19168301916001600160401b03831184841017620001065780849260809460405283398101031262000101576200004d816200011c565b6200005b602083016200011c565b6200007760606200006f604086016200011c565b94016200011c565b600160005560015460018060a01b03199033828216176001556040519560018060a01b03948592833391167f8be0079c531659141344cd1fd0a4f28419497f9722a3daafe3b4186f6b6457e0600080a38284600254169185600354169282876004541697600554169a16176002551617600355161760045516176005556119ec9081620001328239f35b600080fd5b634e487b7160e01b600052604160045260246000fd5b51906001600160a01b0382168203620001015756fe6080604052600436101561001257600080fd5b6000803560e01c80630db065f4146110a95780630df1ecfd1461105757806312065fe01461101d5780631904bb2e14610ebf5780633753836614610c495780634898858a14610ac55780634d5a1c1f14610a6c578063715018a6146109cd578063801648591461097b5780638da5cb5b14610929578063946eadac146107b7578063cee8ce8414610353578063e0f3f8e0146102aa578063e99f0c9b14610258578063f2fde38b146101215763ff0d2c26146100cd57600080fd5b3461011e57807ffffffffffffffffffffffffffffffffffffffffffffffffffffffffffffffffc36011261011e57602073ffffffffffffffffffffffffffffffffffffffff60055416604051908152f35b80fd5b503461011e5760207ffffffffffffffffffffffffffffffffffffffffffffffffffffffffffffffffc36011261011e576101596110f5565b61016161124b565b73ffffffffffffffffffffffffffffffffffffffff8091169081156101d457600154827fffffffffffffffffffffffff0000000000000000000000000000000000000000821617600155167f8be0079c531659141344cd1fd0a4f28419497f9722a3daafe3b4186f6b6457e0600080a380f35b60846040517f08c379a000000000000000000000000000000000000000000000000000000000815260206004820152602660248201527f4f776e61626c653a206e6577206f776e657220697320746865207a65726f206160448201527f64647265737300000000000000000000000000000000000000000000000000006064820152fd5b503461011e57807ffffffffffffffffffffffffffffffffffffffffffffffffffffffffffffffffc36011261011e57602073ffffffffffffffffffffffffffffffffffffffff60025416604051908152f35b50807ffffffffffffffffffffffffffffffffffffffffffffffffffffffffffffffffc36011261011e576102dc611354565b6102ed6102e8336118e9565b6112ca565b33815260076020526040812060017fffffffffffffffffffffffffffffffffffffffffffffffffffffffffffffff008254161790557f3208b26f3b196315309b41d11d34544ee609dcc4ecbd0dfb2e82b8a6539e19716020604051338152a16001815580f35b506101207ffffffffffffffffffffffffffffffffffffffffffffffffffffffffffffffffc36011261011e576103876110f5565b67ffffffffffffffff6024358181116106d5576103a89036906004016111ec565b9290916044358181116107b3576103c390369060040161121a565b906064358381116107af576103dc90369060040161121a565b91906084358581116107ab576103f690369060040161121a565b908a60c4358881116107a7576104109036906004016111ec565b919060e435998a116107a75761046b60ff604073ffffffffffffffffffffffffffffffffffffffff946104488f9e36906004016111ec565b96909e610453611354565b61045b61124b565b16815260076020522054166113c3565b6801bc16d674ec8000004710610749578d9973ffffffffffffffffffffffffffffffffffffffff6005541690813b15610745576801bc16d674ec8000008f8f92610556908f976105266104f6986040519b8c9a8b998a987f22895118000000000000000000000000000000000000000000000000000000008a52608060048b015260848a01916114ac565b917ffffffffffffffffffffffffffffffffffffffffffffffffffffffffffffffffc8884030160248901526114ac565b917ffffffffffffffffffffffffffffffffffffffffffffffffffffffffffffffffc8584030160448601526114ac565b61010435606483015203925af190811561073a578891610722575b5050600354600480546040517f095ea7b300000000000000000000000000000000000000000000000000000000815273ffffffffffffffffffffffffffffffffffffffff9182169281019290925260a435602483018190529792602091839160449183918e91165af18015610717576106e8575b5073ffffffffffffffffffffffffffffffffffffffff6004541693843b156106e45788968c9488948d94610649946040519c8d9b8c9a8b997fe40cb19d000000000000000000000000000000000000000000000000000000008b5260048b016115c9565b03925af180156106d9576106c1575b50506106b77f1d9f9a9e3282b963f061280cbb7f497e41f15f7e7aa8940b589b36847e9c60369373ffffffffffffffffffffffffffffffffffffffff8316865260066020526106ab8185604089206116af565b604051938493846118b9565b0390a16001815580f35b6106ca90611428565b6106d5578338610658565b8380fd5b6040513d84823e3d90fd5b8880fd5b6107099060203d602011610710575b610701818361146b565b8101906114eb565b50386105e5565b503d6106f7565b6040513d8b823e3d90fd5b61072b90611428565b610736578638610571565b8680fd5b6040513d8a823e3d90fd5b8b80fd5b60646040517f08c379a000000000000000000000000000000000000000000000000000000000815260206004820152601060248201527f4e6f7420656e6f75676874204554482e000000000000000000000000000000006044820152fd5b5080fd5b8980fd5b8780fd5b8580fd5b503461011e57807ffffffffffffffffffffffffffffffffffffffffffffffffffffffffffffffffc36011261011e57338152602060068152604082209081549067ffffffffffffffff82116108fc576040519260059161081b8185851b018661146b565b83855280850191865280862086925b858410610843576040518061083f898261111d565b0390f35b6040518389928454926108558461165c565b8082526001948086169081156108c3575060011461088b575b5061087d81600196038261146b565b81520192019301929061082a565b868d52838d2095508c905b8082106108ac575081018301945061087d61086e565b865483830186015295850195889490910190610896565b7fffffffffffffffffffffffffffffffffffffffffffffffffffffffffffffff001685840152501515891b81018301945061087d61086e565b6024847f4e487b710000000000000000000000000000000000000000000000000000000081526041600452fd5b503461011e57807ffffffffffffffffffffffffffffffffffffffffffffffffffffffffffffffffc36011261011e57602073ffffffffffffffffffffffffffffffffffffffff60015416604051908152f35b503461011e57807ffffffffffffffffffffffffffffffffffffffffffffffffffffffffffffffffc36011261011e57602073ffffffffffffffffffffffffffffffffffffffff60045416604051908152f35b503461011e57807ffffffffffffffffffffffffffffffffffffffffffffffffffffffffffffffffc36011261011e57610a0461124b565b600073ffffffffffffffffffffffffffffffffffffffff6001547fffffffffffffffffffffffff00000000000000000000000000000000000000008116600155167f8be0079c531659141344cd1fd0a4f28419497f9722a3daafe3b4186f6b6457e08280a380f35b503461011e57807ffffffffffffffffffffffffffffffffffffffffffffffffffffffffffffffffc36011261011e5760206040517faf369ce728c816785c72f1ff0222ca9553b2cb93729d6a803be6af0d2369239b8152f35b50807ffffffffffffffffffffffffffffffffffffffffffffffffffffffffffffffffc36011261011e57610af7611354565b610b036102e8336118e9565b6801bc16d674ec8000003403610b795733815260076020526040812060017fffffffffffffffffffffffffffffffffffffffffffffffffffffffffffffff008254161790557ff1ba5e02dd9da55d69765f748d69bc46c6b056e18d3d4f619f1c372c5e568cb86020604051338152a16001815580f35b60c46040517f08c379a000000000000000000000000000000000000000000000000000000000815260206004820152606c60248201527f596f752061726520747279696e6720746f206465706f736974206d6f7265207460448201527f68616e207468652063757272656e7420706f6f6c2063616e20686f6c642e205060648201527f6c65617365207761697420666f7220746865206e657874206f6e65206f72206460848201527f65706f736974206c6573732e000000000000000000000000000000000000000060a4820152fd5b5060c07ffffffffffffffffffffffffffffffffffffffffffffffffffffffffffffffffc36011261011e57610c7c6110f5565b67ffffffffffffffff9190602435838111610ebb57610c9f9036906004016111ec565b604492919235858111610eb757610cba90369060040161121a565b9060643587811161073657610cd390369060040161121a565b976084359081116107af57610cec90369060040161121a565b610cf7999199611354565b610cff61124b565b73ffffffffffffffffffffffffffffffffffffffff998a88168a526007602052610d2f60ff60408c2054166113c3565b8a60035416928b600454169360208c604051928380927f095ea7b300000000000000000000000000000000000000000000000000000000825281610d9d60a435809c600484016020909392919373ffffffffffffffffffffffffffffffffffffffff60408201951681520152565b03925af18015610eac57610e8e575b508b6004541694853b15610745578b969594899488948d94610dfe946040519c8d9b8c9a8b997fe40cb19d000000000000000000000000000000000000000000000000000000008b5260048b016115c9565b03925af18015610e8357610e4c575b506106b7907f1d9f9a9e3282b963f061280cbb7f497e41f15f7e7aa8940b589b36847e9c603694958316865260066020526106ab8185604089206116af565b907f1d9f9a9e3282b963f061280cbb7f497e41f15f7e7aa8940b589b36847e9c603694610e7b6106b793611428565b945090610e0d565b6040513d87823e3d90fd5b610ea59060203d811161071057610701818361146b565b5038610dac565b6040513d8e823e3d90fd5b8480fd5b8280fd5b503461011e576020807ffffffffffffffffffffffffffffffffffffffffffffffffffffffffffffffffc3601126107a75773ffffffffffffffffffffffffffffffffffffffff610f0d6110f5565b16825260068152604082209081549067ffffffffffffffff82116108fc5760405192600591610f408185851b018661146b565b83855280850191865280862086925b858410610f64576040518061083f898261111d565b604051838992845492610f768461165c565b808252600194808616908115610fe45750600114610fac575b50610f9e81600196038261146b565b815201920193019290610f4f565b868d52838d2095508c905b808210610fcd5750810183019450610f9e610f8f565b865483830186015295850195889490910190610fb7565b7fffffffffffffffffffffffffffffffffffffffffffffffffffffffffffffff001685840152501515891b810183019450610f9e610f8f565b503461011e57807ffffffffffffffffffffffffffffffffffffffffffffffffffffffffffffffffc36011261011e57602047604051908152f35b503461011e57807ffffffffffffffffffffffffffffffffffffffffffffffffffffffffffffffffc36011261011e57602073ffffffffffffffffffffffffffffffffffffffff60035416604051908152f35b503461011e5760207ffffffffffffffffffffffffffffffffffffffffffffffffffffffffffffffffc36011261011e5760206110eb6110e66110f5565b6118e9565b6040519015158152f35b6004359073ffffffffffffffffffffffffffffffffffffffff8216820361111857565b600080fd5b6020808201818352835180915260408301918060408360051b860101950193600080915b848310611152575050505050505090565b909192939495967fffffffffffffffffffffffffffffffffffffffffffffffffffffffffffffffc0828203018752848851805190818452855b8281106111d85750508083018201859052601f017fffffffffffffffffffffffffffffffffffffffffffffffffffffffffffffffe016909101810197810196019493926001019190611141565b81810184015185820185015288930161118b565b9181601f840112156111185782359167ffffffffffffffff8311611118576020838186019501011161111857565b9181601f840112156111185782359167ffffffffffffffff8311611118576020808501948460051b01011161111857565b73ffffffffffffffffffffffffffffffffffffffff60015416330361126c57565b60646040517f08c379a000000000000000000000000000000000000000000000000000000000815260206004820152602060248201527f4f776e61626c653a2063616c6c6572206973206e6f7420746865206f776e65726044820152fd5b156112d157565b60846040517f08c379a0000000000000000000000000000000000000000000000000000000008152602060048201526024808201527f596f7520617265206e6f74206120766572696669656420627573696e6573732060448201527f7965742e000000000000000000000000000000000000000000000000000000006064820152fd5b600260005414611365576002600055565b60646040517f08c379a000000000000000000000000000000000000000000000000000000000815260206004820152601f60248201527f5265656e7472616e637947756172643a207265656e7472616e742063616c6c006044820152fd5b156113ca57565b60646040517f08c379a000000000000000000000000000000000000000000000000000000000815260206004820152601f60248201527f5374616b657220646964206e6f74206465706f73697420455448207965742e006044820152fd5b67ffffffffffffffff811161143c57604052565b7f4e487b7100000000000000000000000000000000000000000000000000000000600052604160045260246000fd5b90601f7fffffffffffffffffffffffffffffffffffffffffffffffffffffffffffffffe0910116810190811067ffffffffffffffff82111761143c57604052565b601f82602094937fffffffffffffffffffffffffffffffffffffffffffffffffffffffffffffffe0938186528686013760008582860101520116010190565b90816020910312611118575180151581036111185790565b9082818152602080910193818360051b82010194846000925b85841061152d575050505050505090565b909192939495967fffffffffffffffffffffffffffffffffffffffffffffffffffffffffffffffe082820301845287357fffffffffffffffffffffffffffffffffffffffffffffffffffffffffffffffe18436030181121561111857830186810191903567ffffffffffffffff8111611118578036038313611118576115b8889283926001956114ac565b99019401940192959493919061151c565b999897959391906115e59195939560a08c5260a08c01916114ac565b906020828b829403828d01528281520194916000805b8382106116345750505050508261162f9492611621928a608098960360408c0152611503565b918783036060890152611503565b930152565b9091929396873563ffffffff8116809103610ebb5781528301968301939291600101906115fb565b90600182811c921680156116a5575b602083101461167657565b7f4e487b7100000000000000000000000000000000000000000000000000000000600052602260045260246000fd5b91607f169161166b565b9182546801000000000000000081101561143c5760019283820180865582101561188a576000948552602091828620019467ffffffffffffffff841161185d576116f9865461165c565b601f8111611817575b508092601f851160011461177a57509293929184918261174f575b50507fffffffffffffffffffffffffffffffffffffffffffffffffffffffffffffffff91921b9260031b1c1916179055565b013591507fffffffffffffffffffffffffffffffffffffffffffffffffffffffffffffffff3861171d565b868252808220939185917fffffffffffffffffffffffffffffffffffffffffffffffffffffffffffffffe0831691905b888383106117fd57505050106117c5575b505050811b019055565b7fffffffffffffffffffffffffffffffffffffffffffffffffffffffffffffffff60f88560031b161c199101351690553880806117bb565b8686013588559096019593840193879350908101906117aa565b868252838220601f860160051c810191858710611853575b601f0160051c019086905b828110611848575050611702565b83815501869061183a565b909150819061182f565b807f4e487b7100000000000000000000000000000000000000000000000000000000602492526041600452fd5b7f4e487b7100000000000000000000000000000000000000000000000000000000600052603260045260246000fd5b60409073ffffffffffffffffffffffffffffffffffffffff6118e6959316815281602082015201916114ac565b90565b602073ffffffffffffffffffffffffffffffffffffffff604481600254169360405194859384927f4d30b6be0000000000000000000000000000000000000000000000000000000084521660048301527faf369ce728c816785c72f1ff0222ca9553b2cb93729d6a803be6af0d2369239b60248301525afa80156119aa57600090611978575b60019150101590565b6020823d82116119a2575b816119906020938361146b565b8101031261011e57506001905161196f565b3d9150611983565b6040513d6000823e3d90fdfea26469706673582212200e10e7ad689a46787d2e4579ba44db454dd1ed2cf31772ce65cf4d15ba4895a864736f6c63430008110033",
    "linkReferences": {}
  },
  "methodIdentifiers": {
    "DEPOSIT_ADDRESS()": "ff0d2c26",
    "QUADRATA()": "e99f0c9b",
    "SSV_ADDRESS()": "80164859",
    "SSV_TOKEN()": "0df1ecfd",
    "createSSV(address,bytes,uint32[],bytes[],bytes[],uint256,bytes,bytes,bytes32)": "cee8ce84",
    "createSSVTest(address,bytes,uint32[],bytes[],bytes[],uint256)": "37538366",
    "depositIntoContract()": "4898858a",
    "depositIntoContractTest()": "e0f3f8e0",
    "getBalance()": "12065fe0",
    "getValidator(address)": "1904bb2e",
    "getValidatorSelf()": "946eadac",
    "is_BUSINESS()": "4d5a1c1f",
    "owner()": "8da5cb5b",
    "renounceOwnership()": "715018a6",
    "transferOwnership(address)": "f2fde38b",
    "verified(address)": "0db065f4"
  },
  "id": 16
}